:040000003FEF00F0DE
:1000080006820E0133AB0BEF00F00DEF00F022EF8C
:1000180000F00B0ED46E0B0ED36E044A052A180E90
:1000280004180510D8A41BEF00F01DEF00F021EF15
:1000380000F0000E056E000E046E339B35A127EF0D
:1000480000F029EF00F03DEF00F080A62EEF00F061
:1000580032EF00F0016A012A33EF00F0016A01462D
:100068000146014680500118F70B0118806E0E01F9
:1000780035910692110008EF01F002A046EF00F05A
:1000880048EF00F04BEF00F07F804CEF00F07F90DE
:1000980002A251EF00F053EF00F056EF00F07F821C
:1000A80057EF00F07F9202A45CEF00F05EEF00F0E3
:1000B80061EF00F0798462EF00F0799402A667EFAF
:1000C80000F069EF00F06CEF00F07E8C6DEF00F04F
:1000D8007E9C02A872EF00F074EF00F077EF00F05A
:1000E800798878EF00F0799802AA7DEF00F07FEF29
:1000F80000F082EF00F0798A83EF00F0799A02AC81
:1001080088EF00F08AEF00F08DEF00F07E808EEF30
:1001180000F07E9002AE93EF00F095EF00F098EFBC
:1001280000F07A8099EF00F07A9003A09EEF00F03B
:10013800A0EF00F0A3EF00F07A82A4EF00F07A922B
:100148001200E1EC00F0D0EC00F00FEC01F0D0EC84
:1001580000F0BDEC00F014EC01F0F1EC00F004C08C
:1001680002F005C003F041EC00F0B3EF00F03FEF00
:1001780000F081860E01D251F80B0309D26FD351DA
:10018800F80B0509D36FD083D089D183D181FEECD8
:1001980000F00E01D08F1200879087928194869C80
:1001A8008198819A869082907F907F9279947E9CA4
:1001B8007998799A7E907A901200D6501F0B400950
:1001C800D66ED688D650F00B0809D66ED5880B0E99
:1001D800D46E0B0ED36ED58E120081860E019287D7
:1001E8000F015899FC0E5817030E5F6F60946088D2
:1001F800608E1200F30E0E01C617C691C751E00BB0
:100208001B09C76FC68F1200056A046A069006921A
:100218000001A5EF00F00E01298BF28EF28C12007E
:060228008096889612008A
:020000040020DA
:10000000FF0FFF0FFF0FFF0FFF0FFF0FFF0FFF0F80
:020000040030CA
:0C000000AAFFFFFF9FFFFFFFFFFFFFFFB5
:00000001FF
