:040000003DEF00F0E0
:1000080007820E0133AB0BEF00F00DEF00F014EF99
:1000180000F00B0ED46E0B0ED36E034A042A339BEA
:1000280035A119EF00F01BEF00F03BEF00F0015095
:100038000210D8B422EF00F024EF00F02FEF00F008
:10004800025009E1050E015CD8A02DEF00F02FEF5A
:1000580000F03AEF00F0D0AD34EF00F036EF00F0EA
:1000680039EF00F080863AEF00F0809635910792DC
:060078001100EDEF07F09E
:100E000000566F6C74616765203D2025642E253087
:100E10003264000005A00FEF07F011EF07F014EFA8
:100E200007F07F8015EF07F07F9005A21AEF07F01B
:100E30001CEF07F01FEF07F07F8220EF07F07F9293
:100E400005A425EF07F027EF07F02AEF07F07984D4
:100E50002BEF07F0799405A630EF07F032EF07F09B
:100E600035EF07F07E8C36EF07F07E9C05A83BEF50
:100E700007F03DEF07F040EF07F0798841EF07F00A
:100E8000799805AA46EF07F048EF07F04BEF07F017
:100E9000798A4CEF07F0799A05AC51EF07F053EFE0
:100EA00007F056EF07F07E8057EF07F07E9005AE13
:100EB0005CEF07F05EEF07F061EF07F07A8062EF1A
:100EC00007F07A9006A067EF07F069EF07F06CEF84
:100ED00007F07A826DEF07F07A921200DDEC07F0EE
:100EE000CCEC07F011EC08F0CCEC07F0B9EC07F013
:100EF00016EC08F0FAEC07F03C0E03180410D8A426
:100F000084EF07F086EF07F09AEF07F0014A022A14
:100F1000000E046E000E036E180E01180210D8A405
:100F200094EF07F096EF07F09AEF07F0000E026ECD
:100F3000000E016E01500210D8B4A1EF07F0A3EF2C
:100F400007F0AFEF07F0025007E1050E015CD8B0E3
:100F5000ACEF07F0AEEF07F0AFEF07F0809601C0FF
:100F600005F002C006F00AEC07F07CEF07F03DEF59
:100F700000F081860E01D251F80B0309D26FD351D4
:100F8000F80B0509D36FD083D089D183D18107ECC9
:100F900008F00E01D08F1200879087928194869C72
:100FA0008198819A869082907F907F9279947E9C9E
:100FB0007998799A7E907A901200D6501F0B40094A
:100FC000D66ED688D650F00B0209D66ED5880B0E99
:100FD000D46E0B0ED36ED58E1200046A036A026AB9
:100FE000016A07900792000EF86E0E0EF76E000170
:100FF0006EEF07F081860E0192870F015899FC0E63
:101000005817030E5F6F60946088608E1200F30EB5
:101010000E01C617C691C751E00B1B09C76FC68FDB
:1010200012000E01298BF28EF28C120080868896B7
:021030001200AC
:020000040020DA
:10000000FF0FFF0FFF0FFF0FFF0FFF0FFF0FFF0F80
:020000040030CA
:0C000000AAFFFFFF9FFFFFFFFFFFFFFFB5
:00000001FF
