:0400000064EF00F0B9
:100008005F820E0133AB0BEF00F00DEF00F016EF3F
:1000180000F00B0ED46E0B0ED36E0001DD4BDE2B01
:100028000E01339B35A11BEF00F01DEF00F062EFCE
:1000380000F0D0BD22EF00F024EF00F02FEF00F029
:10004800DFC0D7F0E0C0D8F0DDC0D5F0DEC0D6F014
:10005800809660EF00F0D0AD34EF00F036EF00F09E
:1000680060EF00F0DFC0D3F0E0C0D4F0DDC0D1F025
:10007800DEC0D2F00001DF51E011D8B446EF00F045
:1000880048EF00F053EF00F0E05109E1050EDF5DA5
:10009800D8A051EF00F053EF00F060EF00F00E0130
:1000A800D0AD59EF00F05BEF00F05EEF00F0808616
:1000B8005FEF00F0809680860E0135915F92110007
:0400C80007EF13F03B
:100E000000566F6C74616765203D2025642E253087
:100E100032640067657476616C203D20256400258E
:100E200064202F2025640000000E0001C66F020E12
:100E3000C56F000EC86F020EC76F000ECA6F1B0E83
:100E4000C96F070EC46FE40EC36F000EC26F000EB1
:100E5000C16F000EC06F000EBF6F52EC13F041EC7B
:100E600013F080EC13F041EC13F02EEC13F085EC52
:100E700013F0FDEC10F0010E9FEC12F0790E000162
:100E8000606F000E616F1F0E626F0E0E636FC9C040
:100E900064F0CAC065F0C7C066F0C8C067F0E8EC8F
:100EA00011F0790E046E000E056ED7EC12F0020EF2
:100EB0009FEC12F0AB0E0001606F000E616F1F0E11
:100EC000626F0E0E636FC5C064F0C6C065F0C3C02C
:100ED00066F0C4C067F0E8EC11F0AB0E046E000ED3
:100EE000056ED7EC12F03C0E0001DD19DE11D8A41E
:100EF0007CEF07F07EEF07F054EF08F0DF4BE02BBC
:100F0000DFC001F0E0C002F044EC10F0000E000180
:100F1000DE6F000EDD6F180EDF19E011D8A493EF1D
:100F200007F095EF07F054EF08F0000EE06F000EA9
:100F3000DF6FC54BC62BC94BCA2BC70E0C6E000EFC
:100F40000D6EC90E0E6E000E0F6EC30E106E000EEB
:100F5000116E68EC09F0070E0001C519C611D8A47E
:100F6000B4EF07F0B6EF07F0BAEF07F0000EC66F68
:100F7000000EC56F62EC13F00001D551D15DD65162
:100F8000D259D8A0C6EF07F0C8EF07F0D6EF07F0A8
:100F9000D551D15DD96FD651D259DA6FD751D35DC2
:100FA000DB6FD851D459DC6FEEEF07F0D551D15D2E
:100FB000756FD651D259766F3C0E7525D96F000EDC
:100FC0007621DA6FD751D35D756FD851D459766FCA
:100FD000FF0E7525DB6FFF0E7621DC6FD7C001F0A9
:100FE000D8C002F0000E046E3C0E036E1BEC13F032
:100FF00001C075F002C076F0DBC001F0DCC002F089
:10100000000E046E3C0E036E1BEC13F00150000149
:101010007525776F02507621786FD5517727D65195
:101020007823D9517725076EDA517821086E000EA2
:101030000A6E3C0E096E48EC11F007C0CFF008C0F4
:10104000D0F0D7C001F0D8C002F0000E046E3C0E04
:10105000036E1BEC13F001C075F002C076F0DBC02C
:1010600001F0DCC002F0000E046E3C0E036E1BECBF
:1010700013F0015000017525776F02507621786FCB
:10108000D5517727D6517823D9517725076EDA5174
:101090007821086E000E0A6E3C0E096EB6EC11F057
:1010A00007C0CDF008C0CEF00001DF51E011D8B488
:1010B0005CEF08F05EEF08F06EEF08F0E05107E13A
:1010C000050EDF5DD8B067EF08F069EF08F06EEF4E
:1010D00008F08096000EC06F010EBF6F050EDF197D
:1010E000E011D8A476EF08F078EF08F08FEF08F061
:1010F000BF05C011D8A47FEF08F081EF08F08FEF93
:1011000008F00E01D0AD87EF08F089EF08F08FEFFF
:1011100008F08086000E0001C06F000EBF6F000156
:10112000C551C611D8A497EF08F099EF08F0CDEF9C
:1011300008F0030EC719C811D8A4A1EF08F0A3EF57
:1011400008F0CDEF08F0DF05E011D8A4AAEF08F011
:10115000ACEF08F0CDEF08F0DD51DE11D8A4B3EF0D
:1011600008F0B5EF08F0CDEF08F0CA5109E1190E0B
:10117000C95DD8A0BEEF08F0C0EF08F0CDEF08F0D1
:10118000CA5107E1200EC95DD8B0C9EF08F0CBEF16
:1011900008F0CDEF08F0DF4BE02BC551C611D8A405
:1011A000D4EF08F0D6EF08F01BEF09F00A0EC719CC
:1011B000C811D8A4DEEF08F0E0EF08F01BEF09F04B
:1011C000020EDF19E011D8A4E8EF08F0EAEF08F00A
:1011D0001BEF09F0DD51DE11D8A4F1EF08F0F3EFB9
:1011E00008F01BEF09F0CA5109E1190EC95DD8A03A
:1011F000FCEF08F0FEEF08F01BEF09F0CA5107E121
:10120000200EC95DD8B007EF09F009EF09F01BEF18
:1012100009F0C151C211D8A410EF09F012EF09F082
:101220001BEF09F0DF07D8A0E007000EC26F010E28
:10123000C16F3BEF07F0C551C611D8A422EF09F0EA
:1012400024EF09F03BEF07F00A0EC719C811D8A424
:101250002CEF09F02EEF09F03BEF07F0020EDF193B
:10126000E011D8A436EF09F038EF09F03BEF07F0B2
:10127000DD51DE11D8A43FEF09F041EF09F03BEF5B
:1012800007F0CA5109E1190EC95DD8A04AEF09F06B
:101290004CEF09F03BEF07F0CA5107E1200EC95DA2
:1012A000D8B055EF09F057EF09F03BEF07F0C10553
:1012B000C211D8A45EEF09F060EF09F03BEF07F030
:1012C000000EC26F000EC16F3BEF07F064EF00F03D
:1012D0000CC0D9FF0DC0DAFFDE04DE10D8B473EF06
:1012E00009F075EF09F0C9EF09F00CC0D9FF0DC086
:1012F000DAFF030EDE18DE10D8B481EF09F083EFB9
:1013000009F0C9EF09F00CC0D9FF0DC0DAFF050ED6
:10131000DE18DE10D8B48FEF09F091EF09F0C9EFB5
:1013200009F00CC0D9FF0DC0DAFF070EDE18DE1081
:10133000D8B49DEF09F09FEF09F0C9EF09F00CC098
:10134000D9FF0DC0DAFF080EDE18DE10D8B4ABEFFF
:1013500009F0ADEF09F0C9EF09F00CC0D9FF0DC0DD
:10136000DAFF0A0EDE18DE10D8B4B9EF09F0BBEFD1
:1013700009F0C9EF09F00CC0D9FF0DC0DAFF0C0E5F
:10138000DE18DE10D8A4C7EF09F0C9EF09F003EFAB
:101390000AF00EC0D9FF0FC0DAFF200EDE18DE10F3
:1013A000D8A4D5EF09F0D7EF09F003EF0AF00EC08B
:1013B000D9FF0FC0DAFF010EDE6E000EDD6E0CC02D
:1013C000D9FF0DC0DAFFDE2A000EDD220CC0D9FFE6
:1013D0000DC0DAFF0D0EDE18DE10D8A4F2EF09F012
:1013E000F4EF09F003EF0AF00CC0D9FF0DC0DAFFEB
:1013F000010EDE6E000EDD6E10C0D9FF11C0DAFFE7
:10140000DE2A000EDD220CC0D9FF0DC0DAFF040E6B
:10141000DE18DE10D8B40FEF0AF011EF0AF03BEF40
:101420000AF00CC0D9FF0DC0DAFF060EDE18DE1080
:10143000D8B41DEF0AF01FEF0AF03BEF0AF00CC022
:10144000D9FF0DC0DAFF090EDE18DE10D8B42BEF7D
:101450000AF02DEF0AF03BEF0AF00CC0D9FF0DC0E7
:10146000DAFF0B0EDE18DE10D8A439EF0AF03BEFDE
:101470000AF058EF0AF00EC0D9FF0FC0DAFF1F0EB6
:10148000DE18DE10D8A447EF0AF049EF0AF058EF53
:101490000AF00EC0D9FF0FC0DAFF010EDE6E000E9B
:1014A000DD6E0CC0D9FF0DC0DAFFDE2A000EDD2292
:1014B00010C0D9FF11C0DAFFDECF12F0DDCF13F07C
:1014C000030E1216000E131612501310D8A46BEF51
:1014D0000AF06DEF0AF084EF0AF010C0D9FF11C0D6
:1014E000DAFFDECF07F0DDCF08F0000E0A6E640EE3
:1014F000096EB6EC11F007500810D8A482EF0AF07C
:1015000084EF0AF09BEF0AF010C0D9FF11C0DAFF98
:10151000DECF07F0DDCF08F0010E0A6E900E096EE7
:10152000B6EC11F007500810D8A499EF0AF09BEF21
:101530000AF0A1EF0AF0000E156E010E146EA5EF71
:101540000AF0000E156E000E146E0CC0D9FF0DC00F
:10155000DAFF020EDE18DE10D8A4B1EF0AF0B3EF06
:101560000AF0DBEF0AF014041510D8A4BAEF0AF061
:10157000BCEF0AF0DBEF0AF00EC0D9FF0FC0DAFFB4
:101580001E0EDE18DE10D8A4C8EF0AF0CAEF0AF06B
:1015900002EF0BF00EC0D9FF0FC0DAFF010EDE6EB6
:1015A000000EDD6E0CC0D9FF0DC0DAFFDE2A000E82
:1015B000DD2202EF0BF00CC0D9FF0DC0DAFF020EE6
:1015C000DE18DE10D8A4E7EF0AF0E9EF0AF002EF28
:1015D0000BF014501510D8A4F0EF0AF0F2EF0AF057
:1015E00002EF0BF00EC0D9FF0FC0DAFF1D0EDE18A0
:1015F000DE10D8A4FEEF0AF000EF0BF002EF0BF0C4
:10160000CAEF0AF0120041C0D9FF42C0DAFFDECFB4
:10161000F6FFDDCFF7FF000EF86E0800F550250A43
:10162000D8A415EF0BF017EF0BF049EF0CF041C009
:10163000D9FF42C0DAFFDE2A000EDD22000E0001D3
:10164000CC6F000ECB6FCBC05EF05C685D68000EA7
:10165000516E000E506E59EF0BF05E8241C0D9FF03
:1016600042C0DAFFDE2A000EDD2259EF0BF0000E39
:10167000516E010E506E59EF0BF041C0D9FF42C0C0
:10168000DAFFDECFF6FFDDCFF7FF000EF86E0800C1
:10169000F550456E466A4650000AD8B452EF0BF03A
:1016A00037EF0BF04550300AD8B42DEF0BF037EF81
:1016B0000BF050505110D8B460EF0BF062EF0BF00C
:1016C0003DEF0BF041C0D9FF42C0DAFFDECFF6FF9D
:1016D000DDCFF7FF000EF86E0800F5502A0AD8A4F7
:1016E00074EF0BF076EF0BF0A0EF0BF041C0D9FFD9
:1016F00042C0DAFFDE2A000EDD2243C0D9FF44C01B
:10170000DAFFDFCF45F0020EDE26DFCF46F0000E17
:10171000DD2245C0D9FF46C0DAFFDECFCBF0DDCFFA
:10172000CCF00001CCBF99EF0BF097EF0BF0D5EFA9
:101730000BF05E80CB6DCC1FD8B0CC2BD5EF0BF06F
:1017400041C0D9FF42C0DAFFDECF07F0DDCF08F09D
:1017500030EC0FF007C0CBF008C0CCF0B7EF0BF0C7
:1017600041C0D9FF42C0DAFFDE2A000EDD2241C0AF
:10177000D9FF42C0DAFFDECFF6FFDDCFF7FF000E64
:10178000F86E0800F5CF45F0D00E4524466E476A46
:10179000FF0E4722475009E10A0E465CD8A0D3EF5E
:1017A0000BF0D5EF0BF0B0EF0BF041C0D9FF42C00A
:1017B000DAFFDECF52F0DDCF53F052C0F6FF53C058
:1017C000F7FF000EF86E0800F550640AD8B4EBEF8E
:1017D0000BF0EDEF0BF0FDEF0BF052C0F6FF53C036
:1017E000F7FF000EF86E0800F550690AD8A4FBEF69
:1017F0000BF0FDEF0BF040EF0CF043C0D9FF44C0FD
:10180000DAFFDFCF45F0020EDE26DFCF46F0000E16
:10181000DD2245C0D9FF46C0DAFFDECF48F0DDCF7C
:1018200049F0000E49BEFF0E4A6E4B6E4C6E4D6E77
:101830004E6E4F6E010E5224456E000E5320466EC2
:1018400041C0D9FF42C0DAFF45C0DEFF46C0DDFF20
:101850003FC01CF040C01DF048C01EF049C01FF042
:101860004AC020F04BC021F04CC022F04DC023F004
:101870004EC024F04FC025F060EC0CF05FEF0CF090
:1018800041C0D9FF42C0DAFFDE2A000EDD225FEF41
:101890000CF041C0D9FF42C0DAFFDECFF6FFDDCF4A
:1018A000F7FF000EF86E0800F550016E026A3FC0A7
:1018B00003F040C004F0DFEC0FF040EF0CF012003A
:1018C0001EC034F01FC035F020C036F021C037F004
:1018D00022C038F023C039F024C03AF025C03BF0D4
:1018E0003BBE75EF0CF078EF0CF0010E79EF0CF0C9
:1018F000000E3E6E3E50D8B480EF0CF082EF0CF03C
:1019000092EF0CF03B1E3A1E391E381E371E361E53
:10191000351E346C000E3522362237223822392209
:101920003A223B225DBE97EF0CF099EF0CF09AEF54
:101930000CF05E925DBEA7EF0CF05D5006E15C041A
:10194000D8B0A5EF0CF0A7EF0CF0ADEF0CF0000E47
:10195000316E010E306EB1EF0CF05CC030F05DC046
:1019600031F0CBC032F0CCC033F03E50D8B4BBEF36
:101970000CF0BDEF0CF0D4EF0CF03206D8A033061B
:101980003E50D8A4C6EF0CF0C8EF0CF0CEEF0CF030
:10199000000E2F6E2B0E2E6ED2EF0CF0000E2F6E5F
:1019A0002D0E2E6E2EC03EF0000E3D6E1F0E3C6EB4
:1019B000000E01011F6F59EF0DF03C06D8A03D0647
:1019C000000E3C24D96E010E3D20DA6E34C001F0C9
:1019D00035C002F036C003F037C004F038C005F05F
:1019E00039C006F03AC007F03BC008F00A0E096E95
:1019F000000E0A6E000E0B6E000E0C6E000E0D6EC9
:101A0000000E0E6E000E0F6E000E106E7EEC0EF0CD
:101A100001C026F002C027F003C028F004C029F05E
:101A200005C02AF006C02BF007C02CF008C02DF02E
:101A300026C013F027C014F07FEC12F01350300FC3
:101A4000DF6E3006D8A031063206D8A0330634C087
:101A500001F035C002F036C003F037C004F038C0E2
:101A600005F039C006F03AC007F03BC008F00A0E96
:101A7000096E000E0A6E000E0B6E000E0C6E000E4C
:101A80000D6E000E0E6E000E0F6E000E106EBAEC94
:101A90000DF001C034F002C035F003C036F004C0D0
:101AA00037F005C038F006C039F007C03AF008C07A
:101AB0003BF03DBE64EF0DF03D5008E13C04D8A082
:101AC00064EF0DF066EF0DF096EF0DF03450351029
:101AD00036103710381039103A103B10D8A473EF75
:101AE0000DF075EF0DF0DDEF0CF031BE82EF0DF073
:101AF000315006E13004D8B080EF0DF082EF0DF0E8
:101B0000DDEF0CF033BE8DEF0DF0335008E1320401
:101B1000D8A08DEF0DF08FEF0DF096EF0DF05EB2C7
:101B200094EF0DF096EF0DF0DDEF0CF03E50D8B4D1
:101B30009CEF0DF09EEF0DF0A9EF0DF03C06D8A044
:101B40003D06000E3C24D96E010E3D20DA6E3EC0EB
:101B5000DFFF1CC011F01DC012F0000E3C24136EFC
:101B6000010E3D20146E32C015F033C016F0A8EC03
:101B700010F01200000E126E10BEC3EF0DF0C1EF98
:101B80000DF0D5EF0DF0101E0F1E0E1E0D1E0C1EBB
:101B90000B1E0A1E096C000E0A220B220C220D22BB
:101BA0000E220F221022010E126E08BEDCEF0DF085
:101BB000DAEF0DF0EEEF0DF0081E071E061E051EF3
:101BC000041E031E021E016C000E022203220422C8
:101BD0000522062207220822010E121A20EE13F017
:101BE000070EDE6AE806FDE209500A100B100C1021
:101BF0000D100E100F101010D8B401EF0EF003EFFF
:101C00000EF055EF0EF0010E116E11EF0EF0D890A0
:101C100009360A360B360C360D360E360F361036B0
:101C2000112A10AE16EF0EF018EF0EF007EF0EF0BF
:101C3000D890133614361536163617361836193628
:101C40001A360950015C0A5002580B5003580C50C8
:101C500004580D5005580E5006580F500758105094
:101C60000858D8A036EF0EF038EF0EF049EF0EF01E
:101C70000950015E0A50025A0B50035A0C50045A84
:101C80000D50055A0E50065A0F50075A1050085A58
:101C90001380D89010320F320E320D320C320B32CC
:101CA0000A320932112E18EF0EF01250D8B45BEF41
:101CB0000EF05DEF0EF06DEF0EF01A1E191E181EDD
:101CC000171E161E151E141E136C000E142215224C
:101CD00016221722182219221A2213C001F014C04A
:101CE00002F015C003F016C004F017C005F018C0CC
:101CF00006F019C007F01AC008F01200000E126EAC
:101D000008BE87EF0EF085EF0EF099EF0EF0081E7B
:101D1000071E061E051E041E031E021E016C000E79
:101D20000222032204220522062207220822010E93
:101D3000126E10BEA0EF0EF09EEF0EF0B0EF0EF0A0
:101D4000101E0F1E0E1E0D1E0C1E0B1E0A1E096CF1
:101D5000000E0A220B220C220D220E220F2210222C
:101D600009500A100B100C100D100E100F1010104F
:101D7000D8B4BDEF0EF0BFEF0EF007EF0FF0010E7D
:101D8000116ECDEF0EF0D89009360A360B360C36B0
:101D90000D360E360F361036112A10AED2EF0EF079
:101DA000D4EF0EF0C3EF0EF00950015C0A50025858
:101DB0000B5003580C5004580D5005580E5006583F
:101DC0000F50075810500858D8A0E9EF0EF0EBEF6D
:101DD0000EF0FBEF0EF00950015E0A50025A0B5054
:101DE000035A0C50045A0D50055A0E50065A0F5003
:101DF000075A1050085AD89010320F320E320D3256
:101E00000C320B320A320932112ED4EF0EF012507E
:101E1000D8B40DEF0FF00FEF0FF01FEF0FF0081E0B
:101E2000071E061E051E041E031E021E016C000E68
:101E3000022203220422052206220722082201C0D0
:101E400001F002C002F003C003F004C004F005C0BA
:101E500005F006C006F007C007F008C008F0120041
:101E6000000E0F6E000E0E6E000E0D6E000E0C6E4C
:101E70003CEF0FF0074A082A07C0F6FF08C0F7FF3B
:101E8000000EF86E0800F550200AD8B44AEF0FF0A3
:101E90004CEF0FF03AEF0FF007C0F6FF08C0F7FF66
:101EA000000EF86E0800F5CF09F0F70E09240A6E4F
:101EB0000B6AFF0E0B220B5009E1050E0A5CD8A03D
:101EC00064EF0FF066EF0FF03AEF0FF070EF0FF0E6
:101ED000000E0D6E010E0C6E074A082AA9EF0FF0D6
:101EE00007C0F6FF08C0F7FF000EF86E0800F550B7
:101EF000096E0A6A0A50000AD8B481EF0FF0A9EF00
:101F00000FF009502B0AD8B46CEF0FF0060AD8B4C2
:101F100068EF0FF0A9EF0FF00EC001F00FC002F054
:101F2000000E046E0A0E036E1BEC13F007C0F6FFE2
:101F300008C0F7FF000EF86E0800F550015E000EB5
:101F4000025A300E01240E6E000E02200F6E6CEF4E
:101F50000FF007C0F6FF08C0F7FF000EF86E08008C
:101F6000F5CF09F0D00E09240A6E0B6AFF0E0B2282
:101F70000B5009E10A0E0A5CD8A0C1EF0FF0C3EFC5
:101F80000FF08CEF0FF00C500D10D8A4CAEF0FF02B
:101F9000CCEF0FF0DAEF0FF00EC009F00FC00AF02F
:101FA000091E0A1E094A0A2A09C007F00AC008F0D9
:101FB000DEEF0FF00EC007F00FC008F01200035064
:101FC0000410D8B4E6EF0FF0E8EF0FF0F1EF0FF0E8
:101FD00003500410D8A4EFEF0FF0F1EF0FF0F6EF7D
:101FE0000FF0015088EC13F043EF10F020EE09F0F1
:101FF0000350D9260450DA22DE50DE10D8B403EFA5
:1020000010F005EF10F020EF10F020EE09F0035073
:10201000D9260450DA2210EE03F00350E1260450D2
:10202000E222DE50E65CE650800A096EDE50800A4D
:102030000958D8B01EEF10F020EF10F043EF10F069
:1020400020EE03F00350D9260450DA22DECF05F04B
:10205000DDCF06F003C0D9FF04C0DAFFDECF07F002
:10206000DDCF08F005500724D96E06500820DA6E3F
:1020700001C0DFFF20EE03F00350D9260450DA221E
:10208000DE2A000EDD22120001A049EF10F04BEF16
:1020900010F04EEF10F07F804FEF10F07F9001A214
:1020A00054EF10F056EF10F059EF10F07F825AEF16
:1020B00010F07F9201A45FEF10F061EF10F064EF79
:1020C00010F0798465EF10F0799401A66AEF10F0B2
:1020D0006CEF10F06FEF10F07E8C70EF10F07E9CC4
:1020E00001A875EF10F077EF10F07AEF10F0798813
:1020F0007BEF10F0799801AA80EF10F082EF10F0DA
:1021000085EF10F0798A86EF10F0799A01AC8BEFA9
:1021100010F08DEF10F090EF10F07E8091EF10F046
:102120007E9001AE96EF10F098EF10F09BEF10F05C
:102130007A809CEF10F07A9002A0A1EF10F0A3EF4C
:1021400010F0A6EF10F07A82A7EF10F07A9212004A
:102150005EA0ADEF10F0AFEF10F0B9EF10F013C0CC
:102160000AF014C00BF011C00CF012C00DF05DECC1
:1021700012F016BEBEEF10F0C0EF10F0C6EF10F078
:1021800015C01AF016C01BF0CAEF10F0000E1B6E3F
:10219000000E1A6E000E196E000E186EDCEF10F0B5
:1021A000000E026E200E016E11C003F012C004F08A
:1021B000DFEC0FF0184A192A1A50185C1950800ADF
:1021C000176E1B50800A1758D8A0E9EF10F0EBEFFC
:1021D00010F0D0EF10F05EB0F0EF10F0F2EF10F072
:1021E000FCEF10F013C00AF014C00BF011C00CF09B
:1021F00012C00DF05DEC12F01200839C8394829665
:102200008294859685927B9C7B947A967A947D962F
:102210007D92050E056E0F0E046EF10EE82EFED7B0
:10222000042EFCD7052EFAD700F0030E82EC11F035
:10223000F00EE82EFED7020E82EC11F0F00EE82E22
:10224000FED7000E026E280EBCEC12F0F00EE82E47
:10225000FED7000E026E080EBCEC12F0F00EE82E57
:10226000FED7000E026E010EBCEC12F02A0E046EB8
:102270008E0EE82EFED7042EFCD7000E026E060E40
:10228000BCEC12F0000E026E0C0EBCEC12F0120050
:10229000000E0C6E000E0B6E09500A10D8B453EFEE
:1022A00011F055EF11F07DEF11F0010E0D6E5DEFA5
:1022B00011F0D89009360A360D2A0AAE62EF11F0F5
:1022C00064EF11F059EF11F0D8900B360C3609502D
:1022D000075C0A500858D8A070EF11F072EF11F0A7
:1022E00077EF11F00950075E0A50085A0B80D8901A
:1022F0000A3209320D2E64EF11F00BC007F00CC04A
:1023000008F01200016E01A088EF11F08AEF11F0C1
:102310008DEF11F07A868EEF11F07A9601A293EF8D
:1023200011F095EF11F098EF11F07A8499EF11F018
:102330007A9401A49EEF11F0A0EF11F0A3EF11F039
:102340007D86A4EF11F07D9601A6A9EF11F0ABEF09
:1023500011F0AEEF11F07D82AFEF11F07D9279ECCC
:1023600013F01A0EE82EFED700D0120009500A1002
:10237000D8B4BDEF11F0BFEF11F0E3EF11F0010E93
:102380000B6EC7EF11F0D89009360A360B2A0AAE49
:10239000CCEF11F0CEEF11F0C3EF11F00950075C54
:1023A0000A500858D8A0D7EF11F0D9EF11F0DDEF9F
:1023B00011F00950075E0A50085AD8900A320932C3
:1023C0000B2ECEEF11F007C007F008C008F0120086
:1023D000640E0001686F000E696F60C06AF061C032
:1023E0006BF0000E6E6F000E6D6F000E746F000EBE
:1023F000736F6A0E546E000E556E62C056F063C065
:1024000057F0680E586E000E596E11EC12F0000174
:102410006D516025D96E6E516121DA6E000EDF6E4E
:10242000120056C05AF057C05BF025EF12F054C0AE
:102430003FF055C040F05A0E416E000E426E58C03B
:1024400043F059C044F003EC0BF05AC0F6FF5BC0F8
:10245000F7FF000EF86E0800F5500009D8A433EF1E
:1024600012F035EF12F017EF12F0000E556E000E5D
:10247000546E1200010E056E200E01180210D8B421
:1024800044EF12F046EF12F059EF12F0F70E01246C
:10249000036EFF0E0220046E045009E1050E035C7A
:1024A000D8A055EF12F057EF12F059EF12F0000ECE
:1024B000056E05C001F0026A1200000E106E000EDB
:1024C0000F6E6EEF12F00EC001F0026A0CC003F046
:1024D0000DC004F0DFEC0FF00F4A102A0F500A2451
:1024E000D96E10500B20DA6EDF500E6E0E50D8A44D
:1024F0007CEF12F07EEF12F063EF12F0120014BEC8
:102500008CEF12F0145006E11304D8B08AEF12F0E9
:102510008CEF12F09AEF12F013C015F014C016F001
:10252000151E161E154A162A15C013F016C014F0F3
:102530009EEF12F013C013F014C014F01200046EDA
:102540000404D8A4A6EF12F0A8EF12F0ADEF12F039
:10255000000E026E800EBCEC12F0020E0418D8A41D
:10256000B4EF12F0B6EF12F0BBEF12F0000E026EF5
:10257000C00EBCEC12F01200036E0250D8B4C3EFD0
:1025800012F0C5EF12F0C8EF12F07B8CC9EF12F019
:102590007B9C03380F0B0F0B82EC11F003500F0BD9
:1025A00082EC11F0A00E00D0E82EFDD71200E4EF6F
:1025B00012F0010E026E04C0D9FF05C0DAFFDF5031
:1025C000BCEC12F0044A052A04C0D9FF05C0DAFFAA
:1025D000DF50D8A4EEEF12F0F0EF12F0D9EF12F0C6
:1025E0001200D00E0124036EFF0E0220046E045070
:1025F0000AE10A0E035CD8A000EF13F003EF13F01A
:10260000010E04EF13F0000E016E026A120001EEDB
:1026100000F0200EEE6AE806FDE100EECBF0160EAB
:10262000EE6AE806FDE15E6A5D6A5C6A5F905F9251
:10263000000114EF07F001500302F3CF05F0F4CFCF
:1026400006F001500402F350062602500302F35034
:10265000062605C001F006C002F0120081860E01B8
:10266000D251F80B0309D26FD351F80B0509D36F80
:10267000D083D089D183D1816FEC13F00E01D08F3C
:102680001200879087928194869C8198819A869087
:1026900082907F907F9279947E9C7998799A7E90AF
:1026A0007A901200D6501F0B4009D66ED688D650AD
:1026B000F00B0209D66ED5880B0ED46E0B0ED36EBE
:1026C000D58E1200000E026E010EBCEC12F02A0E26
:1026D000046E8E0EE82EFED7042EFCD71200F30EE9
:1026E0000E01C617C691C751E00B1B09C76FC68FF5
:1026F00012007B840A0EE82EFED700D07B941200D5
:102700000E01298BF28EF28C1200808688961200C0
:022710001200B5
:020000040020DA
:10000000FF0FFF0FFF0FFF0FFF0FFF0FFF0FFF0F80
:020000040030CA
:0C000000AAFFFFFF9FFFFFFFFFFFFFFFB5
:00000001FF
