:040000005FEF00F0BE
:100008005E820E0133AB0BEF00F00DEF00F014EF42
:1000180000F00B0ED46E0B0ED36E5A4A5B2A339B3C
:1000280035A119EF00F01BEF00F05DEF00F0D0BD37
:1000380020EF00F022EF00F02DEF00F05CC054F04C
:100048005DC055F05AC052F05BC053F080965CEF2B
:1000580000F0D0AD32EF00F034EF00F05CEF00F0CC
:100068005CC050F05DC051F05AC04EF05BC04FF01C
:100078005C505D10D8B443EF00F045EF00F050EF4E
:1000880000F05D5009E1050E5C5CD8A04EEF00F071
:1000980050EF00F05CEF00F0D0AD55EF00F057EFF7
:1000A80000F05AEF00F080865BEF00F080968086C3
:1000B80035915E921100E4EF09F02B50800B346EFD
:1000C8002B502B24366E2AAE6CEF00F06EEF00F04A
:1000D8006FEF00F036803650D8B475EF00F077EF48
:1000E80000F08CEF00F03628D8A47DEF00F07FEF09
:1000F80000F087EF00F0000E286E000E296E000E4B
:100108002A6E000E2B6E2A8E000E2B6E94EF00F0D6
:10011800000E286E000E296E000E2A6E000E2B6E41
:100128002F50800B356E34503518D8B49EEF00F040
:10013800A0EF00F0A1EF00F0348C2F502F24356E83
:100148002EAEA9EF00F0ABEF00F0ACEF00F0358079
:100158003550D8B4B2EF00F0B4EF00F0C9EF00F0BA
:100168003528D8A4BAEF00F0BCEF00F0C4EF00F0D7
:10017800000E2C6E000E2D6E000E2E6E000E2F6ED1
:100188002E8E000E2F6ED1EF00F0000E2C6E000E9A
:100198002D6E000E2E6E000E2F6E3650355CD8B0C8
:1001A800D8EF00F0DAEF00F001EF01F034ACDFEF48
:1001B80000F0E1EF00F0E3EF00F0800E341A36C0F3
:1001C80037F035C036F037C035F028C037F02CC0CE
:1001D80028F037C02CF029C037F02DC029F037C0DF
:1001E8002DF02AC037F02EC02AF037C02EF02BC0D1
:1001F80037F02FC02BF037C02FF0000E376E365077
:1002080035C030F0316A305E000E315A31BE16EF1B
:1002180001F0315009E11A0E305CD8A016EF01F058
:1002280018EF01F04FEF01F0285029102A102B1079
:10023800D8A421EF01F024EF01F0010E25EF01F021
:10024800000E376E000E286E000E296E000E2A6E04
:10025800000E2B6E35C036F058EF01F037A037EF9F
:1002680001F039EF01F03FEF01F0D8903730010984
:10027800376E41EF01F0D890373228A046EF01F0F1
:1002880048EF01F049EF01F0378E2B342B322A3238
:1002980029322832362A3550365CD8A056EF01F07C
:1002A80058EF01F032EF01F034BC5DEF01F05FEF81
:1002B80001F09FEF01F03650D8A465EF01F067EF29
:1002C80001F071EF01F0000E286E000E296E000E8D
:1002D8002A6E000E2B6EC0EF02F02C5028262D50EF
:1002E80029222E502A222F502B222BA07EEF01F0FC
:1002F80080EF01F02CEF02F037A085EF01F087EFD7
:1003080001F08DEF01F0D89037300109376E8FEF8B
:1003180001F0D890373228A094EF01F096EF01F061
:1003280097EF01F0378E2B342B322A3229322832BC
:10033800362A2CEF02F02C50285C2D5029582E50CC
:100348002A582B50800A306E2F50800A3058D8B067
:10035800B0EF01F0B2EF01F0DDEF01F028502C5CB6
:10036800306E29502D58316E2A502E58326E2B502F
:100378002F58336EFF0E3024286EFF0E3120296E61
:10038800FF0E32202A6EFF0E33202B6E800E341A99
:10039800376C3750D8A4D3EF01F0D5EF01F0E5EF73
:1003A80001F0010E2826000E29222A222B22E5EF31
:1003B80001F02C50285E2D50295A2E502A5A2F50C1
:1003C8002B5A285029102A102B10D8A4EEEF01F030
:1003D800F0EF01F025EF02F03750D8A4F6EF01F066
:1003E800F8EF01F025EF02F0000E286E000E296EDE
:1003F800000E2A6E000E2B6EC0EF02F0D890283641
:1004080029362A362B3637AE0CEF02F00EEF02F003
:100418000FEF02F0288037A014EF02F016EF02F079
:100428001AEF02F0D88037361CEF02F0D890373632
:100438003650D8B422EF02F024EF02F025EF02F094
:1004480036062AAE2AEF02F02CEF02F002EF02F095
:10045800000E356E37AE33EF02F035EF02F04DEF98
:1004680002F037C030F07F0E3016D8B43EEF02F0FD
:1004780040EF02F044EF02F0010E356E4DEF02F04E
:1004880028A049EF02F04BEF02F04DEF02F040EFE9
:1004980002F03550D8B453EF02F055EF02F080EF78
:1004A80002F0010E2826000E29222A222B222BA038
:1004B80060EF02F062EF02F080EF02F028C030F047
:1004C80029C031F02AC032F02BC033F03334333234
:1004D80032323132303230C028F031C029F032C0E7
:1004E8002AF033C02BF03628D8B47DEF02F07FEF26
:1004F80002F080EF02F0362A3628D8B486EF02F0F0
:1005080088EF02F090EF02F03650D8A48EEF02F098
:1005180090EF02F0A2EF02F0000E286E000E296E96
:10052800000E2A6E000E2B6E3650D8A49EEF02F0F5
:10053800A0EF02F0A2EF02F0000E346E36A0A7EF93
:1005480002F0A9EF02F0ACEF02F02A8EADEF02F054
:100558002A9ED89036302B6E34AEB5EF02F0B7EF46
:1005680002F0B8EF02F02B8E28C028F029C029F03D
:100578002AC02AF02BC02BF012001250800B1B6EE1
:1005880012501224216E11AECCEF02F0CEEF02F021
:10059800CFEF02F021802150D8B4D5EF02F0D7EF89
:1005A80002F0EAEF02F02128D8A4DDEF02F0DFEF35
:1005B80002F0E7EF02F0000E0F6E000E106E000E54
:1005C800116E000E126E118EF2EF02F0000E0F6E19
:1005D800000E106E000E116E000E126E1650800B7B
:1005E8001B1A16501624206E15AEFDEF02F0FFEF11
:1005F80002F000EF03F020802050D8B406EF03F09B
:1006080008EF03F01BEF03F02028D8A40EEF03F047
:1006180010EF03F018EF03F0000E136E000E146EC7
:10062800000E156E000E166E158E23EF03F0000EE9
:10063800136E000E146E000E156E000E166E20500E
:10064800D8B429EF03F02BEF03F033EF03F0215078
:10065800D8A431EF03F033EF03F03DEF03F0000EC1
:100668000F6E000E106E000E116E000E126ED5EF9A
:1006780004F015500F02F3CF26F0F4CF27F02650E0
:100688001C6E1D6A1E6A1F6A2750226E236A246A1E
:10069800256A14501002F3CF26F0F4CF27F0265025
:1006A8001C26000E1D221E221F2227502226000E65
:1006B80023222422252213501102F3CF26F0F4CF4F
:1006C80027F026501C26000E1D221E221F2227500E
:1006D8002226000E2322242225221EC01FF01DC020
:1006E8001EF01CC01DF01C6A13501002F3CF26F038
:1006F800F4CF27F026501C2627501D22000E1E225C
:10070800000E1F2214500F02F3CF26F0F4CF27F06B
:1007180026501C2627501D22000E1E22000E1F22C6
:100728001EC01FF01DC01EF01CC01DF01C6A135017
:100738000F02F3CF26F0F4CF27F026501C262750BF
:100748001D22000E1E22000E1F2215501002F3CF8C
:1007580026F0F4CF27F02650222627502322000E19
:100768002422000E252214501102F3CF26F0F4CFD4
:1007780027F02650222627502322000E2422000E7E
:10078800252215501102F3CF26F0F4CF27F026507A
:10079800176E2750186E196A1A6A19C01AF018C00D
:1007A80019F017C018F0176A17502226185023227C
:1007B800195024221A5025221CC017F01DC018F009
:1007C8001EC019F01FC01AF0190EF0EF03F0D890F0
:1007D8001A32193218321732E82EEBEF03F017509D
:1007E800222618502322195024221A5025221EC0CE
:1007F8001FF01DC01EF01CC01DF01C6A205021C037
:1008080017F0186A1726000E1822820E1724266E73
:10081800FF0E1820276E26EF04F0D89022362336D4
:10082800243625361FAE1BEF04F01DEF04F01EEF33
:1008380004F02280D8901C361D361E361F36260638
:10084800D8A0270624AE2BEF04F02DEF04F011EF0B
:1008580004F0000E206E1FAE34EF04F036EF04F003
:100868005AEF04F0FF0E1C14176EFF0E1D14186EBD
:10087800FF0E1E14196E7F0E1F141A6E17501810D3
:1008880019101A10D8B44BEF04F04DEF04F051EFE3
:1008980004F0010E206E5AEF04F022A056EF04F087
:1008A80058EF04F05AEF04F04DEF04F02050D8B49C
:1008B80060EF04F062EF04F086EF04F0010E2226E8
:1008C800000E23222422252225A06DEF04F06FEFCD
:1008D80004F086EF04F022C017F023C018F024C0FB
:1008E80019F025C01AF01A341A3219321832173290
:1008F80017C022F018C023F019C024F01AC025F040
:10090800264A272A27BE91EF04F0275008E1262817
:10091800D8A091EF04F093EF04F09DEF04F0000EDF
:10092800226E000E236E800E246E7F0E256ECBEF96
:1009380004F027BEAAEF04F0275006E12604D8B039
:10094800A8EF04F0AAEF04F0B6EF04F0000E226E50
:10095800000E236E000E246E000E256E000E1B6E18
:10096800CBEF04F026C021F0FF0E2216FF0E23164F
:100978007F0E2416000E251621A0C5EF04F0C7EF40
:1009880004F0C8EF04F0248ED8902130256E1B5057
:10099800251222C00FF023C010F024C011F025C08A
:1009A80012F01200000E4B6E020E4A6E000E496ED7
:1009B8000B0E486E000E4D6E1D0E4C6E070E456EEA
:1009C800E60E446E000E476E000E466EF4EC09F01B
:1009D800D3EC09F01BEC0AF0D3EC09F0C0EC09F0F9
:1009E80020EC0AF004EC0AF03C0E5A185B10D8A46C
:1009F80000EF05F002EF05F0B5EF05F05C4A5D2A5F
:100A0800000E5B6E000E5A6E180E5C185D10D8A4AE
:100A180010EF05F012EF05F0B5EF05F0000E5D6E72
:100A2800000E5C6E4A4A4B2A4C4A4D2A48C006F0D2
:100A380049C007F04CC008F04DC009F044C00AF0A6
:100A480045C00BF0A8EC06F006C04CF007C04DF00E
:100A5800070E4A184B10D8A434EF05F036EF05F00E
:100A68003AEF05F0000E4B6E000E4A6E52504E5C87
:100A780053504F58D8A043EF05F045EF05F053EF1A
:100A880005F052504E5C566E53504F58576E5450A6
:100A9800505C586E55505158596E6BEF05F05250D6
:100AA8004E5C426E53504F58436E3C0E4224566E75
:100AB800000E4320576E5450505C426E55505158AA
:100AC800436EFF0E4224586EFF0E4320596E000EEF
:100AD800136E000E146E000E156E3F0E166E5450F7
:100AE800505C426E55505158436E42C001F043C0AD
:100AF80002F0036A046A000ECDEC07F001C00FF0A3
:100B080002C010F003C011F004C012F0C1EC02F0F2
:100B18000FC02CF010C02DF011C02EF012C02FF015
:100B280054C001F055C002F0036A046A000ECDEC0F
:100B380007F001C028F002C029F003C02AF004C061
:100B48002BF061EC00F028C038F029C039F02AC039
:100B58003AF02BC03BF0A7EC08F038C062F039C07F
:100B680063F05C505D10D8B4BCEF05F0BEEF05F043
:100B7800CAEF05F05D5007E1050E5C5CD8B0C7EF21
:100B880005F0C9EF05F0CAEF05F080965CC001F0EA
:100B98005DC002F02AEC09F04A504B10D8A4D7EFF8
:100BA80005F0D9EF05F00DEF06F0030E48184910CF
:100BB800D8A4E1EF05F0E3EF05F00DEF06F05C04D3
:100BC8005D10D8A4EAEF05F0ECEF05F00DEF06F0A4
:100BD8005A505B10D8A4F3EF05F0F5EF05F00DEFD0
:100BE80006F04D5009E1190E4C5CD8A0FEEF05F057
:100BF80000EF06F00DEF06F04D5007E1200E4C5CBB
:100C0800D8B009EF06F00BEF06F00DEF06F05C4ADE
:100C18005D2A4A504B10D8A414EF06F016EF06F0E0
:100C28005BEF06F00A0E48184910D8A41EEF06F02C
:100C380020EF06F05BEF06F0020E5C185D10D8A4FA
:100C480028EF06F02AEF06F05BEF06F05A505B102B
:100C5800D8A431EF06F033EF06F05BEF06F04D5005
:100C680009E1190E4C5CD8A03CEF06F03EEF06F007
:100C78005BEF06F04D5007E1200E4C5CD8B047EF13
:100C880006F049EF06F05BEF06F046504710D8A48F
:100C980050EF06F052EF06F05BEF06F05C06D8A0C6
:100CA8005D06000E476E010E466EF8EF04F04A50DE
:100CB8004B10D8A462EF06F064EF06F0F8EF04F0EA
:100CC8000A0E48184910D8A46CEF06F06EEF06F02B
:100CD800F8EF04F0020E5C185D10D8A476EF06F069
:100CE80078EF06F0F8EF04F05A505B10D8A47FEFC5
:100CF80006F081EF06F0F8EF04F04D5009E1190E07
:100D08004C5CD8A08AEF06F08CEF06F0F8EF04F000
:100D18004D5007E1200E4C5CD8B095EF06F097EFE8
:100D280006F0F8EF04F046044710D8A49EEF06F04A
:100D3800A0EF06F0F8EF04F0000E476E000E466EC6
:100D4800F8EF04F05FEF00F006040710D8B4AFEF37
:100D580006F0B1EF06F0EDEF06F0030E06180710E7
:100D6800D8B4B9EF06F0BBEF06F0EDEF06F0050ECC
:100D780006180710D8B4C3EF06F0C5EF06F0EDEF7C
:100D880006F0070E06180710D8B4CDEF06F0CFEF1F
:100D980006F0EDEF06F0080E06180710D8B4D7EFE6
:100DA80006F0D9EF06F0EDEF06F00A0E0618071068
:100DB800D8B4E1EF06F0E3EF06F0EDEF06F00C0E25
:100DC80006180710D8A4EBEF06F0EDEF06F00DEFCC
:100DD80007F0200E08180910D8A4F5EF06F0F7EF71
:100DE80006F00DEF07F0000E096E010E086E064AB8
:100DF800072A0D0E06180710D8A405EF07F007EF0D
:100E080007F00DEF07F0000E076E010E066E0A4A96
:100E18000B2A040E06180710D8B415EF07F017EFC1
:100E280007F035EF07F0060E06180710D8B41FEFC5
:100E380007F021EF07F035EF07F0090E0618071045
:100E4800D8B429EF07F02BEF07F035EF07F00B0EBA
:100E580006180710D8A433EF07F035EF07F045EF71
:100E680007F01F0E08180910D8A43DEF07F03FEF50
:100E780007F045EF07F0000E096E010E086E064AEE
:100E8800072A030E0A140C6E000E0B140D6E0C507C
:100E98000D10D8A452EF07F054EF07F067EF07F0F2
:100EA8000AC001F00BC002F0000E046E640E036E5F
:100EB8008EEC09F001500210D8A465EF07F067EF37
:100EC80007F07AEF07F00AC001F00BC002F0010E3C
:100ED800046E900E036E8EEC09F001500210D8A437
:100EE80078EF07F07AEF07F080EF07F0000E0F6E4B
:100EF800010E0E6E84EF07F0000E0F6E000E0E6EE0
:100F0800020E06180710D8A48CEF07F08EEF07F032
:100F1800C8EF07F00E040F10D8A495EF07F097EF6D
:100F280007F0C8EF07F01E0E08180910D8A49FEFA5
:100F380007F0A1EF07F0A9EF07F0000E096E010E08
:100F4800086E064A072AC8EF07F0020E06180710AF
:100F5800D8A4B1EF07F0B3EF07F0C8EF07F00E50D1
:100F68000F10D8A4BAEF07F0BCEF07F0C8EF07F0EE
:100F78001D0E08180910D8A4C4EF07F0C6EF07F033
:100F8800C8EF07F0A1EF07F008C006F009C007F0A6
:100F98001200096E0950D8B4D4EF07F0D6EF07F065
:100FA800F8EF07F004BEDDEF07F0DBEF07F0F8EF2E
:100FB80007F001C005F002C006F003C007F004C046
:100FC80008F0051E061E071E081E052A000E06222A
:100FD8000722082205C00BF006C00CF007C00DF070
:100FE80008C00EF000EF08F001C00BF002C00CF0D2
:100FF80003C00DF004C00EF00150021003100410DD
:10100800D8A409EF08F00BEF08F015EF08F0000E70
:10101800016E000E026E000E036E000E046EA6EF47
:1010280008F0960E0A6E1FEF08F00A2AD8900E32C2
:101038000D320C320B32000E0B14056E000E0C1420
:10104800066E000E0D14076EFE0E0E14086E055087
:10105800061007100810D8A434EF08F036EF08F08F
:1010680019EF08F044EF08F00A2A010E0B26000ECB
:101078000C220D220E22D8900E320D320C320B3279
:10108800000E0B14056E000E0C14066E000E0D14E7
:10109800076EFF0E0E14086E055006100710081094
:1010A800D8A459EF08F05BEF08F038EF08F063EFC9
:1010B80008F00A06D8900B360C360D360E360DBEE3
:1010C80068EF08F06AEF08F072EF08F0020E0A60A5
:1010D80070EF08F072EF08F05DEF08F00AB077EFF4
:1010E80008F079EF08F07AEF08F00D9ED8900A32F0
:1010F8000AC005F0066A076A086A05C008F0076AA8
:10110800066A056A05500B1206500C1207500D129C
:1011180008500E120950D8B494EF08F096EF08F072
:101128009EEF08F004BE9DEF08F09BEF08F09EEFDD
:1011380008F00E8E0BC001F00CC002F00DC003F0D9
:101148000EC004F012003A343B34416E4150D8A42A
:10115800B0EF08F0B2EF08F0BCEF08F0000E386E00
:10116800000E396E000E3A6E000E3B6E29EF09F044
:1011780038C03CF039C03DF03AC03EF03BC03FF0CB
:10118800200ECCEF08F0D8903F323E323D323C3250
:10119800E82EC7EF08F03C50406E3A8EFF0E381626
:1011A800FF0E3916FF0E3A16000E3B16960E415EDC
:1011B80041BEE3EF08F0E1EF08F0F9EF08F0415025
:1011C800800A970FD8B0EBEF08F0EDEF08F0EFEFDB
:1011D80008F0B2EF08F0D8903B323A323932383260
:1011E800413EEFEF08F011EF09F01F0E4164FFEFE9
:1011F80008F001EF09F009EF09F0B2EF08F0D89014
:10120800383639363A363B3641064150D8A40FEFC6
:1012180009F011EF09F003EF09F04050D8B417EFC7
:1012280009F019EF09F021EF09F03B1E3A1E391EAB
:10123800386C000E39223A223B2238C038F039C0C7
:1012480039F03AC03AF03BC03BF0120001A02FEF52
:1012580009F031EF09F034EF09F07F8035EF09F03C
:101268007F9001A23AEF09F03CEF09F03FEF09F057
:101278007F8240EF09F07F9201A445EF09F047EF24
:1012880009F04AEF09F079844BEF09F0799401A647
:1012980050EF09F052EF09F055EF09F07E8C56EF48
:1012A80009F07E9C01A85BEF09F05DEF09F060EFA3
:1012B80009F0798861EF09F0799801AA66EF09F0D9
:1012C80068EF09F06BEF09F0798A6CEF09F0799A09
:1012D80001AC71EF09F073EF09F076EF09F07E8049
:1012E80077EF09F07E9001AE7CEF09F07EEF09F010
:1012F80081EF09F07A8082EF09F07A9002A087EFF7
:1013080009F089EF09F08CEF09F07A828DEF09F086
:101318007A92120003500410D8B495EF09F097EFB1
:1013280009F0BBEF09F0010E056E9FEF09F0D890A8
:1013380003360436052A04AEA4EF09F0A6EF09F037
:101348009BEF09F00350015C04500258D8A0AFEF9E
:1013580009F0B1EF09F0B5EF09F00350015E045050
:10136800025AD89004320332052EA6EF09F001C0C4
:1013780001F002C002F0120081860E01D251F80B72
:101388000309D26FD351F80B0509D36FD083D089E5
:10139800D183D18111EC0AF00E01D08F1200879011
:1013A80087928194869C8198819A869082907F907A
:1013B8007F9279947E9C7998799A7E907A9012009F
:1013C8000001636B626B616B606B00EE4EF0100E98
:1013D800EE6AE806FDE15E905E920001D6EF04F049
:1013E800D6501F0B4009D66ED688D650F00B02098E
:1013F800D66ED5880B0ED46E0B0ED36ED58E12001A
:1014080081860E0192870F015899FC0E5817030E1A
:101418005F6F60946088608E1200F30E0E01C6172D
:10142800C691C751E00B1B09C76FC68F12000E018A
:0E143800298BF28EF28C1200808688961200AC
:020000040020DA
:10000000FF0FFF0FFF0FFF0FFF0FFF0FFF0FFF0F80
:020000040030CA
:0C000000AAFFFFFF9FFFFFFFFFFFFFFFB5
:00000001FF
