:0400000063EF00F0BA
:100008005F820E0133AB0BEF00F00DEF00F016EF3F
:1000180000F00B0ED46E0B0ED36E0001E54BE62BF1
:100028000E01339B35A11BEF00F01DEF00F061EFCF
:1000380000F0D0BD22EF00F024EF00F02FEF00F029
:10004800E7C0DFF0E8C0E0F0E5C0DDF0E6C0DEF0D4
:1000580080965FEF00F0D0AD34EF00F036EF00F09F
:100068005FEF00F0E7C0DBF0E8C0DCF0E5C0D9F0F6
:10007800E6C0DAF00001E751E811D8B446EF00F025
:1000880048EF00F053EF00F0E85109E1050EE75D95
:10009800D8A051EF00F053EF00F05FEF00F00E0131
:1000A800D0AD59EF00F05BEF00F05EEF00F0808616
:1000B8005FEF00F080960E0135915F921100B9EF65
:0200C80013F033
:100E000000566F6C74616765203D2025642E253087
:100E100032640025642D25642D25642020202020A7
:100E200025640067657476616C203D20256400258B
:100E3000643A25640000000E0001CE6F040ECD6FF1
:100E4000000ED06F0A0ECF6F000ED26F1B0ED16F47
:100E5000070EC86FE60EC76F000ECC6F010ECB6F8A
:100E6000000EC66F000EC56F000EC46F000EC36F7C
:100E7000000ECA6F000EC96F04EC14F0F3EC13F00F
:100E800037EC14F0F3EC13F0E0EC13F032EC14F068
:100E9000AFEC11F0010E51EC13F07D0E0001606F0C
:100EA000000E616F130E626F0E0E636FD1C064F09F
:100EB000D2C065F0CFC066F0D0C067F0C7C068F0A0
:100EC000C8C069F0CDC06AF0CEC06BF09AEC12F0E9
:100ED0007D0E046E000E056E89EC13F0020E51ECCF
:100EE00013F0AF0E0001606F000E616F2F0E626F86
:100EF0000E0E636FE7C064F0E8C065F0E5C066F011
:100F0000E6C067F09AEC12F0AF0E046E000E056EAC
:100F100089EC13F0E7C001F0E8C002F0F6EC10F045
:100F20003C0E0001E519E611D8A499EF07F09BEFFC
:100F300007F0FEEF08F0E74BE82BE7C001F0E8C050
:100F400002F0F6EC10F0000E0001E66F000EE56F07
:100F5000180EE719E811D8A4B0EF07F0B2EF07F0C8
:100F6000F8EF08F0000EE86F000EE76FDD51D95D75
:100F7000DE51DA59D8A0BFEF07F0C1EF07F0CFEF8D
:100F800007F0DD51D95DE16FDE51DA59E26FDF51D3
:100F9000DB5DE36FE051DC59E46FE7EF07F0DD5113
:100FA000D95D796FDE51DA597A6F3C0E7925E16FA0
:100FB000000E7A21E26FDF51DB5D796FE051DC5981
:100FC0007A6FFF0E7925E36FFF0E7A21E46FE3C09D
:100FD00001F0E4C002F0000E046E3C0E036ECDEC96
:100FE00013F00001E1510126E2510222D8900230B3
:100FF0007A6F0130796FDFC001F0E0C002F0000EBF
:10100000046E3C0E036ECDEC13F000017951012407
:101010007B6F7A5102207C6FDD517B25076EDE519C
:101020007C21086E000E0A6E3C0E096EFAEC11F07F
:1010300007C0D7F008C0D8F0E3C001F0E4C002F068
:10104000000E046E3C0E036ECDEC13F00001E15176
:101050000126E2510222D89002307A6F0130796F76
:10106000DFC001F0E0C002F0000E046E3C0E036E23
:10107000CDEC13F00001795101247B6F7A510220ED
:101080007C6FDD517B25076EDE517C21086E000EE2
:101090000A6E3C0E096E68EC12F007C0D5F008C06D
:1010A000D6F00C0E0001CB25796F000ECC217A6FA3
:1010B0007951D75D7A51D859D8A061EF08F063EF24
:1010C00008F08FEF08F0D551D611D8B46AEF08F0C8
:1010D0006CEF08F08FEF08F0C951CA11D8A473EF74
:1010E00008F075EF08F08FEF08F0000ECA6F010EE0
:1010F000C96FD751CB5D796FD851CC597A6F230E18
:101100007925E76F000E7A21E86FD5513C08E56F2D
:10111000D651D8A0E82A0008E66FCCEF08F00C0EF4
:10112000CB25796F000ECC217A6F7951D75D7A513A
:10113000D859D8B09EEF08F0A0EF08F0B6EF08F04D
:10114000D751CB5D796FD851CC597A6F0B0E792579
:10115000E76F000E7A21E86FD5513C08E56FD65154
:10116000D8A0E82A0008E66FCCEF08F0E751E811B4
:10117000D8A4BDEF08F0BFEF08F0CCEF08F0C90528
:10118000CA11D8A4C6EF08F0C8EF08F0CCEF08F0F9
:10119000000ECA6F000EC96FC905CA11D8B4D3EFCB
:1011A00008F0D5EF08F0F6EF08F0CD4BCE2BD14B81
:1011B000D22BCF0E0C6E000E0D6ED10E0E6E000EE9
:1011C0000F6EC70E106E000E116E1AEC0AF0070EAD
:1011D0000001CD19CE11D8A4F0EF08F0F2EF08F01D
:1011E000F6EF08F0000ECE6F000ECD6F14EC14F089
:1011F000E7C001F0E8C002F0F6EC10F00001E751A2
:10120000E811D8B406EF09F008EF09F018EF09F07B
:10121000E85107E1050EE75DD8B011EF09F013EFD3
:1012200009F018EF09F08096000EC46F010EC36F2D
:10123000050EE719E811D8A420EF09F022EF09F014
:1012400039EF09F0C305C411D8A429EF09F02BEF39
:1012500009F039EF09F00E01D0AD31EF09F033EFAD
:1012600009F039EF09F08086000E0001C46F000E0E
:10127000C36F0001CD51CE11D8A441EF09F043EF67
:1012800009F07BEF09F0030ECF19D011D8A44BEF72
:1012900009F04DEF09F07BEF09F0E705E811D8A45C
:1012A00054EF09F056EF09F07BEF09F0E551E61134
:1012B000D8A45DEF09F05FEF09F07BEF09F0D251A0
:1012C00009E1190ED15DD8A068EF09F06AEF09F0C5
:1012D0007BEF09F0D25107E1200ED15DD8B073EF5A
:1012E00009F075EF09F07BEF09F0E74BE82B000EF2
:1012F000CC6F010ECB6FCD51CE11D8A482EF09F087
:1013000084EF09F0CDEF09F00A0ECF19D011D8A45F
:101310008CEF09F08EEF09F0CDEF09F0020EE7191E
:10132000E811D8A496EF09F098EF09F0CDEF09F095
:10133000E551E611D8A49FEF09F0A1EF09F0CDEF38
:1013400009F0D25109E1190ED15DD8A0AAEF09F038
:10135000ACEF09F0CDEF09F0D25107E1200ED15DDD
:10136000D8B0B5EF09F0B7EF09F0CDEF09F0C551EE
:10137000C611D8A4BEEF09F0C0EF09F0CDEF09F017
:10138000E707D8A0E807000EC66F010EC56F000E74
:10139000CC6F000ECB6F4AEF07F0CD51CE11D8A421
:1013A000D4EF09F0D6EF09F04AEF07F00A0ECF1993
:1013B000D011D8A4DEEF09F0E0EF09F04AEF07F012
:1013C000040EE719E811D8A4E8EF09F0EAEF09F0F4
:1013D0004AEF07F0E551E611D8A4F1EF09F0F3EF79
:1013E00009F04AEF07F0D25109E1190ED15DD8A0FA
:1013F000FCEF09F0FEEF09F04AEF07F0D25107E1E8
:10140000200ED15DD8B007EF0AF009EF0AF04AEFDD
:1014100007F0C505C611D8A410EF0AF012EF0AF0C4
:101420004AEF07F0000EC66F000EC56F4AEF07F0D7
:1014300063EF00F00CC0D9FF0DC0DAFFDE04DE1050
:10144000D8B425EF0AF027EF0AF07BEF0AF00CC0C2
:10145000D9FF0DC0DAFF030EDE18DE10D8B433EF6B
:101460000AF035EF0AF07BEF0AF00CC0D9FF0DC08F
:10147000DAFF050EDE18DE10D8B441EF0AF043EFB4
:101480000AF07BEF0AF00CC0D9FF0DC0DAFF070E9F
:10149000DE18DE10D8B44FEF0AF051EF0AF07BEF00
:1014A0000AF00CC0D9FF0DC0DAFF080EDE18DE10FE
:1014B000D8B45DEF0AF05FEF0AF07BEF0AF00CC0E2
:1014C000D9FF0DC0DAFF0A0EDE18DE10D8B46BEFBC
:1014D0000AF06DEF0AF07BEF0AF00CC0D9FF0DC0E7
:1014E000DAFF0C0EDE18DE10D8A479EF0AF07BEFDD
:1014F0000AF0B5EF0AF00EC0D9FF0FC0DAFF200ED8
:10150000DE18DE10D8A487EF0AF089EF0AF0B5EFF5
:101510000AF00EC0D9FF0FC0DAFF010EDE6E000E1A
:10152000DD6E0CC0D9FF0DC0DAFFDE2A000EDD2211
:101530000CC0D9FF0DC0DAFF0D0EDE18DE10D8A4E6
:10154000A4EF0AF0A6EF0AF0B5EF0AF00CC0D9FF3D
:101550000DC0DAFF010EDE6E000EDD6E10C0D9FF89
:1015600011C0DAFFDE2A000EDD220CC0D9FF0DC04B
:10157000DAFF040EDE18DE10D8B4C1EF0AF0C3EFB4
:101580000AF0EDEF0AF00CC0D9FF0DC0DAFF060E2D
:10159000DE18DE10D8B4CFEF0AF0D1EF0AF0EDEF8D
:1015A0000AF00CC0D9FF0DC0DAFF090EDE18DE10FC
:1015B000D8B4DDEF0AF0DFEF0AF0EDEF0AF00CC06F
:1015C000D9FF0DC0DAFF0B0EDE18DE10D8A4EBEF4A
:1015D0000AF0EDEF0AF00AEF0BF00EC0D9FF0FC0D2
:1015E000DAFF1F0EDE18DE10D8A4F9EF0AF0FBEFC9
:1015F0000AF00AEF0BF00EC0D9FF0FC0DAFF010EA0
:10160000DE6E000EDD6E0CC0D9FF0DC0DAFFDE2AE3
:10161000000EDD2210C0D9FF11C0DAFFDECF12F0BC
:10162000DDCF13F0030E1216000E13161250131016
:10163000D8A41DEF0BF01FEF0BF036EF0BF010C02E
:10164000D9FF11C0DAFFDECF07F0DDCF08F0000EC2
:101650000A6E640E096E68EC12F007500810D8A4E8
:1016600034EF0BF036EF0BF04DEF0BF010C0D9FF5D
:1016700011C0DAFFDECF07F0DDCF08F0010E0A6EF1
:10168000900E096E68EC12F007500810D8A44BEFCA
:101690000BF04DEF0BF053EF0BF0000E156E010E3B
:1016A000146E57EF0BF0000E156E000E146E0CC08A
:1016B000D9FF0DC0DAFF020EDE18DE10D8A463EFEA
:1016C0000BF065EF0BF08DEF0BF014041510D8A4A0
:1016D0006CEF0BF06EEF0BF08DEF0BF00EC0D9FF3F
:1016E0000FC0DAFF1E0EDE18DE10D8A47AEF0BF062
:1016F0007CEF0BF0B4EF0BF00EC0D9FF0FC0DAFF98
:10170000010EDE6E000EDD6E0CC0D9FF0DC0DAFFDB
:10171000DE2A000EDD22B4EF0BF00CC0D9FF0DC0A5
:10172000DAFF020EDE18DE10D8A499EF0BF09BEF63
:101730000BF0B4EF0BF014501510D8A4A2EF0BF07F
:10174000A4EF0BF0B4EF0BF00EC0D9FF0FC0DAFF1F
:101750001D0EDE18DE10D8A4B0EF0BF0B2EF0BF0C8
:10176000B4EF0BF07CEF0BF0120041C0D9FF42C088
:10177000DAFFDECFF6FFDDCFF7FF000EF86E0800D0
:10178000F550250AD8A4C7EF0BF0C9EF0BF0FBEF1B
:101790000CF041C0D9FF42C0DAFFDE2A000EDD2284
:1017A000000E0001D46F000ED36FD3C05EF05C68F2
:1017B0005D68000E516E000E506E0BEF0CF05E82F5
:1017C00041C0D9FF42C0DAFFDE2A000EDD220BEF56
:1017D0000CF0000E516E010E506E0BEF0CF041C07C
:1017E000D9FF42C0DAFFDECFF6FFDDCFF7FF000EF4
:1017F000F86E0800F550456E466A4650000AD8B4A7
:1018000004EF0CF0E9EF0BF04550300AD8B4DFEFED
:101810000BF0E9EF0BF050505110D8B412EF0CF070
:1018200014EF0CF0EFEF0BF041C0D9FF42C0DAFF2C
:10183000DECFF6FFDDCFF7FF000EF86E0800F550A3
:101840002A0AD8A426EF0CF028EF0CF052EF0CF087
:1018500041C0D9FF42C0DAFFDE2A000EDD2243C0BC
:10186000D9FF44C0DAFFDFCF45F0020EDE26DFCF1E
:1018700046F0000EDD2245C0D9FF46C0DAFFDECFBC
:10188000D3F0DDCFD4F00001D4BF4BEF0CF049EF23
:101890000CF087EF0CF05E80D36DD41FD8B0D42B42
:1018A00087EF0CF041C0D9FF42C0DAFFDECF07F06E
:1018B000DDCF08F0E2EC0FF007C0D3F008C0D4F0A1
:1018C00069EF0CF041C0D9FF42C0DAFFDE2A000EFA
:1018D000DD2241C0D9FF42C0DAFFDECFF6FFDDCF07
:1018E000F7FF000EF86E0800F5CF45F0D00E452446
:1018F000466E476AFF0E4722475009E10A0E465CD2
:10190000D8A085EF0CF087EF0CF062EF0CF041C02F
:10191000D9FF42C0DAFFDECF52F0DDCF53F052C024
:10192000F6FF53C0F7FF000EF86E0800F550640A8A
:10193000D8B49DEF0CF09FEF0CF0AFEF0CF052C05D
:10194000F6FF53C0F7FF000EF86E0800F550690A65
:10195000D8A4ADEF0CF0AFEF0CF0F2EF0CF043C0F9
:10196000D9FF44C0DAFFDFCF45F0020EDE26DFCF1D
:1019700046F0000EDD2245C0D9FF46C0DAFFDECFBB
:1019800048F0DDCF49F0000E49BEFF0E4A6E4B6EA7
:101990004C6E4D6E4E6E4F6E010E5224456E000E13
:1019A0005320466E41C0D9FF42C0DAFF45C0DEFF7A
:1019B00046C0DDFF3FC01CF040C01DF048C01EF017
:1019C00049C01FF04AC020F04BC021F04CC022F0AB
:1019D0004DC023F04EC024F04FC025F012EC0DF0A6
:1019E00011EF0DF041C0D9FF42C0DAFFDE2A000E30
:1019F000DD2211EF0DF041C0D9FF42C0DAFFDECF8A
:101A0000F6FFDDCFF7FF000EF86E0800F550016E0F
:101A1000026A3FC003F040C004F091EC10F0F2EF16
:101A20000CF012001EC034F01FC035F020C036F09C
:101A300021C037F022C038F023C039F024C03AF07A
:101A400025C03BF03BBE27EF0DF02AEF0DF0010E55
:101A50002BEF0DF0000E3E6E3E50D8B432EF0DF07D
:101A600034EF0DF044EF0DF03B1E3A1E391E381EC8
:101A7000371E361E351E346C000E352236223722B4
:101A8000382239223A223B225DBE49EF0DF04BEF5E
:101A90000DF04CEF0DF05E925DBE59EF0DF05D5014
:101AA00006E15C04D8B057EF0DF059EF0DF05FEF91
:101AB0000DF0000E316E010E306E63EF0DF05CC064
:101AC00030F05DC031F0D3C032F0D4C033F03E50BE
:101AD000D8B46DEF0DF06FEF0DF086EF0DF032061C
:101AE000D8A033063E50D8A478EF0DF07AEF0DF071
:101AF00080EF0DF0000E2F6E2B0E2E6E84EF0DF08A
:101B0000000E2F6E2D0E2E6E2EC03EF0000E3D6E7E
:101B10001F0E3C6E000E01011F6F0BEF0EF03C0616
:101B2000D8A03D06000E3C24D96E010E3D20DA6E91
:101B300034C001F035C002F036C003F037C004F005
:101B400038C005F039C006F03AC007F03BC008F0D5
:101B50000A0E096E000E0A6E000E0B6E000E0C6E61
:101B6000000E0D6E000E0E6E000E0F6E000E106E4B
:101B700030EC0FF001C026F002C027F003C028F0BF
:101B800004C029F005C02AF006C02BF007C02CF0D5
:101B900008C02DF026C013F027C014F031EC13F06C
:101BA0001350300FDF6E3006D8A031063206D8A0B1
:101BB000330634C001F035C002F036C003F037C040
:101BC00004F038C005F039C006F03AC007F03BC059
:101BD00008F00A0E096E000E0A6E000E0B6E000E63
:101BE0000C6E000E0D6E000E0E6E000E0F6E000ECF
:101BF000106E6CEC0EF001C034F002C035F003C082
:101C000036F004C037F005C038F006C039F007C020
:101C10003AF008C03BF03DBE16EF0EF03D5008E133
:101C20003C04D8A016EF0EF018EF0EF048EF0EF0BF
:101C30003450351036103710381039103A103B1028
:101C4000D8A425EF0EF027EF0EF08FEF0DF031BE88
:101C500034EF0EF0315006E13004D8B032EF0EF020
:101C600034EF0EF08FEF0DF033BE3FEF0EF0335038
:101C700008E13204D8A03FEF0EF041EF0EF048EF3C
:101C80000EF05EB246EF0EF048EF0EF08FEF0DF063
:101C90003E50D8B44EEF0EF050EF0EF05BEF0EF06A
:101CA0003C06D8A03D06000E3C24D96E010E3D2016
:101CB000DA6E3EC0DFFF1CC011F01DC012F0000E36
:101CC0003C24136E010E3D20146E32C015F033C05B
:101CD00016F05AEC11F01200000E126E10BE75EFE5
:101CE0000EF073EF0EF087EF0EF0101E0F1E0E1E9B
:101CF0000D1E0C1E0B1E0A1E096C000E0A220B2262
:101D00000C220D220E220F221022010E126E08BE8E
:101D10008EEF0EF08CEF0EF0A0EF0EF0081E071EF7
:101D2000061E051E041E031E021E016C000E02226A
:101D3000032204220522062207220822010E121A7B
:101D400020EE13F0070EDE6AE806FDE209500A10E5
:101D50000B100C100D100E100F101010D8B4B3EFA4
:101D60000EF0B5EF0EF007EF0FF0010E116EC3EF9E
:101D70000EF0D89009360A360B360C360D360E3674
:101D80000F361036112A10AEC8EF0EF0CAEF0EF063
:101D9000B9EF0EF0D89013361436153616361736BE
:101DA000183619361A360950015C0A5002580B5081
:101DB00003580C5004580D5005580E5006580F503B
:101DC000075810500858D8A0E8EF0EF0EAEF0EF0D0
:101DD000FBEF0EF00950015E0A50025A0B50035AF5
:101DE0000C50045A0D50055A0E50065A0F50075AFF
:101DF0001050085A1380D89010320F320E320D3224
:101E00000C320B320A320932112ECAEF0EF0125088
:101E1000D8B40DEF0FF00FEF0FF01FEF0FF01A1EF9
:101E2000191E181E171E161E151E141E136C000EEA
:101E30001422152216221722182219221A2213C040
:101E400001F014C002F015C003F016C004F017C072
:101E500005F018C006F019C007F01AC008F012000B
:101E6000000E126E08BE39EF0FF037EF0FF04BEF98
:101E70000FF0081E071E061E051E041E031E021E6E
:101E8000016C000E022203220422052206220722F0
:101E90000822010E126E10BE52EF0FF050EF0FF03D
:101EA00062EF0FF0101E0F1E0E1E0D1E0C1E0B1EDD
:101EB0000A1E096C000E0A220B220C220D220E2291
:101EC0000F22102209500A100B100C100D100E10CA
:101ED0000F101010D8B46FEF0FF071EF0FF0B9EFD3
:101EE0000FF0010E116E7FEF0FF0D89009360A3611
:101EF0000B360C360D360E360F361036112A10AE54
:101F000084EF0FF086EF0FF075EF0FF00950015CD2
:101F10000A5002580B5003580C5004580D500558E5
:101F20000E5006580F50075810500858D8A09BEF75
:101F30000FF09DEF0FF0ADEF0FF00950015E0A506A
:101F4000025A0B50035A0C50045A0D50055A0E50A9
:101F5000065A0F50075A1050085AD89010320F32B4
:101F60000E320D320C320B320A320932112E86EF4C
:101F70000FF01250D8B4BFEF0FF0C1EF0FF0D1EF58
:101F80000FF0081E071E061E051E041E031E021E5D
:101F9000016C000E022203220422052206220722DF
:101FA000082201C001F002C002F003C003F004C027
:101FB00004F005C005F006C006F007C007F008C031
:101FC00008F01200000E0F6E000E0E6E000E0D6E69
:101FD000000E0C6EEEEF0FF0074A082A07C0F6FF5E
:101FE00008C0F7FF000EF86E0800F550200AD8B4BC
:101FF000FCEF0FF0FEEF0FF0ECEF0FF007C0F6FF75
:1020000008C0F7FF000EF86E0800F5CF09F0F70ED4
:1020100009240A6E0B6AFF0E0B220B5009E1050E14
:102020000A5CD8A016EF10F018EF10F0ECEF0FF0EC
:1020300022EF10F0000E0D6E010E0C6E074A082AFA
:102040005BEF10F007C0F6FF08C0F7FF000EF86E58
:102050000800F550096E0A6A0A50000AD8B433EF36
:1020600010F05BEF10F009502B0AD8B41EEF10F0FF
:10207000060AD8B41AEF10F05BEF10F00EC001F0B2
:102080000FC002F0000E046E0A0E036ECDEC13F0CA
:1020900007C0F6FF08C0F7FF000EF86E0800F55005
:1020A000015E000E025A300E01240E6E000E022058
:1020B0000F6E1EEF10F007C0F6FF08C0F7FF000E0E
:1020C000F86E0800F5CF09F0D00E09240A6E0B6AED
:1020D000FF0E0B220B5009E10A0E0A5CD8A073EF29
:1020E00010F075EF10F03EEF10F00C500D10D8A46A
:1020F0007CEF10F07EEF10F08CEF10F00EC009F0C6
:102100000FC00AF0091E0A1E094A0A2A09C007F070
:102110000AC008F090EF10F00EC007F00FC008F0F2
:10212000120003500410D8B498EF10F09AEF10F09A
:10213000A3EF10F003500410D8A4A1EF10F0A3EF08
:1021400010F0A8EF10F001503CEC14F0F5EF10F097
:1021500020EE09F00350D9260450DA22DE50DE10BA
:10216000D8B4B5EF10F0B7EF10F0D2EF10F020EECA
:1021700009F00350D9260450DA2210EE03F0035080
:10218000E1260450E222DE50E65CE650800A096E49
:10219000DE50800A0958D8B0D0EF10F0D2EF10F01E
:1021A000F5EF10F020EE03F00350D9260450DA22A8
:1021B000DECF05F0DDCF06F003C0D9FF04C0DAFFA3
:1021C000DECF07F0DDCF08F005500724D96E0650AA
:1021D0000820DA6E01C0DFFF20EE03F00350D9269D
:1021E0000450DA22DE2A000EDD22120001A0FBEFED
:1021F00010F0FDEF10F000EF11F07F8001EF11F013
:102200007F9001A206EF11F008EF11F00BEF11F033
:102210007F820CEF11F07F9201A411EF11F013EF08
:1022200011F016EF11F0798417EF11F0799401A6EF
:102230001CEF11F01EEF11F021EF11F07E8C22EF58
:1022400011F07E9C01A827EF11F029EF11F02CEF7F
:1022500011F079882DEF11F0799801AA32EF11F081
:1022600034EF11F037EF11F0798A38EF11F0799AE5
:1022700001AC3DEF11F03FEF11F042EF11F07E8025
:1022800043EF11F07E9001AE48EF11F04AEF11F0EC
:102290004DEF11F07A804EEF11F07A9002A053EFDB
:1022A00011F055EF11F058EF11F07A8259EF11F05B
:1022B0007A9212005EA05FEF11F061EF11F06BEF08
:1022C00011F013C00AF014C00BF011C00CF012C0D2
:1022D0000DF00FEC13F016BE70EF11F072EF11F06D
:1022E00078EF11F015C01AF016C01BF07CEF11F05A
:1022F000000E1B6E000E1A6E000E196E000E186E88
:102300008EEF11F0000E026E200E016E11C003F070
:1023100012C004F091EC10F0184A192A1A50185CF7
:102320001950800A176E1B50800A1758D8A09BEFCF
:1023300011F09DEF11F082EF11F05EB0A2EF11F0FD
:10234000A4EF11F0AEEF11F013C00AF014C00BF0BF
:1023500011C00CF012C00DF00FEC13F01200839CB2
:10236000839482968294859685927B9C7B947A96C0
:102370007A947D967D92050E056E0F0E046EF10E19
:10238000E82EFED7042EFCD7052EFAD700F0030E58
:1023900034EC12F0F00EE82EFED7020E34EC12F000
:1023A000F00EE82EFED7000E026E280E6EEC13F033
:1023B000F00EE82EFED7000E026E080E6EEC13F043
:1023C000F00EE82EFED7000E026E010E6EEC13F03A
:1023D0002A0E046E8E0EE82EFED7042EFCD7000EB9
:1023E000026E060E6EEC13F0000E026E0C0E6EEC1A
:1023F00013F01200000E0C6E000E0B6E09500A1046
:10240000D8B405EF12F007EF12F02FEF12F0010E23
:102410000D6E0FEF12F0D89009360A360D2A0AAE6B
:1024200014EF12F016EF12F00BEF12F0D8900B36FB
:102430000C360950075C0A500858D8A022EF12F059
:1024400024EF12F029EF12F00950075E0A50085AE3
:102450000B80D8900A3209320D2E16EF12F00BC005
:1024600007F00CC008F01200016E01A03AEF12F064
:102470003CEF12F03FEF12F07A8640EF12F07A96BE
:1024800001A245EF12F047EF12F04AEF12F07A8402
:102490004BEF12F07A9401A450EF12F052EF12F0C9
:1024A00055EF12F07D8656EF12F07D9601A65BEF98
:1024B00012F05DEF12F060EF12F07D8261EF12F02A
:1024C0007D922BEC14F01A0EE82EFED700D01200ED
:1024D00009500A10D8B46FEF12F071EF12F095EFB7
:1024E00012F0010E0B6E79EF12F0D89009360A3611
:1024F0000B2A0AAE7EEF12F080EF12F075EF12F0A9
:102500000950075C0A500858D8A089EF12F08BEFE9
:1025100012F08FEF12F00950075E0A50085AD89057
:102520000A3209320B2E80EF12F007C007F008C004
:1025300008F01200640E00016C6F000E6D6F60C039
:102540006EF061C06FF0000E726F000E716F000EC2
:10255000786F000E776F6E0E546E000E556E62C06F
:1025600056F063C057F06C0E586E000E596EC3ECF7
:1025700012F0000171516025D96E72516121DA6E3D
:10258000000EDF6E120056C05AF057C05BF0D7EF56
:1025900012F054C03FF055C040F05A0E416E000E8C
:1025A000426E58C043F059C044F0B5EC0BF05AC02D
:1025B000F6FF5BC0F7FF000EF86E0800F55000094B
:1025C000D8A4E5EF12F0E7EF12F0C9EF12F0000E19
:1025D000556E000E546E1200010E056E200E01188D
:1025E0000210D8B4F6EF12F0F8EF12F00BEF13F080
:1025F000F70E0124036EFF0E0220046E045009E161
:10260000050E035CD8A007EF13F009EF13F00BEFF2
:1026100013F0000E056E05C001F0026A1200000EF4
:10262000106E000E0F6E20EF13F00EC001F0026A64
:102630000CC003F00DC004F091EC10F00F4A102A0A
:102640000F500A24D96E10500B20DA6EDF500E6E38
:102650000E50D8A42EEF13F030EF13F015EF13F057
:10266000120014BE3EEF13F0145006E11304D8B06C
:102670003CEF13F03EEF13F04CEF13F013C015F0E6
:1026800014C016F0151E161E154A162A15C013F092
:1026900016C014F050EF13F013C013F014C014F070
:1026A0001200046E0404D8A458EF13F05AEF13F08C
:1026B0005FEF13F0000E026E800E6EEC13F0020E50
:1026C0000418D8A466EF13F068EF13F06DEF13F061
:1026D000000E026EC00E6EEC13F01200036E02507C
:1026E000D8B475EF13F077EF13F07AEF13F07B8C1B
:1026F0007BEF13F07B9C03380F0B0F0B34EC12F0C5
:1027000003500F0B34EC12F0A00E00D0E82EFDD7D2
:10271000120096EF13F0010E026E04C0D9FF05C03F
:10272000DAFFDF506EEC13F0044A052A04C0D9FF2B
:1027300005C0DAFFDF50D8A4A0EF13F0A2EF13F02A
:102740008BEF13F01200D00E0124036EFF0E022057
:10275000046E04500AE10A0E035CD8A0B2EF13F035
:10276000B5EF13F0010EB6EF13F0000E016E026A22
:10277000120001EE00F0200EEE6AE806FDE100EE28
:10278000D3F0160EEE6AE806FDE15E6A5D6A5C6AE9
:102790005F905F9200011BEF07F001500302F3CF3F
:1027A00005F0F4CF06F001500402F3500626025063
:1027B0000302F350062605C001F006C002F0120025
:1027C00081860E01D251F80B0309D26FD351F80B59
:1027D0000509D36FD083D089D183D18121EC14F046
:1027E0000E01D08F1200879087928194869C8198E9
:1027F000819A869082907F907F9279947E9C79983E
:10280000799A7E907A901200D6501F0B4009D66EAE
:10281000D688D650F00B0209D66ED5880B0ED46E32
:102820000B0ED36ED58E1200000E026E010E6EECF2
:1028300013F02A0E046E8E0EE82EFED7042EFCD75F
:102840001200F30E0E01C617C691C751E00B1B090B
:10285000C76FC68F12007B840A0EE82EFED700D009
:102860007B941200808688967C9E849E12000E01C6
:0A287000298BF28EF28C1200120088
:020000040020DA
:10000000FF0FFF0FFF0FFF0FFF0FFF0FFF0FFF0F80
:020000040030CA
:0C000000AAFFFFFF9FFFFFFFFFFFFFFFB5
:00000001FF
