:0400000063EF00F0BA
:100008005F820E0133AB0BEF00F00DEF00F016EF3F
:1000180000F00B0ED46E0B0ED36E0001E14BE22BF9
:100028000E01339B35A11BEF00F01DEF00F061EFCF
:1000380000F0D0BD22EF00F024EF00F02FEF00F029
:10004800E3C0DBF0E4C0DCF0E1C0D9F0E2C0DAF0F4
:1000580080965FEF00F0D0AD34EF00F036EF00F09F
:100068005FEF00F0E3C0D7F0E4C0D8F0E1C0D5F00E
:10007800E2C0D6F00001E351E411D8B446EF00F035
:1000880048EF00F053EF00F0E45109E1050EE35D9D
:10009800D8A051EF00F053EF00F05FEF00F00E0131
:1000A800D0AD59EF00F05BEF00F05EEF00F0808616
:1000B8005FEF00F080960E0135915F92110055EFC9
:0200C80012F034
:100E000000566F6C74616765203D2025642E253087
:100E100032640025642D25642D25642020202020A7
:100E200025640067657476616C203D20256400258B
:100E3000643A25640000000E0001CA6F060EC96FF7
:100E4000000ECC6F030ECB6F000ECE6F1A0ECD6F5F
:100E5000070EC86FE60EC76F000EC66F000EC56F97
:100E6000000EC46F000EC36F7DEC13F06CEC13F03A
:100E7000ABEC13F06CEC13F059EC13F0B0EC13F096
:100E800018EC11F0010EDEEC12F07D0E0001606F27
:100E9000000E616F130E626F0E0E636FCDC064F0B3
:100EA000CEC065F0CBC066F0CCC067F0C7C068F0BC
:100EB000C8C069F0C9C06AF0CAC06BF003EC12F098
:100EC0007D0E046E000E056E16EC13F0020EDEECC5
:100ED00012F0AF0E0001606F000E616F2F0E626F97
:100EE0000E0E636FE3C064F0E4C065F0E1C066F02D
:100EF000E2C067F003EC12F0AF0E046E000E056E58
:100F000016EC13F0E3C001F0E4C002F05FEC10F067
:100F10003C0E0001E119E211D8A491EF07F093EF24
:100F200007F068EF08F0E34BE42B000EE26F000ED1
:100F3000E16F180EE319E411D8A4A1EF07F0A3EFB5
:100F400007F062EF08F0000EE46F000EE36FC94B8C
:100F5000CA2BCD4BCE2BCB0E0C6E000E0D6ECD0ED4
:100F60000E6E000E0F6EC70E106E000E116E83EC2B
:100F700009F0070E0001C919CA11D8A4C2EF07F081
:100F8000C4EF07F0C8EF07F0000ECA6F000EC96F7C
:100F90008DEC13F00001D951D55DDA51D659D8A0A6
:100FA000D4EF07F0D6EF07F0E4EF07F0D951D55DA5
:100FB000DD6FDA51D659DE6FDB51D75DDF6FDC5163
:100FC000D859E06FFCEF07F0D951D55D796FDA5150
:100FD000D6597A6F3C0E7925DD6F000E7A21DE6FCF
:100FE000DB51D75D796FDC51D8597A6FFF0E7925C7
:100FF000DF6FFF0E7A21E06FDBC001F0DCC002F092
:10100000000E046E3C0E036E46EC13F001C079F046
:1010100002C07AF0DFC001F0E0C002F0000E046E02
:101020003C0E036E46EC13F00150000179257B6FF6
:1010300002507A217C6FD9517B27DA517C23DD5114
:101040007B25076EDE517C21086E000E0A6E3C0E79
:10105000096E63EC11F007C0D3F008C0D4F0DBC018
:1010600001F0DCC002F0000E046E3C0E036E46EC94
:1010700013F001C079F002C07AF0DFC001F0E0C0E7
:1010800002F0000E046E3C0E036E46EC13F00150AD
:10109000000179257B6F02507A217C6FD9517B2723
:1010A000DA517C23DD517B25076EDE517C21086EF1
:1010B000000E0A6E3C0E096ED1EC11F007C0D1F0A3
:1010C00008C0D2F0E3C001F0E4C002F05FEC10F021
:1010D0000001E351E411D8B470EF08F072EF08F0AA
:1010E00082EF08F0E45107E1050EE35DD8B07BEF35
:1010F00008F07DEF08F082EF08F08096000EC46FD4
:10110000010EC36F050EE319E411D8A48AEF08F0AD
:101110008CEF08F0A3EF08F0C305C411D8A493EF37
:1011200008F095EF08F0A3EF08F00E01D0AD9BEFAB
:1011300008F09DEF08F0A3EF08F08086000E000194
:10114000C46F000EC36F0001C951CA11D8A4ABEF20
:1011500008F0ADEF08F0E1EF08F0030ECB19CC1169
:10116000D8A4B5EF08F0B7EF08F0E1EF08F0E30519
:10117000E411D8A4BEEF08F0C0EF08F0E1EF08F0EA
:10118000E151E211D8A4C7EF08F0C9EF08F0E1EF90
:1011900008F0CE5109E1190ECD5DD8A0D2EF08F0CC
:1011A000D4EF08F0E1EF08F0CE5107E1200ECD5D5D
:1011B000D8B0DDEF08F0DFEF08F0E1EF08F0E34B27
:1011C000E42BC951CA11D8A4E8EF08F0EAEF08F0FF
:1011D00036EF09F00A0ECB19CC11D8A4F2EF08F0C3
:1011E000F4EF08F036EF09F0020EE319E411D8A489
:1011F000FCEF08F0FEEF08F036EF09F0E151E211E4
:10120000D8A405EF09F007EF09F036EF09F0CE5149
:1012100009E1190ECD5DD8A010EF09F012EF09F029
:1012200036EF09F0CE5107E1200ECD5DD8B01BEFAF
:1012300009F01DEF09F036EF09F0C551C611D8A429
:1012400024EF09F026EF09F036EF09F0E307D8A004
:10125000E407E3C001F0E4C002F05FEC10F0000E20
:101260000001C66F010EC56F42EF07F0C905CA1134
:10127000D8A43DEF09F03FEF09F042EF07F00A0E66
:10128000CB19CC11D8A447EF09F049EF09F042EF90
:1012900007F0020EE319E411D8A451EF09F053EF5F
:1012A00009F042EF07F0E151E211D8A45AEF09F03A
:1012B0005CEF09F042EF07F0CE5109E1190ECD5D68
:1012C000D8A065EF09F067EF09F042EF07F0CE51C3
:1012D00007E1200ECD5DD8B070EF09F072EF09F094
:1012E00042EF07F0C505C611D8A479EF09F07BEFEE
:1012F00009F042EF07F0000EC66F000EC56F42EF17
:1013000007F063EF00F00CC0D9FF0DC0DAFFDE0478
:10131000DE10D8B48EEF09F090EF09F0E4EF09F099
:101320000CC0D9FF0DC0DAFF030EDE18DE10D8B4F2
:101330009CEF09F09EEF09F0E4EF09F00CC0D9FF33
:101340000DC0DAFF050EDE18DE10D8B4AAEF09F0E2
:10135000ACEF09F0E4EF09F00CC0D9FF0DC0DAFFE3
:10136000070EDE18DE10D8B4B8EF09F0BAEF09F0B6
:10137000E4EF09F00CC0D9FF0DC0DAFF080EDE184B
:10138000DE10D8B4C6EF09F0C8EF09F0E4EF09F0B9
:101390000CC0D9FF0DC0DAFF0A0EDE18DE10D8B47B
:1013A000D4EF09F0D6EF09F0E4EF09F00CC0D9FF53
:1013B0000DC0DAFF0C0EDE18DE10D8A4E2EF09F043
:1013C000E4EF09F01EEF0AF00EC0D9FF0FC0DAFFFC
:1013D000200EDE18DE10D8A4F0EF09F0F2EF09F0CD
:1013E0001EEF0AF00EC0D9FF0FC0DAFF010EDE6E4D
:1013F000000EDD6E0CC0D9FF0DC0DAFFDE2A000E34
:10140000DD220CC0D9FF0DC0DAFF0D0EDE18DE1094
:10141000D8A40DEF0AF00FEF0AF01EEF0AF00CC08F
:10142000D9FF0DC0DAFF010EDE6E000EDD6E10C0BA
:10143000D9FF11C0DAFFDE2A000EDD220CC0D9FF71
:101440000DC0DAFF040EDE18DE10D8B42AEF0AF061
:101450002CEF0AF056EF0AF00CC0D9FF0DC0DAFFEE
:10146000060EDE18DE10D8B438EF0AF03AEF0AF0B4
:1014700056EF0AF00CC0D9FF0DC0DAFF090EDE18D6
:10148000DE10D8B446EF0AF048EF0AF056EF0AF043
:101490000CC0D9FF0DC0DAFF0B0EDE18DE10D8A489
:1014A00054EF0AF056EF0AF073EF0AF00EC0D9FFBE
:1014B0000FC0DAFF1F0EDE18DE10D8A462EF0AF0AC
:1014C00064EF0AF073EF0AF00EC0D9FF0FC0DAFF25
:1014D000010EDE6E000EDD6E0CC0D9FF0DC0DAFF0E
:1014E000DE2A000EDD2210C0D9FF11C0DAFFDECFE8
:1014F00012F0DDCF13F0030E1216000E1316125069
:101500001310D8A486EF0AF088EF0AF09FEF0AF0D4
:1015100010C0D9FF11C0DAFFDECF07F0DDCF08F031
:10152000000E0A6E640E096ED1EC11F0075008101F
:10153000D8A49DEF0AF09FEF0AF0B6EF0AF010C0B2
:10154000D9FF11C0DAFFDECF07F0DDCF08F0010EC2
:101550000A6E900E096ED1EC11F007500810D8A455
:10156000B4EF0AF0B6EF0AF0BCEF0AF0000E156E09
:10157000010E146EC0EF0AF0000E156E000E146E10
:101580000CC0D9FF0DC0DAFF020EDE18DE10D8A4A1
:10159000CCEF0AF0CEEF0AF0F6EF0AF014041510C3
:1015A000D8A4D5EF0AF0D7EF0AF0F6EF0AF00EC094
:1015B000D9FF0FC0DAFF1E0EDE18DE10D8A4E3EF4D
:1015C0000AF0E5EF0AF01DEF0BF00EC0D9FF0FC0D7
:1015D000DAFF010EDE6E000EDD6E0CC0D9FF0DC00D
:1015E000DAFFDE2A000EDD221DEF0BF00CC0D9FF62
:1015F0000DC0DAFF020EDE18DE10D8A402EF0BF0E9
:1016000004EF0BF01DEF0BF014501510D8A40BEFE6
:101610000BF00DEF0BF01DEF0BF00EC0D9FF0FC05C
:10162000DAFF1D0EDE18DE10D8A419EF0BF01BEF49
:101630000BF01DEF0BF0E5EF0AF0120041C0D9FFEF
:1016400042C0DAFFDECFF6FFDDCFF7FF000EF86E07
:101650000800F550250AD8A430EF0BF032EF0BF05C
:1016600064EF0CF041C0D9FF42C0DAFFDE2A000E61
:10167000DD22000E0001D06F000ECF6FCFC05EF0F4
:101680005C685D68000E516E000E506E74EF0BF0DA
:101690005E8241C0D9FF42C0DAFFDE2A000EDD22A1
:1016A00074EF0BF0000E516E010E506E74EF0BF0E4
:1016B00041C0D9FF42C0DAFFDECFF6FFDDCFF7FF32
:1016C000000EF86E0800F550456E466A4650000A56
:1016D000D8B46DEF0BF052EF0BF04550300AD8B490
:1016E00048EF0BF052EF0BF050505110D8B47BEF95
:1016F0000BF07DEF0BF058EF0BF041C0D9FF42C06B
:10170000DAFFDECFF6FFDDCFF7FF000EF86E080040
:10171000F5502A0AD8A48FEF0BF091EF0BF0BBEF36
:101720000BF041C0D9FF42C0DAFFDE2A000EDD22F5
:1017300043C0D9FF44C0DAFFDFCF45F0020EDE26FA
:10174000DFCF46F0000EDD2245C0D9FF46C0DAFFEC
:10175000DECFCFF0DDCFD0F00001D0BFB4EF0BF083
:10176000B2EF0BF0F0EF0BF05E80CF6DD01FD8B072
:10177000D02BF0EF0BF041C0D9FF42C0DAFFDECF33
:1017800007F0DDCF08F04BEC0FF007C0CFF008C03A
:10179000D0F0D2EF0BF041C0D9FF42C0DAFFDE2A11
:1017A000000EDD2241C0D9FF42C0DAFFDECFF6FFD6
:1017B000DDCFF7FF000EF86E0800F5CF45F0D00E34
:1017C0004524466E476AFF0E4722475009E10A0E3C
:1017D000465CD8A0EEEF0BF0F0EF0BF0CBEF0BF088
:1017E00041C0D9FF42C0DAFFDECF52F0DDCF53F067
:1017F00052C0F6FF53C0F7FF000EF86E0800F55018
:10180000640AD8B406EF0CF008EF0CF018EF0CF0F7
:1018100052C0F6FF53C0F7FF000EF86E0800F550F7
:10182000690AD8A416EF0CF018EF0CF05BEF0CF07F
:1018300043C0D9FF44C0DAFFDFCF45F0020EDE26F9
:10184000DFCF46F0000EDD2245C0D9FF46C0DAFFEB
:10185000DECF48F0DDCF49F0000E49BEFF0E4A6EE4
:101860004B6E4C6E4D6E4E6E4F6E010E5224456E99
:10187000000E5320466E41C0D9FF42C0DAFF45C07A
:10188000DEFF46C0DDFF3FC01CF040C01DF048C079
:101890001EF049C01FF04AC020F04BC021F04CC0E0
:1018A00022F04DC023F04EC024F04FC025F07BEC59
:1018B0000CF07AEF0CF041C0D9FF42C0DAFFDE2A0B
:1018C000000EDD227AEF0CF041C0D9FF42C0DAFFF2
:1018D000DECFF6FFDDCFF7FF000EF86E0800F55003
:1018E000016E026A3FC003F040C004F0FAEC0FF052
:1018F0005BEF0CF012001EC034F01FC035F020C0AA
:1019000036F021C037F022C038F023C039F024C0AF
:101910003AF025C03BF03BBE90EF0CF093EF0CF09B
:10192000010E94EF0CF0000E3E6E3E50D8B49BEFCB
:101930000CF09DEF0CF0ADEF0CF03B1E3A1E391E83
:10194000381E371E361E351E346C000E35223622E8
:101950003722382239223A223B225DBEB2EF0CF008
:10196000B4EF0CF0B5EF0CF05E925DBEC2EF0CF080
:101970005D5006E15C04D8B0C0EF0CF0C2EF0CF093
:10198000C8EF0CF0000E316E010E306ECCEF0CF093
:101990005CC030F05DC031F0CFC032F0D0C033F069
:1019A0003E50D8B4D6EF0CF0D8EF0CF0EFEF0CF0BF
:1019B0003206D8A033063E50D8A4E1EF0CF0E3EF96
:1019C0000CF0E9EF0CF0000E2F6E2B0E2E6EEDEFEB
:1019D0000CF0000E2F6E2D0E2E6E2EC03EF0000E5F
:1019E0003D6E1F0E3C6E000E01011F6F74EF0DF077
:1019F0003C06D8A03D06000E3C24D96E010E3D20C9
:101A0000DA6E34C001F035C002F036C003F037C0E2
:101A100004F038C005F039C006F03AC007F03BC00A
:101A200008F00A0E096E000E0A6E000E0B6E000E14
:101A30000C6E000E0D6E000E0E6E000E0F6E000E80
:101A4000106E99EC0EF001C026F002C027F003C022
:101A500028F004C029F005C02AF006C02BF007C00A
:101A60002CF008C02DF026C013F027C014F0BEECF7
:101A700012F01350300FDF6E3006D8A03106320658
:101A8000D8A0330634C001F035C002F036C003F0F0
:101A900037C004F038C005F039C006F03AC007F08E
:101AA0003BC008F00A0E096E000E0A6E000E0B6EA7
:101AB000000E0C6E000E0D6E000E0E6E000E0F6E00
:101AC000000E106ED5EC0DF001C034F002C035F000
:101AD00003C036F004C037F005C038F006C039F056
:101AE00007C03AF008C03BF03DBE7FEF0DF03D501F
:101AF00008E13C04D8A07FEF0DF081EF0DF0B1EFCD
:101B00000DF03450351036103710381039103A10A7
:101B10003B10D8A48EEF0DF090EF0DF0F8EF0CF025
:101B200031BE9DEF0DF0315006E13004D8B09BEF8F
:101B30000DF09DEF0DF0F8EF0CF033BEA8EF0DF0B7
:101B4000335008E13204D8A0A8EF0DF0AAEF0DF051
:101B5000B1EF0DF05EB2AFEF0DF0B1EF0DF0F8EFB9
:101B60000CF03E50D8B4B7EF0DF0B9EF0DF0C4EF64
:101B70000DF03C06D8A03D06000E3C24D96E010EA7
:101B80003D20DA6E3EC0DFFF1CC011F01DC012F018
:101B9000000E3C24136E010E3D20146E32C015F071
:101BA00033C016F0C3EC10F01200000E126E10BE1F
:101BB000DEEF0DF0DCEF0DF0F0EF0DF0101E0F1E5C
:101BC0000E1E0D1E0C1E0B1E0A1E096C000E0A2294
:101BD0000B220C220D220E220F221022010E126E59
:101BE00008BEF7EF0DF0F5EF0DF009EF0EF0081E4F
:101BF000071E061E051E041E031E021E016C000E9B
:101C00000222032204220522062207220822010EB4
:101C1000121A20EE13F0070EDE6AE806FDE2095004
:101C20000A100B100C100D100E100F101010D8B45D
:101C30001CEF0EF01EEF0EF070EF0EF0010E116EA5
:101C40002CEF0EF0D89009360A360B360C360D36CE
:101C50000E360F361036112A10AE31EF0EF033EF7C
:101C60000EF022EF0EF0D8901336143615361636D5
:101C70001736183619361A360950015C0A500258C0
:101C80000B5003580C5004580D5005580E50065870
:101C90000F50075810500858D8A051EF0EF053EFCE
:101CA0000EF064EF0EF00950015E0A50025A0B501C
:101CB000035A0C50045A0D50055A0E50065A0F5034
:101CC000075A1050085A1380D89010320F320E3233
:101CD0000D320C320B320A320932112E33EF0EF074
:101CE0001250D8B476EF0EF078EF0EF088EF0EF0C9
:101CF0001A1E191E181E171E161E151E141E136CF2
:101D0000000E1422152216221722182219221A2236
:101D100013C001F014C002F015C003F016C004F0A7
:101D200017C005F018C006F019C007F01AC008F077
:101D30001200000E126E08BEA2EF0EF0A0EF0EF021
:101D4000B4EF0EF0081E071E061E051E041E031E1D
:101D5000021E016C000E022203220422052206222A
:101D600007220822010E126E10BEBBEF0EF0B9EF73
:101D70000EF0CBEF0EF0101E0F1E0E1E0D1E0C1ED1
:101D80000B1E0A1E096C000E0A220B220C220D22C9
:101D90000E220F22102209500A100B100C100D10E9
:101DA0000E100F101010D8B4D8EF0EF0DAEF0EF0BE
:101DB00022EF0FF0010E116EE8EF0EF0D890093609
:101DC0000A360B360C360D360E360F361036112A03
:101DD00010AEEDEF0EF0EFEF0EF0DEEF0EF009506B
:101DE000015C0A5002580B5003580C5004580D5017
:101DF00005580E5006580F50075810500858D8A0D4
:101E000004EF0FF006EF0FF016EF0FF00950015E30
:101E10000A50025A0B50035A0C50045A0D50055ADE
:101E20000E50065A0F50075A1050085AD8901032C8
:101E30000F320E320D320C320B320A320932112EB1
:101E4000EFEF0EF01250D8B428EF0FF02AEF0FF09A
:101E50003AEF0FF0081E071E061E051E041E031E85
:101E6000021E016C000E0222032204220522062219
:101E70000722082201C001F002C002F003C003F0F3
:101E800004C004F005C005F006C006F007C007F066
:101E900008C008F01200000E0F6E000E0E6E000E4D
:101EA0000D6E000E0C6E57EF0FF0074A082A07C0A0
:101EB000F6FF08C0F7FF000EF86E0800F550200A84
:101EC000D8B465EF0FF067EF0FF055EF0FF007C0D4
:101ED000F6FF08C0F7FF000EF86E0800F5CF09F016
:101EE000F70E09240A6E0B6AFF0E0B220B5009E154
:101EF000050E0A5CD8A07FEF0FF081EF0FF055EFD1
:101F00000FF08BEF0FF0000E0D6E010E0C6E074AF6
:101F1000082AC4EF0FF007C0F6FF08C0F7FF000E55
:101F2000F86E0800F550096E0A6A0A50000AD8B423
:101F30009CEF0FF0C4EF0FF009502B0AD8B487EFD5
:101F40000FF0060AD8B483EF0FF0C4EF0FF00EC005
:101F500001F00FC002F0000E046E0A0E036E46EC94
:101F600013F007C0F6FF08C0F7FF000EF86E080078
:101F7000F550015E000E025A300E01240E6E000E66
:101F800002200F6E87EF0FF007C0F6FF08C0F7FFC3
:101F9000000EF86E0800F5CF09F0D00E09240A6E85
:101FA0000B6AFF0E0B220B5009E10A0E0A5CD8A047
:101FB000DCEF0FF0DEEF0FF0A7EF0FF00C500D107D
:101FC000D8A4E5EF0FF0E7EF0FF0F5EF0FF00EC03C
:101FD00009F00FC00AF0091E0A1E094A0A2A09C0A0
:101FE00007F00AC008F0F9EF0FF00EC007F00FC0BD
:101FF00008F0120003500410D8B401EF10F003EF02
:1020000010F00CEF10F003500410D8A40AEF10F0F9
:102010000CEF10F011EF10F00150B5EC13F05EEF83
:1020200010F020EE09F00350D9260450DA22DE50D9
:10203000DE10D8B41EEF10F020EF10F03BEF10F0E0
:1020400020EE09F00350D9260450DA2210EE03F0F6
:102050000350E1260450E222DE50E65CE650800A9E
:10206000096EDE50800A0958D8B039EF10F03BEF06
:1020700010F05EEF10F020EE03F00350D92604506C
:10208000DA22DECF05F0DDCF06F003C0D9FF04C0B1
:10209000DAFFDECF07F0DDCF08F005500724D96E58
:1020A00006500820DA6E01C0DFFF20EE03F0035077
:1020B000D9260450DA22DE2A000EDD22120001A009
:1020C00064EF10F066EF10F069EF10F07F806AEFB8
:1020D00010F07F9001A26FEF10F071EF10F074EF2D
:1020E00010F07F8275EF10F07F9201A47AEF10F06C
:1020F0007CEF10F07FEF10F0798480EF10F079948E
:1021000001A685EF10F087EF10F08AEF10F07E8CBB
:102110008BEF10F07E9C01A890EF10F092EF10F082
:1021200095EF10F0798896EF10F0799801AA9BEF5F
:1021300010F09DEF10F0A0EF10F0798AA1EF10F0F1
:10214000799A01ACA6EF10F0A8EF10F0ABEF10F009
:102150007E80ACEF10F07E9001AEB1EF10F0B3EFE7
:1021600010F0B6EF10F07A80B7EF10F07A9002A07E
:10217000BCEF10F0BEEF10F0C1EF10F07A82C2EFAA
:1021800010F07A9212005EA0C8EF10F0CAEF10F0C3
:10219000D4EF10F013C00AF014C00BF011C00CF013
:1021A00012C00DF09CEC12F016BED9EF10F0DBEF70
:1021B00010F0E1EF10F015C01AF016C01BF0E5EFBB
:1021C00010F0000E1B6E000E1A6E000E196E000E3F
:1021D000186EF7EF10F0000E026E200E016E11C0A7
:1021E00003F012C004F0FAEC0FF0184A192A1A5042
:1021F000185C1950800A176E1B50800A1758D8A017
:1022000004EF11F006EF11F0EBEF10F05EB00BEF02
:1022100011F00DEF11F017EF11F013C00AF014C018
:102220000BF011C00CF012C00DF09CEC12F012007B
:10223000839C839482968294859685927B9C7B94E2
:102240007A967A947D967D92050E056E0F0E046E39
:10225000F10EE82EFED7042EFCD7052EFAD700F09B
:10226000030E9DEC11F0F00EE82EFED7020E9DEC51
:1022700011F0F00EE82EFED7000E026E280EFBECD9
:1022800012F0F00EE82EFED7000E026E080EFBECE8
:1022900012F0F00EE82EFED7000E026E010EFBECDF
:1022A00012F02A0E046E8E0EE82EFED7042EFCD7F6
:1022B000000E026E060EFBEC12F0000E026E0C0E0B
:1022C000FBEC12F01200000E0C6E000E0B6E0950AB
:1022D0000A10D8B46EEF11F070EF11F098EF11F012
:1022E000010E0D6E78EF11F0D89009360A360D2ADE
:1022F0000AAE7DEF11F07FEF11F074EF11F0D8907E
:102300000B360C360950075C0A500858D8A08BEFE2
:1023100011F08DEF11F092EF11F00950075E0A50A5
:10232000085A0B80D8900A3209320D2E7FEF11F037
:102330000BC007F00CC008F01200016E01A0A3EF63
:1023400011F0A5EF11F0A8EF11F07A86A9EF11F0C6
:102350007A9601A2AEEF11F0B0EF11F0B3EF11F0E9
:102360007A84B4EF11F07A9401A4B9EF11F0BBEFC5
:1023700011F0BEEF11F07D86BFEF11F07D9601A642
:10238000C4EF11F0C6EF11F0C9EF11F07D82CAEF72
:1023900011F07D92A4EC13F01A0EE82EFED700D0B7
:1023A000120009500A10D8B4D8EF11F0DAEF11F08A
:1023B000FEEF11F0010E0B6EE2EF11F0D89009362E
:1023C0000A360B2A0AAEE7EF11F0E9EF11F0DEEF63
:1023D00011F00950075C0A500858D8A0F2EF11F02C
:1023E000F4EF11F0F8EF11F00950075E0A50085AA7
:1023F000D8900A3209320B2EE9EF11F007C007F02E
:1024000008C008F01200640E00016C6F000E6D6FC2
:1024100060C06EF061C06FF0000E726F000E716FE1
:10242000000E786F000E776F6E0E546E000E556EB4
:1024300062C056F063C057F06C0E586E000E596EB5
:102440002CEC12F0000171516025D96E725161219E
:10245000DA6E000EDF6E120056C05AF057C05BF005
:1024600040EF12F054C03FF055C040F05A0E416E9C
:10247000000E426E58C043F059C044F01EEC0BF001
:102480005AC0F6FF5BC0F7FF000EF86E0800F5506B
:102490000009D8A44EEF12F050EF12F032EF12F014
:1024A000000E556E000E546E1200660EF66E270E6C
:1024B000F76E000EF86E00EEE1F010EE04F0090089
:1024C000F5CFEEFFE550E150FAE101EE00F0200E0D
:1024D000EE6AE806FDE100EECFF0120EEE6AE806C5
:1024E000FDE15E6A5D6A5C6A5F905F9200011BEFCE
:1024F00007F0010E056E200E01180210D8B483EF0C
:1025000012F085EF12F098EF12F0F70E0124036E2F
:10251000FF0E0220046E045009E1050E035CD8A0F2
:1025200094EF12F096EF12F098EF12F0000E056E95
:1025300005C001F0026A1200000E106E000E0F6E50
:10254000ADEF12F00EC001F0026A0CC003F00DC036
:1025500004F0FAEC0FF00F4A102A0F500A24D96E3B
:1025600010500B20DA6EDF500E6E0E50D8A4BBEF69
:1025700012F0BDEF12F0A2EF12F0120014BECBEF7A
:1025800012F0145006E11304D8B0C9EF12F0CBEFEB
:1025900012F0D9EF12F013C015F014C016F0151E8A
:1025A000161E154A162A15C013F016C014F0DDEFDA
:1025B00012F013C013F014C014F01200046E0404DF
:1025C000D8A4E5EF12F0E7EF12F0ECEF12F0000EF6
:1025D000026E800EFBEC12F0020E0418D8A4F3EF8A
:1025E00012F0F5EF12F0FAEF12F0000E026EC00ECC
:1025F000FBEC12F01200036E0250D8B402EF13F09D
:1026000004EF13F007EF13F07B8C08EF13F07B9CC3
:1026100003380F0B0F0B9DEC11F003500F0B9DECCB
:1026200011F0A00E00D0E82EFDD7120023EF13F01A
:10263000010E026E04C0D9FF05C0DAFFDF50FBECCB
:1026400012F0044A052A04C0D9FF05C0DAFFDF50A2
:10265000D8A42DEF13F02FEF13F018EF13F01200A2
:10266000D00E0124036EFF0E0220046E04500AE116
:102670000A0E035CD8A03FEF13F042EF13F0010EF7
:1026800043EF13F0000E016E026A120001500302C4
:10269000F3CF05F0F4CF06F001500402F350062604
:1026A00002500302F350062605C001F006C002F0F6
:1026B000120081860E01D251F80B0309D26FD3515B
:1026C000F80B0509D36FD083D089D183D1819AECDF
:1026D00013F00E01D08F1200879087928194869C10
:1026E0008198819A869082907F907F9279947E9C47
:1026F0007998799A7E907A901200D6501F0B4009F3
:10270000D66ED688D650F00B0209D66ED5880B0E41
:10271000D46E0B0ED36ED58E1200000E026E010E1B
:10272000FBEC12F02A0E046E8E0EE82EFED7042E5D
:10273000FCD71200F30E0E01C617C691C751E00B6D
:102740001B09C76FC68F12007B840A0EE82EFED7C6
:1027500000D07B9412000E01298BF28EF28C1200B5
:0C2760008086889612000F001500120001
:020000040020DA
:10000000FF0FFF0FFF0FFF0FFF0FFF0FFF0FFF0F80
:020000040030CA
:0C000000AAFFFFFF9FFFFFFFFFFFFFFFB5
:00000001FF
