:0400000063EF00F0BA
:100008005F820E0133AB0BEF00F00DEF00F016EF3F
:1000180000F00B0ED46E0B0ED36E0001E34BE42BF5
:100028000E01339B35A11BEF00F01DEF00F061EFCF
:1000380000F0D0BD22EF00F024EF00F02FEF00F029
:10004800E5C0DDF0E6C0DEF0E3C0DBF0E4C0DCF0E4
:1000580080965FEF00F0D0AD34EF00F036EF00F09F
:100068005FEF00F0E5C0D9F0E6C0DAF0E3C0D7F002
:10007800E4C0D8F00001E551E611D8B446EF00F02D
:1000880048EF00F053EF00F0E65109E1050EE55D99
:10009800D8A051EF00F053EF00F05FEF00F00E0131
:1000A800D0AD59EF00F05BEF00F05EEF00F0808616
:1000B8005FEF00F080960E0135915F921100CEEF50
:0200C80012F034
:100E000000566F6C74616765203D2025642E253087
:100E100032640025642D25642D25642020202020A7
:100E200025640067657476616C203D20256400258B
:100E3000643A25640000000E0001CC6F060ECB6FF3
:100E4000000ECE6F030ECD6F000ED06F1A0ECF6F57
:100E5000070EC86FE60EC76F000EC66F000EC56F97
:100E6000000EC46F000EC36F000ECA6F000EC96F74
:100E7000F6EC13F0E5EC13F029EC14F0E5EC13F0CC
:100E8000D2EC13F024EC14F091EC11F0010E57ECBD
:100E900013F07D0E0001606F000E616F130E626F24
:100EA0000E0E636FCFC064F0D0C065F0CDC066F0A9
:100EB000CEC067F0C7C068F0C8C069F0CBC06AF0A8
:100EC000CCC06BF07CEC12F07D0E046E000E056E53
:100ED0008FEC13F0020E57EC13F0AF0E0001606FB1
:100EE000000E616F2F0E626F0E0E636FE5C064F02F
:100EF000E6C065F0E3C066F0E4C067F07CEC12F099
:100F0000AF0E046E000E056E8FEC13F0E5C001F01D
:100F1000E6C002F0D8EC10F03C0E0001E319E41139
:100F2000D8A495EF07F097EF07F0E8EF08F0E54B4E
:100F3000E62BE5C001F0E6C002F0D8EC10F0000EA0
:100F40000001E46F000EE36F180EE519E611D8A456
:100F5000ACEF07F0AEEF07F0E2EF08F0000EE66F3F
:100F6000000EE56FDB51D75DDC51D859D8A0BBEF3F
:100F700007F0BDEF07F0CBEF07F0DB51D75DDF6F78
:100F8000DC51D859E06FDD51D95DE16FDE51DA599E
:100F9000E26FE3EF07F0DB51D75D796FDC51D85991
:100FA0007A6F3C0E7925DF6F000E7A21E06FDD51FC
:100FB000D95D796FDE51DA597A6FFF0E7925E16FCD
:100FC000FF0E7A21E26FE1C001F0E2C002F0000EF4
:100FD000046E3C0E036EBFEC13F00001DF510126DE
:100FE000E0510222D89002307A6F0130796FDDC073
:100FF00001F0DEC002F0000E046E3C0E036EBFEC8A
:1010000013F00001795101247B6F7A5102207C6F2B
:10101000DB517B25076EDC517C21086E000E0A6EC9
:101020003C0E096EDCEC11F007C0D5F008C0D6F01C
:10103000E1C001F0E2C002F0000E046E3C0E036E4F
:10104000BFEC13F00001DF510126E0510222D890DD
:1010500002307A6F0130796FDDC001F0DEC002F03E
:10106000000E046E3C0E036EBFEC13F000017951CC
:1010700001247B6F7A5102207C6FDB517B25076E48
:10108000DC517C21086E000E0A6E3C0E096E4AECA3
:1010900012F007C0D3F008C0D4F00001D65109E126
:1010A0000C0ED55DD8A057EF08F059EF08F082EF8D
:1010B00008F0D351D411D8B460EF08F062EF08F013
:1010C00082EF08F0C951CA11D8A469EF08F06BEF9C
:1010D00008F082EF08F0000ECA6F010EC96F7C8E17
:1010E000D5512308E56FD651D8A0E82A0008E66F4D
:1010F000D3513C08E36FD451D8A0E82A0008E46F2C
:10110000B6EF08F0D65107E10C0ED55DD8B08BEFE5
:1011100008F08DEF08F09FEF08F0D5510B08E56F50
:10112000D651D8A0E82A0008E66FD3513C08E36FF7
:10113000D451D8A0E82A0008E46FB6EF08F0E551D2
:10114000E611D8A4A6EF08F0A8EF08F0B6EF08F073
:10115000C905CA11D8A4AFEF08F0B1EF08F0B6EF97
:1011600008F0000ECA6F000EC96F7C9EC905CA1137
:10117000D8B4BDEF08F0BFEF08F0E2EF08F0CB4BBA
:10118000CC2BCF4BD02BCD0E0C6E000E0D6ECF0E98
:101190000E6E000E0F6EC70E106E000E116EFCEC80
:1011A00009F0070E0001CB19CC11D8A4DAEF08F032
:1011B000DCEF08F0E0EF08F0000ECC6F000ECB6F14
:1011C00006EC14F0E5C001F0E6C002F0D8EC10F037
:1011D0000001E551E611D8B4F0EF08F0F2EF08F0A5
:1011E00002EF09F0E65107E1050EE55DD8B0FBEF2F
:1011F00008F0FDEF08F002EF09F08096000EC46FD2
:10120000010EC36F050EE519E611D8A40AEF09F027
:101210000CEF09F023EF09F0C305C411D8A413EFB4
:1012200009F015EF09F023EF09F00E01D0AD1BEF27
:1012300009F01DEF09F023EF09F08086000E000190
:10124000C46F000EC36F0001CB51CC11D8A42BEF9B
:1012500009F02DEF09F061EF09F0030ECD19CE1161
:10126000D8A435EF09F037EF09F061EF09F0E50593
:10127000E611D8A43EEF09F040EF09F061EF09F064
:10128000E351E411D8A447EF09F049EF09F061EF09
:1012900009F0D05109E1190ECF5DD8A052EF09F045
:1012A00054EF09F061EF09F0D05107E1200ECF5D56
:1012B000D8B05DEF09F05FEF09F061EF09F0E54BA1
:1012C000E62BCB51CC11D8A468EF09F06AEF09F0F6
:1012D000AFEF09F00A0ECD19CE11D8A472EF09F0C4
:1012E00074EF09F0AFEF09F0020EE519E611D8A48A
:1012F0007CEF09F07EEF09F0AFEF09F0E351E41164
:10130000D8A485EF09F087EF09F0AFEF09F0D051CD
:1013100009E1190ECF5DD8A090EF09F092EF09F026
:10132000AFEF09F0D05107E1200ECF5DD8B09BEFB1
:1013300009F09DEF09F0AFEF09F0C551C611D8A42F
:10134000A4EF09F0A6EF09F0AFEF09F0E507D8A088
:10135000E607000EC66F010EC56F46EF07F0CB51D2
:10136000CC11D8A4B6EF09F0B8EF09F046EF07F0BA
:101370000A0ECD19CE11D8A4C0EF09F0C2EF09F0C2
:1013800046EF07F0040EE519E611D8A4CAEF09F0FC
:10139000CCEF09F046EF07F0E351E411D8A4D3EF06
:1013A00009F0D5EF09F046EF07F0D05109E1190E29
:1013B000CF5DD8A0DEEF09F0E0EF09F046EF07F0CF
:1013C000D05107E1200ECF5DD8B0E9EF09F0EBEF87
:1013D00009F046EF07F0C505C611D8A4F2EF09F0F1
:1013E000F4EF09F046EF07F0000EC66F000EC56F70
:1013F00046EF07F063EF00F00CC0D9FF0DC0DAFF35
:10140000DE04DE10D8B407EF0AF009EF0AF05DEF52
:101410000AF00CC0D9FF0DC0DAFF030EDE18DE1093
:10142000D8B415EF0AF017EF0AF05DEF0AF00CC020
:10143000D9FF0DC0DAFF050EDE18DE10D8B423EF99
:101440000AF025EF0AF05DEF0AF00CC0D9FF0DC0DD
:10145000DAFF070EDE18DE10D8B431EF0AF033EFF2
:101460000AF05DEF0AF00CC0D9FF0DC0DAFF080EDC
:10147000DE18DE10D8B43FEF0AF041EF0AF05DEF5E
:101480000AF00CC0D9FF0DC0DAFF0A0EDE18DE101C
:10149000D8B44DEF0AF04FEF0AF05DEF0AF00CC040
:1014A000D9FF0DC0DAFF0C0EDE18DE10D8A45BEFFA
:1014B0000AF05DEF0AF097EF0AF00EC0D9FF0FC0F7
:1014C000DAFF200EDE18DE10D8A469EF0AF06BEF09
:1014D0000AF097EF0AF00EC0D9FF0FC0DAFF010E35
:1014E000DE6E000EDD6E0CC0D9FF0DC0DAFFDE2A05
:1014F000000EDD220CC0D9FF0DC0DAFF0D0EDE1884
:10150000DE10D8A486EF0AF088EF0AF097EF0AF011
:101510000CC0D9FF0DC0DAFF010EDE6E000EDD6ECD
:1015200010C0D9FF11C0DAFFDE2A000EDD220CC088
:10153000D9FF0DC0DAFF040EDE18DE10D8B4A3EF19
:101540000AF0A5EF0AF0CFEF0AF00CC0D9FF0DC0EA
:10155000DAFF060EDE18DE10D8B4B1EF0AF0B3EFF2
:101560000AF0CFEF0AF00CC0D9FF0DC0DAFF090E68
:10157000DE18DE10D8B4BFEF0AF0C1EF0AF0CFEFEB
:101580000AF00CC0D9FF0DC0DAFF0B0EDE18DE101A
:10159000D8A4CDEF0AF0CFEF0AF0ECEF0AF00EC0BE
:1015A000D9FF0FC0DAFF1F0EDE18DE10D8A4DBEF64
:1015B0000AF0DDEF0AF0ECEF0AF00EC0D9FF0FC021
:1015C000DAFF010EDE6E000EDD6E0CC0D9FF0DC01D
:1015D000DAFFDE2A000EDD2210C0D9FF11C0DAFFCB
:1015E000DECF12F0DDCF13F0030E1216000E13162D
:1015F00012501310D8A4FFEF0AF001EF0BF018EF10
:101600000BF010C0D9FF11C0DAFFDECF07F0DDCF3D
:1016100008F0000E0A6E640E096E4AEC12F00750D4
:101620000810D8A416EF0BF018EF0BF02FEF0BF00B
:1016300010C0D9FF11C0DAFFDECF07F0DDCF08F010
:10164000010E0A6E900E096E4AEC12F00750081057
:10165000D8A42DEF0BF02FEF0BF035EF0BF0000EB1
:10166000156E010E146E39EF0BF0000E156E000EA4
:10167000146E0CC0D9FF0DC0DAFF020EDE18DE10AA
:10168000D8A445EF0BF047EF0BF06FEF0BF014040D
:101690001510D8A44EEF0BF050EF0BF06FEF0BF0DE
:1016A0000EC0D9FF0FC0DAFF1E0EDE18DE10D8A460
:1016B0005CEF0BF05EEF0BF096EF0BF00EC0D9FF76
:1016C0000FC0DAFF010EDE6E000EDD6E0CC0D9FF1A
:1016D0000DC0DAFFDE2A000EDD2296EF0BF00CC003
:1016E000D9FF0DC0DAFF020EDE18DE10D8A47BEFA2
:1016F0000BF07DEF0BF096EF0BF014501510D8A403
:1017000084EF0BF086EF0BF096EF0BF00EC0D9FFD5
:101710000FC0DAFF1D0EDE18DE10D8A492EF0BF01A
:1017200094EF0BF096EF0BF05EEF0BF0120041C060
:10173000D9FF42C0DAFFDECFF6FFDDCFF7FF000EA4
:10174000F86E0800F550250AD8A4A9EF0BF0ABEF0E
:101750000BF0DDEF0CF041C0D9FF42C0DAFFDE2A0A
:10176000000EDD22000E0001D26F000ED16FD1C03D
:101770005EF05C685D68000E516E000E506EEDEF1D
:101780000BF05E8241C0D9FF42C0DAFFDE2A000EB4
:10179000DD22EDEF0BF0000E516E010E506EEDEFFD
:1017A0000BF041C0D9FF42C0DAFFDECFF6FFDDCF3C
:1017B000F7FF000EF86E0800F550456E466A465079
:1017C000000AD8B4E6EF0BF0CBEF0BF04550300A2F
:1017D000D8B4C1EF0BF0CBEF0BF050505110D8B490
:1017E000F4EF0BF0F6EF0BF0D1EF0BF041C0D9FFA7
:1017F00042C0DAFFDECFF6FFDDCFF7FF000EF86E56
:101800000800F5502A0AD8A408EF0CF00AEF0CF0F3
:1018100034EF0CF041C0D9FF42C0DAFFDE2A000EDF
:10182000DD2243C0D9FF44C0DAFFDFCF45F0020E0E
:10183000DE26DFCF46F0000EDD2245C0D9FF46C0D0
:10184000DAFFDECFD1F0DDCFD2F00001D2BF2DEF35
:101850000CF02BEF0CF069EF0CF05E80D16DD21F15
:10186000D8B0D22B69EF0CF041C0D9FF42C0DAFFEB
:10187000DECF07F0DDCF08F0C4EC0FF007C0D1F0E9
:1018800008C0D2F04BEF0CF041C0D9FF42C0DAFFE4
:10189000DE2A000EDD2241C0D9FF42C0DAFFDECFD2
:1018A000F6FFDDCFF7FF000EF86E0800F5CF45F02C
:1018B000D00E4524466E476AFF0E4722475009E185
:1018C0000A0E465CD8A067EF0CF069EF0CF044EF0D
:1018D0000CF041C0D9FF42C0DAFFDECF52F0DDCFBD
:1018E00053F052C0F6FF53C0F7FF000EF86E080029
:1018F000F550640AD8B47FEF0CF081EF0CF091EF53
:101900000CF052C0F6FF53C0F7FF000EF86E08004F
:10191000F550690AD8A48FEF0CF091EF0CF0D4EFDA
:101920000CF043C0D9FF44C0DAFFDFCF45F0020E10
:10193000DE26DFCF46F0000EDD2245C0D9FF46C0CF
:10194000DAFFDECF48F0DDCF49F0000E49BEFF0ED2
:101950004A6E4B6E4C6E4D6E4E6E4F6E010E5224A3
:10196000456E000E5320466E41C0D9FF42C0DAFFDB
:1019700045C0DEFF46C0DDFF3FC01CF040C01DF08B
:1019800048C01EF049C01FF04AC020F04BC021F0F3
:101990004CC022F04DC023F04EC024F04FC025F0C3
:1019A000F4EC0CF0F3EF0CF041C0D9FF42C0DAFFC9
:1019B000DE2A000EDD22F3EF0CF041C0D9FF42C059
:1019C000DAFFDECFF6FFDDCFF7FF000EF86E08007E
:1019D000F550016E026A3FC003F040C004F073ECA2
:1019E00010F0D4EF0CF012001EC034F01FC035F020
:1019F00020C036F021C037F022C038F023C039F0C3
:101A000024C03AF025C03BF03BBE09EF0DF00CEFCF
:101A10000DF0010E0DEF0DF0000E3E6E3E50D8B4ED
:101A200014EF0DF016EF0DF026EF0DF03B1E3A1EF1
:101A3000391E381E371E361E351E346C000E3522F8
:101A400036223722382239223A223B225DBE2BEF42
:101A50000DF02DEF0DF02EEF0DF05E925DBE3BEF21
:101A60000DF05D5006E15C04D8B039EF0DF03BEFAE
:101A70000DF041EF0DF0000E316E010E306E45EFAE
:101A80000DF05CC030F05DC031F0D1C032F0D2C09A
:101A900033F03E50D8B44FEF0DF051EF0DF068EF3A
:101AA0000DF03206D8A033063E50D8A45AEF0DF000
:101AB0005CEF0DF062EF0DF0000E2F6E2B0E2E6E10
:101AC00066EF0DF0000E2F6E2D0E2E6E2EC03EF026
:101AD000000E3D6E1F0E3C6E000E01011F6FEDEFFC
:101AE0000DF03C06D8A03D06000E3C24D96E010E38
:101AF0003D20DA6E34C001F035C002F036C003F08C
:101B000037C004F038C005F039C006F03AC007F01D
:101B10003BC008F00A0E096E000E0A6E000E0B6E36
:101B2000000E0C6E000E0D6E000E0E6E000E0F6E8F
:101B3000000E106E12EC0FF001C026F002C027F06C
:101B400003C028F004C029F005C02AF006C02BF01D
:101B500007C02CF008C02DF026C013F027C014F0E9
:101B600037EC13F01350300FDF6E3006D8A031067B
:101B70003206D8A0330634C001F035C002F036C0BA
:101B800003F037C004F038C005F039C006F03AC0A1
:101B900007F03BC008F00A0E096E000E0A6E000E38
:101BA0000B6E000E0C6E000E0D6E000E0E6E000E13
:101BB0000F6E000E106E4EEC0EF001C034F002C03D
:101BC00035F003C036F004C037F005C038F006C069
:101BD00039F007C03AF008C03BF03DBEF8EF0DF019
:101BE0003D5008E13C04D8A0F8EF0DF0FAEF0DF0FD
:101BF0002AEF0EF0345035103610371038103910E7
:101C00003A103B10D8A407EF0EF009EF0EF071EF79
:101C10000DF031BE16EF0EF0315006E13004D8B0B1
:101C200014EF0EF016EF0EF071EF0DF033BE21EF52
:101C30000EF0335008E13204D8A021EF0EF023EF6C
:101C40000EF02AEF0EF05EB228EF0EF02AEF0EF043
:101C500071EF0DF03E50D8B430EF0EF032EF0EF0D1
:101C60003DEF0EF03C06D8A03D06000E3C24D96E98
:101C7000010E3D20DA6E3EC0DFFF1CC011F01DC01A
:101C800012F0000E3C24136E010E3D20146E32C083
:101C900015F033C016F03CEC11F01200000E126E7D
:101CA00010BE57EF0EF055EF0EF069EF0EF0101E5C
:101CB0000F1E0E1E0D1E0C1E0B1E0A1E096C000EA2
:101CC0000A220B220C220D220E220F221022010EBC
:101CD000126E08BE70EF0EF06EEF0EF082EF0EF097
:101CE000081E071E061E051E041E031E021E016C92
:101CF000000E0222032204220522062207220822C5
:101D0000010E121A20EE13F0070EDE6AE806FDE25D
:101D100009500A100B100C100D100E100F1010109F
:101D2000D8B495EF0EF097EF0EF0E9EF0EF0010E3C
:101D3000116EA5EF0EF0D89009360A360B360C3628
:101D40000D360E360F361036112A10AEAAEF0EF0F1
:101D5000ACEF0EF09BEF0EF0D8901336143615361C
:101D600016361736183619361A360950015C0A50DD
:101D700002580B5003580C5004580D5005580E5083
:101D800006580F50075810500858D8A0CAEF0EF048
:101D9000CCEF0EF0DDEF0EF00950015E0A50025A52
:101DA0000B50035A0C50045A0D50055A0E50065A47
:101DB0000F50075A1050085A1380D89010320F3223
:101DC0000E320D320C320B320A320932112EACEFC8
:101DD0000EF01250D8B4EFEF0EF0F1EF0EF001EF6D
:101DE0000FF01A1E191E181E171E161E151E141E81
:101DF000136C000E14221522162217221822192203
:101E00001A2213C001F014C002F015C003F016C06E
:101E100004F017C005F018C006F019C007F01AC08A
:101E200008F01200000E126E08BE1BEF0FF019EF43
:101E30000FF02DEF0FF0081E071E061E051E041ED4
:101E4000031E021E016C000E022203220422052240
:101E5000062207220822010E126E10BE34EF0FF088
:101E600032EF0FF044EF0FF0101E0F1E0E1E0D1E6E
:101E70000C1E0B1E0A1E096C000E0A220B220C22DD
:101E80000D220E220F22102209500A100B100C10E6
:101E90000D100E100F101010D8B451EF0FF053EFBB
:101EA0000FF09BEF0FF0010E116E61EF0FF0D89065
:101EB00009360A360B360C360D360E360F3610360E
:101EC000112A10AE66EF0FF068EF0FF057EF0FF02A
:101ED0000950015C0A5002580B5003580C5004582A
:101EE0000D5005580E5006580F50075810500858FE
:101EF000D8A07DEF0FF07FEF0FF08FEF0FF00950BC
:101F0000015E0A50025A0B50035A0C50045A0D50ED
:101F1000055A0E50065A0F50075A1050085AD890BA
:101F200010320F320E320D320C320B320A320932BD
:101F3000112E68EF0FF01250D8B4A1EF0FF0A3EFFD
:101F40000FF0B3EF0FF0081E071E061E051E041E3D
:101F5000031E021E016C000E02220322042205222F
:101F600006220722082201C001F002C002F003C0CD
:101F700003F004C004F005C005F006C006F007C079
:101F800007F008C008F01200000E0F6E000E0E6E73
:101F9000000E0D6E000E0C6ED0EF0FF0074A082AEF
:101FA00007C0F6FF08C0F7FF000EF86E0800F550F6
:101FB000200AD8B4DEEF0FF0E0EF0FF0CEEF0FF015
:101FC00007C0F6FF08C0F7FF000EF86E0800F5CF57
:101FD00009F0F70E09240A6E0B6AFF0E0B220B5054
:101FE00009E1050E0A5CD8A0F8EF0FF0FAEF0FF048
:101FF000CEEF0FF004EF10F0000E0D6E010E0C6E20
:10200000074A082A3DEF10F007C0F6FF08C0F7FFA7
:10201000000EF86E0800F550096E0A6A0A50000AB0
:10202000D8B415EF10F03DEF10F009502B0AD8B4DA
:1020300000EF10F0060AD8B4FCEF0FF03DEF10F0FF
:102040000EC001F00FC002F0000E046E0A0E036E07
:10205000BFEC13F007C0F6FF08C0F7FF000EF86EE4
:102060000800F550015E000E025A300E01240E6E7B
:10207000000E02200F6E00EF10F007C0F6FF08C040
:10208000F7FF000EF86E0800F5CF09F0D00E092416
:102090000A6E0B6AFF0E0B220B5009E10A0E0A5C56
:1020A000D8A055EF10F057EF10F020EF10F00C50C3
:1020B0000D10D8A45EEF10F060EF10F06EEF10F08E
:1020C0000EC009F00FC00AF0091E0A1E094A0A2AAA
:1020D00009C007F00AC008F072EF10F00EC007F058
:1020E0000FC008F0120003500410D8B47AEF10F0BB
:1020F0007CEF10F085EF10F003500410D8A483EFAC
:1021000010F085EF10F08AEF10F0015030EC14F071
:10211000D7EF10F020EE09F00350D9260450DA2250
:10212000DE50DE10D8B497EF10F099EF10F0B4EF56
:1021300010F020EE09F00350D9260450DA2210EEF8
:1021400003F00350E1260450E222DE50E65CE65044
:10215000800A096EDE50800A0958D8B0B2EF10F03C
:10216000B4EF10F0D7EF10F020EE03F00350D926B3
:102170000450DA22DECF05F0DDCF06F003C0D9FF30
:1021800004C0DAFFDECF07F0DDCF08F005500724EA
:10219000D96E06500820DA6E01C0DFFF20EE03F092
:1021A0000350D9260450DA22DE2A000EDD22120066
:1021B00001A0DDEF10F0DFEF10F0E2EF10F07F8014
:1021C000E3EF10F07F9001A2E8EF10F0EAEF10F0DB
:1021D000EDEF10F07F82EEEF10F07F9201A4F3EFAD
:1021E00010F0F5EF10F0F8EF10F07984F9EF10F03F
:1021F000799401A6FEEF10F000EF11F003EF11F05B
:102200007E8C04EF11F07E9C01A809EF11F00BEF1A
:1022100011F00EEF11F079880FEF11F0799801AA03
:1022200014EF11F016EF11F019EF11F0798A1AEF8F
:1022300011F0799A01AC1FEF11F021EF11F024EFAA
:1022400011F07E8025EF11F07E9001AE2AEF11F0A3
:102250002CEF11F02FEF11F07A8030EF11F07A901F
:1022600002A035EF11F037EF11F03AEF11F07A825A
:102270003BEF11F07A9212005EA041EF11F043EFB4
:1022800011F04DEF11F013C00AF014C00BF011C0A3
:102290000CF012C00DF015EC13F016BE52EF11F059
:1022A00054EF11F05AEF11F015C01AF016C01BF0E0
:1022B0005EEF11F0000E1B6E000E1A6E000E196E0E
:1022C000000E186E70EF11F0000E026E200E016EFF
:1022D00011C003F012C004F073EC10F0184A192A70
:1022E0001A50185C1950800A176E1B50800A175834
:1022F000D8A07DEF11F07FEF11F064EF11F05EB028
:1023000084EF11F086EF11F090EF11F013C00AF096
:1023100014C00BF011C00CF012C00DF015EC13F04E
:102320001200839C839482968294859685927B9CEE
:102330007B947A967A947D967D92050E056E0F0EAB
:10234000046EF10EE82EFED7042EFCD7052EFAD728
:1023500000F0030E16EC12F0F00EE82EFED7020E7F
:1023600016EC12F0F00EE82EFED7000E026E280ECC
:1023700074EC13F0F00EE82EFED7000E026E080E7D
:1023800074EC13F0F00EE82EFED7000E026E010E74
:1023900074EC13F02A0E046E8E0EE82EFED7042E77
:1023A000FCD7000E026E060E74EC13F0000E026EE7
:1023B0000C0E74EC13F01200000E0C6E000E0B6E7F
:1023C00009500A10D8B4E7EF11F0E9EF11F011EF5E
:1023D00012F0010E0D6EF1EF11F0D89009360A36A9
:1023E0000D2A0AAEF6EF11F0F8EF11F0EDEF11F053
:1023F000D8900B360C360950075C0A500858D8A004
:1024000004EF12F006EF12F00BEF12F00950075E26
:102410000A50085A0B80D8900A3209320D2EF8EF74
:1024200011F00BC007F00CC008F01200016E01A003
:102430001CEF12F01EEF12F021EF12F07A8622EF5D
:1024400012F07A9601A227EF12F029EF12F02CEF8A
:1024500012F07A842DEF12F07A9401A432EF12F088
:1024600034EF12F037EF12F07D8638EF12F07D96E0
:1024700001A63DEF12F03FEF12F042EF12F07D8225
:1024800043EF12F07D921DEC14F01A0EE82EFED7E9
:1024900000D0120009500A10D8B451EF12F053EFD7
:1024A00012F077EF12F0010E0B6E5BEF12F0D89086
:1024B00009360A360B2A0AAE60EF12F062EF12F00C
:1024C00057EF12F00950075C0A500858D8A06BEF7C
:1024D00012F06DEF12F071EF12F00950075E0A5022
:1024E000085AD8900A3209320B2E62EF12F007C058
:1024F00007F008C008F01200640E00016C6F000EB7
:102500006D6F60C06EF061C06FF0000E726F000EF4
:10251000716F000E786F000E776F6E0E546E000EA6
:10252000556E62C056F063C057F06C0E586E000EC8
:10253000596EA5EC12F0000171516025D96E7251EF
:102540006121DA6E000EDF6E120056C05AF057C0DD
:102550005BF0B9EF12F054C03FF055C040F05A0E96
:10256000416E000E426E58C043F059C044F097ECE3
:102570000BF05AC0F6FF5BC0F7FF000EF86E0800C4
:10258000F5500009D8A4C7EF12F0C9EF12F0ABEF75
:1025900012F0000E556E000E546E12005C0EF66EB8
:1025A000280EF76E000EF86E00EEE3F010EE04F069
:1025B0000900F5CFEEFFE550E150FAE101EE00F041
:1025C000200EEE6AE806FDE100EED1F0120EEE6A92
:1025D000E806FDE15E6A5D6A5C6A5F905F920001F9
:1025E0001BEF07F0010E056E200E01180210D8B483
:1025F000FCEF12F0FEEF12F011EF13F0F70E0124D2
:10260000036EFF0E0220046E045009E1050E035C08
:10261000D8A00DEF13F00FEF13F011EF13F0000E31
:10262000056E05C001F0026A1200000E106E000E69
:102630000F6E26EF13F00EC001F0026A0CC003F01B
:102640000DC004F073EC10F00F4A102A0F500A244A
:10265000D96E10500B20DA6EDF500E6E0E50D8A4DB
:1026600034EF13F036EF13F01BEF13F0120014BE2B
:1026700044EF13F0145006E11304D8B042EF13F006
:1026800044EF13F052EF13F013C015F014C016F01E
:10269000151E161E154A162A15C013F016C014F082
:1026A00056EF13F013C013F014C014F01200046EB0
:1026B0000404D8A45EEF13F060EF13F065EF13F09D
:1026C000000E026E800E74EC13F0020E0418D8A4F3
:1026D0006CEF13F06EEF13F073EF13F0000E026E59
:1026E000C00E74EC13F01200036E0250D8B47BEFEE
:1026F00013F07DEF13F080EF13F07B8C81EF13F07C
:102700007B9C03380F0B0F0B16EC12F003500F0BD2
:1027100016EC12F0A00E00D0E82EFDD712009CEFB0
:1027200013F0010E026E04C0D9FF05C0DAFFDF50BE
:1027300074EC13F0044A052A04C0D9FF05C0DAFF7F
:10274000DF50D8A4A6EF13F0A8EF13F091EF13F029
:102750001200D00E0124036EFF0E0220046E0450FE
:102760000AE10A0E035CD8A0B8EF13F0BBEF13F038
:10277000010EBCEF13F0000E016E026A1200015050
:102780000302F3CF05F0F4CF06F001500402F3503A
:10279000062602500302F350062605C001F006C0CB
:1027A00002F0120081860E01D251F80B0309D26F9C
:1027B000D351F80B0509D36FD083D089D183D18150
:1027C00013EC14F00E01D08F120087908792819441
:1027D000869C8198819A869082907F907F9279944E
:1027E0007E9C7998799A7E907A901200D6501F0B31
:1027F0004009D66ED688D650F00B0209D66ED58821
:102800000B0ED46E0B0ED36ED58E1200000E026E20
:10281000010E74EC13F02A0E046E8E0EE82EFED715
:10282000042EFCD71200F30E0E01C617C691C75135
:10283000E00B1B09C76FC68F12007B840A0EE82EBF
:10284000FED700D07B941200808688967C9E849E62
:1028500012000E01298BF28EF28C12000F0015006F
:02286000120064
:020000040020DA
:10000000FF0FFF0FFF0FFF0FFF0FFF0FFF0FFF0F80
:020000040030CA
:0C000000AAFFFFFF9FFFFFFFFFFFFFFFB5
:00000001FF
