:040000003DEF00F0E0
:100008001B820E0133AB0BEF00F00DEF00F014EF85
:1000180000F00B0ED46E0B0ED36E0F4A102A339BD2
:1000280035A119EF00F01BEF00F03BEF00F00D5089
:100038000E10D8B422EF00F024EF00F02FEF00F0FC
:100048000E5009E1050E0D5CD8A02DEF00F02FEF42
:1000580000F03AEF00F0D0AD34EF00F036EF00F0EA
:1000680039EF00F080863AEF00F0809635911B92C8
:10007800110083EF02F0C2EC02F0B1EC02F0E9ECFF
:1000880002F0B1EC02F09EEC02F0F2EC02F0D2ECDD
:1000980002F03C0E0F181010D8A455EF00F057EFDF
:1000A80000F07DEF00F00D4A0E2A000E106E000ED3
:1000B8000F6E180E0D180E10D8A465EF00F067EF3C
:1000C80000F07DEF00F0000E0E6E000E0D6E174A68
:1000D800182A070E17181810D8A475EF00F077EF34
:1000E80000F07BEF00F0000E186E000E176E134A3A
:1000F800142A0D500E10D8B484EF00F086EF00F0EB
:1001080092EF00F00E5007E1050E0D5CD8B08FEFAE
:1001180000F091EF00F092EF00F080960DC019F01A
:100128000EC01AF01FEC02F015041610D8B49FEF99
:1001380000F0A1EF00F0DDEF00F0030E1518161027
:10014800D8B4A9EF00F0ABEF00F0DDEF00F0050E3A
:1001580015181610D8B4B3EF00F0B5EF00F0DDEFC6
:1001680000F0070E15181610D8B4BDEF00F0BFEF59
:1001780000F0DDEF00F0080E15181610D8B4C7EF20
:1001880000F0C9EF00F0DDEF00F00A0E15181610A8
:10019800D8B4D1EF00F0D3EF00F0DDEF00F00C0E93
:1001A80015181610D8A4DBEF00F0DDEF00F0FBEF18
:1001B80000F0200E13181410D8A4E5EF00F0E7EFB4
:1001C80000F0FBEF00F0000E146E010E136E154ADE
:1001D800162A0D0E15181610D8A4F5EF00F0F7EF33
:1001E80000F0FBEF00F0000E166E010E156E040E07
:1001F80015181610D8B403EF01F005EF01F023EF3E
:1002080001F0060E15181610D8B40DEF01F00FEF17
:1002180001F023EF01F0090E15181610D8B417EFE6
:1002280001F019EF01F023EF01F00B0E151816106D
:10023800D8A421EF01F023EF01F043EF01F01F0EE6
:1002480013181410D8A42BEF01F02DEF01F043EF91
:1002580001F0000E146E010E136E154A162A0D0ECB
:1002680015181610D8A43BEF01F03DEF01F043EF4D
:1002780001F0000E166E010E156E43EF01F0000E30
:10028800046E000E036E17501810D8A44EEF01F03C
:1002980050EF01F084EF01F0030E15181610D8A4E2
:1002A80058EF01F05AEF01F084EF01F00D040E1041
:1002B800D8A461EF01F063EF01F084EF01F00F5073
:1002C8001010D8A46AEF01F06CEF01F084EF01F090
:1002D800145009E1190E135CD8A075EF01F077EFFF
:1002E80001F084EF01F0145007E1200E135CD8B040
:1002F80080EF01F082EF01F084EF01F00D4A0E2A41
:1003080017501810D8A48BEF01F08DEF01F0D2EF41
:1003180001F00A0E15181610D8A495EF01F097EF02
:1003280001F0D2EF01F0020E0D180E10D8A49FEFC5
:1003380001F0A1EF01F0D2EF01F00F501010D8A496
:10034800A8EF01F0AAEF01F0D2EF01F0145009E193
:10035800190E135CD8A0B3EF01F0B5EF01F0D2EF9E
:1003680001F0145007E1200E135CD8B0BEEF01F085
:10037800C0EF01F0D2EF01F001500210D8A4C7EF8E
:1003880001F0C9EF01F0D2EF01F00D06D8A00E067A
:10039800000E026E010E016E4DEF00F0175018109E
:1003A800D8A4D9EF01F0DBEF01F04DEF00F00A0E11
:1003B80015181610D8A4E3EF01F0E5EF01F04DEFA2
:1003C80000F0020E0D180E10D8A4EDEF01F0EFEFBB
:1003D80001F04DEF00F00F501010D8A4F6EF01F027
:1003E800F8EF01F04DEF00F0145009E1190E135C1D
:1003F800D8A001EF02F003EF02F04DEF00F0145027
:1004080007E1200E135CD8B00CEF02F00EEF02F0FB
:100418004DEF00F001040210D8A415EF02F017EF19
:1004280002F04DEF00F0000E026E000E016E4DEF6F
:1004380000F03DEF00F019A024EF02F026EF02F0E3
:1004480029EF02F07F802AEF02F07F9019A22FEFA8
:1004580002F031EF02F034EF02F07F8235EF02F064
:100468007F9219A43AEF02F03CEF02F03FEF02F05E
:10047800798440EF02F0799419A645EF02F047EF2E
:1004880002F04AEF02F07E8C4BEF02F07E9C19A836
:1004980050EF02F052EF02F055EF02F0798856EF74
:1004A80002F0799819AA5BEF02F05DEF02F060EFB5
:1004B80002F0798A61EF02F0799A19AC66EF02F0DE
:1004C80068EF02F06BEF02F07E806CEF02F07E9036
:1004D80019AE71EF02F073EF02F076EF02F07A8056
:1004E80077EF02F07A901AA07CEF02F07EEF02F02C
:1004F80081EF02F07A8282EF02F07A921200DC0E2B
:10050800F66E050EF76E000EF86E00EE11F010EEA6
:1005180008F00900F5CFEEFFE550E150FAE100EEF2
:1005280001F0100EEE6AE806FDE11B901B92000137
:100538003FEF00F081860E01D251F80B0309D26F0C
:10054800D351F80B0509D36FD083D089D183D181DA
:10055800DFEC02F00E01D08F120087908792819411
:10056800869C8198819A869082907F907F927994D8
:100578007E9C7998799A7E907A901200D6501F0BBB
:100588004009D66ED688D650F00B0209D66ED588AB
:100598000B0ED46E0B0ED36ED58E120081860E0113
:1005A80092870F015899FC0E5817030E5F6F6094DD
:1005B8006088608E1200F30E0E01C617C691C751EF
:1005C800E00B1B09C76FC68F12000E01298BF28E34
:1005D800F28C1200E60707000B000100808688965F
:0205E8001200FF
:020000040020DA
:10000000FF0FFF0FFF0FFF0FFF0FFF0FFF0FFF0F80
:020000040030CA
:0C000000AAFFFFFF9FFFFFFFFFFFFFFFB5
:00000001FF
