:0400000045EF00F0D8
:1000080008820E0133AB0BEF00F00DEF00F014EF98
:1000180000F00B0ED46E0B0ED36E034A042A339BEA
:1000280035A119EF00F01BEF00F043EF00F001508D
:100038000210D8B422EF00F024EF00F02FEF00F008
:10004800025009E1050E015CD8A02DEF00F02FEF5A
:1000580000F041EF00F080A634EF00F038EF00F038
:10006800056A052A39EF00F0056A05460546054682
:1000780080500518F70B0518806E0E01359108920F
:1000880011002CEF01F006A04CEF00F04EEF00F04D
:1000980051EF00F07F8052EF00F07F9006A257EFFB
:1000A80000F059EF00F05CEF00F07F825DEF00F0A8
:1000B8007F9206A462EF00F064EF00F067EF00F0B3
:1000C800798468EF00F0799406A66DEF00F06FEF81
:1000D80000F072EF00F07E8C73EF00F07E9C06A8B3
:1000E80078EF00F07AEF00F07DEF00F079887EEF8E
:1000F80000F0799806AA83EF00F085EF00F088EF0A
:1001080000F0798A89EF00F0799A06AC8EEF00F05A
:1001180090EF00F093EF00F07E8094EF00F07E9077
:1001280006AE99EF00F09BEF00F09EEF00F07A80AA
:100138009FEF00F07A9007A0A4EF00F0A6EF00F080
:10014800A9EF00F07A82AAEF00F07A92120005EC8B
:1001580001F0F4EC00F035EC01F0F4EC00F0E1EC27
:1001680000F03AEC01F015EC01F03C0E0318041015
:10017800D8A4C1EF00F0C3EF00F0D7EF00F0014AB8
:10018800022A000E046E000E036E180E01180210EB
:10019800D8A4D1EF00F0D3EF00F0D7EF00F0000EB5
:1001A800026E000E016E01C006F002C007F047ECB7
:1001B80000F0B9EF00F045EF00F081860E01D25152
:1001C800F80B0309D26FD351F80B0509D36FD0830D
:1001D800D089D183D18122EC01F00E01D08F120099
:1001E800879087928194869C8198819A8690829044
:1001F8007F907F9279947E9C7998799A7E907A9074
:100208001200D6501F0B4009D66ED688D650F00B78
:100218000209D66ED5880B0ED46E0B0ED36ED58E12
:10022800120081860E0192870F015899FC0E58170B
:10023800030E5F6F60946088608E1200F30E0E01EB
:10024800C617C691C751E00B1B09C76FC68F1200AE
:10025800046A036A026A016A089008920001ABEF17
:1002680000F00E01298BF28EF28C1200809688968F
:02027800120072
:020000040020DA
:10000000FF0FFF0FFF0FFF0FFF0FFF0FFF0FFF0F80
:020000040030CA
:0C000000AAFFFFFF9FFFFFFFFFFFFFFFB5
:00000001FF
