:0400000023EF00F0FA
:1000080006820E0135A10BEF00F00DEF00F021EF95
:1000180000F080A612EF00F016EF00F0016A012A46
:1000280017EF00F0016A01460146014680500118A9
:10003800F70B0118806E0E01359106921100A7EF9B
:1000480000F002A02AEF00F02CEF00F02FEF00F0F4
:100058007F8030EF00F07F9002A235EF00F037EF9D
:1000680000F03AEF00F07F823BEF00F07F9202A4AD
:1000780040EF00F042EF00F045EF00F0798446EFE2
:1000880000F0799402A64BEF00F04DEF00F050EF2E
:1000980000F07E8C51EF00F07E9C02A856EF00F035
:1000A80058EF00F05BEF00F079885CEF00F079988A
:1000B80002AA61EF00F063EF00F066EF00F0798AC2
:1000C80067EF00F0799A02AC6CEF00F06EEF00F089
:1000D80071EF00F07E8072EF00F07E9002AE77EF55
:1000E80000F079EF00F07CEF00F07A807DEF00F00F
:1000F8007A901200B8EC00F0C9EC00F0D9EC00F0EE
:1001080094EC00F0F0EC00F0F6EC00F0000E036E5A
:10011800050E026E25EC00F08AEF00F023EF00F0E8
:1001280081860E01D251F80B0309D26FD351F80B17
:100138000509D36FD083D089D183D181E6EC00F053
:100148000E01D08F1200F20EF66E010EF76E000E41
:10015800F86E0900F5CF04F00900F5CF05F0069018
:10016800069200017EEF00F0879087928194869C2A
:100178008198819A869082907F907F9279947E9CD4
:100188007998799A7E907A901200D6501F0B400980
:10019800D66ED688D650F00B0809D66ED5880B0EC9
:1001A800D46EDB0ED36ED58E120081860E01928737
:1001B8000F015899FC0E5817030E5F6F6094608802
:1001C800608E1200F30E0E01C617C691C751E00BE0
:1001D8001B09C76FC68F12000E012B812181F28C7B
:0C01E800F28E120080968896120005002E
:020000040020DA
:10000000FF0FFF0FFF0FFF0FFF0FFF0FFF0FFF0F80
:020000040030CA
:0C000000AAFFFFFF9FFFFFFFFFFFFFFFB5
:00000001FF
