:040000005FEF00F0BE
:100008003A820E0133AB0BEF00F00DEF00F014EF66
:1000180000F00B0ED46E0B0ED36E364A372A339B84
:1000280035A119EF00F01BEF00F05DEF00F0D0BD37
:1000380020EF00F022EF00F02DEF00F038C030F094
:1000480039C031F036C02EF037C02FF080965CEF03
:1000580000F0D0AD32EF00F034EF00F05CEF00F0CC
:1000680038C02CF039C02DF036C02AF037C02BF03C
:1000780038503910D8B443EF00F045EF00F050EF96
:1000880000F0395009E1050E385CD8A04EEF00F0B9
:1000980050EF00F05CEF00F0D0AD55EF00F057EFF7
:1000A80000F05AEF00F080865BEF00F080968086C3
:0A00B80035913A9211005AEF0BF057
:100E000000566F6C74616765203D2025642E253087
:100E100032640000000E236E020E226E000E216E60
:100E20000B0E206E000E256E1D0E246E070E1B6E1F
:100E3000E60E1A6E000E1F6E000E1E6E000E1D6E68
:100E4000000E1C6E4AEC0BF039EC0BF080EC0BF052
:100E500039EC0BF026EC0BF085EC0BF069EC0BF0A9
:100E60003C0E36183710D8A438EF07F03AEF07F0E9
:100E700007EF08F0384A392A000E376E000E366E3A
:100E8000180E38183910D8A448EF07F04AEF07F0C9
:100E900007EF08F0000E396E000E386E224A232A42
:100EA000244A252A20C00CF021C00DF024C00EF0E9
:100EB00025C00FF01AC010F01BC011F01EEC09F095
:100EC0000CC024F00DC025F0070E22182310D8A462
:100ED0006CEF07F06EEF07F072EF07F0000E236E75
:100EE000000E226E2E502A5C2F502B58D8A07BEF7C
:100EF00007F07DEF07F08BEF07F02E502A5C326E83
:100F00002F502B58336E30502C5C346E31502D588E
:100F1000356EA3EF07F02E502A5C166E2F502B581B
:100F2000176E3C0E1624326E000E1720336E3050B2
:100F30002C5C166E31502D58176EFF0E1624346E31
:100F4000FF0E1720356E30C001F031C002F0000EE8
:100F5000046E3C0E036E13EC0BF001C016F002C0E1
:100F600017F034C001F035C002F0000E046E3C0EE4
:100F7000036E13EC0BF001501624186E025017206C
:100F8000196E2E5018262F50192232501824076E31
:100F900033501920086E000E0A6E3C0E096EA7EC45
:100FA0000AF007C028F008C029F030C001F031C0B5
:100FB00002F0000E046E3C0E036E13EC0BF001C049
:100FC00016F002C017F034C001F035C002F0000E78
:100FD000046E3C0E036E13EC0BF001501624186ED9
:100FE00002501720196E2E5018262F5019223250F9
:100FF0001824076E33501920086E000E0A6E3C0E3E
:10100000096EE1EC0AF007C026F008C027F038505E
:101010003910D8B40EEF08F010EF08F020EF08F008
:10102000395007E1050E385CD8B019EF08F01BEF16
:1010300008F020EF08F08096000E1D6E010E1C6E69
:10104000050E38183910D8A428EF08F02AEF08F058
:1010500040EF08F01C041D10D8A431EF08F033EF66
:1010600008F040EF08F00E01D0AD39EF08F03BEF8B
:1010700008F040EF08F08086000E1D6E000E1C6E1A
:1010800038C001F039C002F043EC0AF022502310BE
:10109000D8A44DEF08F04FEF08F083EF08F0030EEF
:1010A00020182110D8A457EF08F059EF08F083EF6B
:1010B00008F038043910D8A460EF08F062EF08F0A7
:1010C00083EF08F036503710D8A469EF08F06BEFC3
:1010D00008F083EF08F0255009E1190E245CD8A030
:1010E00074EF08F076EF08F083EF08F0255007E181
:1010F000200E245CD8B07FEF08F081EF08F083EF7A
:1011000008F0384A392A22502310D8A48AEF08F070
:101110008CEF08F0D1EF08F00A0E20182110D8A4A7
:1011200094EF08F096EF08F0D1EF08F0020E3818AF
:101130003910D8A49EEF08F0A0EF08F0D1EF08F026
:1011400036503710D8A4A7EF08F0A9EF08F0D1EF78
:1011500008F0255009E1190E245CD8A0B2EF08F080
:10116000B4EF08F0D1EF08F0255007E1200E245C21
:10117000D8B0BDEF08F0BFEF08F0D1EF08F01E5077
:101180001F10D8A4C6EF08F0C8EF08F0D1EF08F0A0
:101190003806D8A03906000E1F6E010E1E6E30EF05
:1011A00007F022502310D8A4D8EF08F0DAEF08F0A7
:1011B00030EF07F00A0E20182110D8A4E2EF08F053
:1011C000E4EF08F030EF07F0020E38183910D8A419
:1011D000ECEF08F0EEEF08F030EF07F03650371084
:1011E000D8A4F5EF08F0F7EF08F030EF07F025503E
:1011F00009E1190E245CD8A000EF09F002EF09F014
:1012000030EF07F0255007E1200E245CD8B00BEF3B
:1012100009F00DEF09F030EF07F01E041F10D8A4FD
:1012200014EF09F016EF09F030EF07F0000E1F6E13
:10123000000E1E6E30EF07F05FEF00F00C040D1093
:10124000D8B425EF09F027EF09F063EF09F0030E9A
:101250000C180D10D8B42FEF09F031EF09F063EF3F
:1012600009F0050E0C180D10D8B439EF09F03BEF5A
:1012700009F063EF09F0070E0C180D10D8B443EF16
:1012800009F045EF09F063EF09F0080E0C180D1096
:10129000D8B44DEF09F04FEF09F063EF09F00A0EF3
:1012A0000C180D10D8B457EF09F059EF09F063EF9F
:1012B00009F00C0E0C180D10D8A461EF09F063EFC3
:1012C00009F083EF09F0200E0E180F10D8A46BEF71
:1012D00009F06DEF09F083EF09F0000E0F6E010EBB
:1012E0000E6E0C4A0D2A0D0E0C180D10D8A47BEFB3
:1012F00009F07DEF09F083EF09F0000E0D6E010E8D
:101300000C6E104A112A040E0C180D10D8B48BEF75
:1013100009F08DEF09F0ABEF09F0060E0C180D1077
:10132000D8B495EF09F097EF09F0ABEF09F0090E8B
:101330000C180D10D8B49FEF09F0A1EF09F0ABEF36
:1013400009F00B0E0C180D10D8A4A9EF09F0ABEFA3
:1013500009F0BBEF09F01F0E0E180F10D8A4B3EF61
:1013600009F0B5EF09F0BBEF09F0000E0F6E010EAA
:101370000E6E0C4A0D2A030E1014126E000E11147C
:10138000136E12501310D8A4C8EF09F0CAEF09F079
:10139000DDEF09F010C007F011C008F0000E0A6E72
:1013A000640E096EE1EC0AF007500810D8A4DBEFD8
:1013B00009F0DDEF09F0F0EF09F010C007F011C0FF
:1013C00008F0010E0A6E900E096EE1EC0AF007506B
:1013D0000810D8A4EEEF09F0F0EF09F0F6EF09F0ED
:1013E000000E156E010E146EFAEF09F0000E156E68
:1013F000000E146E020E0C180D10D8A402EF0AF0A5
:1014000004EF0AF03EEF0AF014041510D8A40BEF15
:101410000AF00DEF0AF03EEF0AF01E0E0E180F1044
:10142000D8A415EF0AF017EF0AF01FEF0AF0000E2C
:101430000F6E010E0E6E0C4A0D2A3EEF0AF0020EE0
:101440000C180D10D8A427EF0AF029EF0AF03EEF90
:101450000AF014501510D8A430EF0AF032EF0AF059
:101460003EEF0AF01D0E0E180F10D8A43AEF0AF046
:101470003CEF0AF03EEF0AF017EF0AF00EC00CF056
:101480000FC00DF0120001A048EF0AF04AEF0AF079
:101490004DEF0AF07F804EEF0AF07F9001A253EFEC
:1014A0000AF055EF0AF058EF0AF07F8259EF0AF080
:1014B0007F9201A45EEF0AF060EF0AF063EF0AF09A
:1014C000798464EF0AF0799401A669EF0AF06BEF72
:1014D0000AF06EEF0AF07E8C6FEF0AF07E9C01A896
:1014E00074EF0AF076EF0AF079EF0AF079887AEF74
:1014F0000AF0799801AA7FEF0AF081EF0AF084EFF1
:101500000AF0798A85EF0AF0799A01AC8AEF0AF03D
:101510008CEF0AF08FEF0AF07E8090EF0AF07E9059
:1015200001AE95EF0AF097EF0AF09AEF0AF07A8091
:101530009BEF0AF07A9002A0A0EF0AF0A2EF0AF067
:10154000A5EF0AF07A82A6EF0AF07A921200000E56
:101550000C6E000E0B6E09500A10D8B4B2EF0AF0F0
:10156000B4EF0AF0DCEF0AF0010E0D6EBCEF0AF0EA
:10157000D89009360A360D2A0AAEC1EF0AF0C3EF39
:101580000AF0B8EF0AF0D8900B360C360950075C19
:101590000A500858D8A0CFEF0AF0D1EF0AF0D6EFE2
:1015A0000AF00950075E0A50085A0B80D8900A3298
:1015B00009320D2EC3EF0AF00BC007F00CC008F083
:1015C000120009500A10D8B4E8EF0AF0EAEF0AF066
:1015D0000EEF0BF0010E0B6EF2EF0AF0D890093609
:1015E0000A360B2A0AAEF7EF0AF0F9EF0AF0EEEF2F
:1015F0000AF00950075C0A500858D8A002EF0BF017
:1016000004EF0BF008EF0BF00950075E0A50085A80
:10161000D8900A3209320B2EF9EF0AF007C007F012
:1016200008C008F0120001500302F3CF05F0F4CF18
:1016300006F001500402F350062602500302F35054
:10164000062605C001F006C002F0120081860E01D8
:10165000D251F80B0309D26FD351F80B0509D36FA0
:10166000D083D089D183D18176EC0BF00E01D08F5D
:101670001200879087928194869C8198819A8690A7
:1016800082907F907F9279947E9C7998799A7E90CF
:101690007A901200D6501F0B4009D66ED688D650CD
:1016A000F00B0209D66ED5880B0ED46E0B0ED36EDE
:1016B000D58E120000EE26F0140EEE6AE806FDE16B
:1016C0003A903A92000EF86E0E0EF76E00010AEF95
:1016D00007F081860E0192870F015899FC0E58176A
:1016E000030E5F6F60946088608E1200F30E0E012F
:1016F000C617C691C751E00B1B09C76FC68F1200F2
:101700000E01298BF28EF28C1200808688961200D0
:020000040020DA
:10000000FF0FFF0FFF0FFF0FFF0FFF0FFF0FFF0F80
:020000040030CA
:0C000000AAFFFFFF9FFFFFFFFFFFFFFFB5
:00000001FF
