:0400000012EF00F00B
:1000080005820E0133AB0BEF00F00DEF00F010EF9F
:1000180000F0014A022A339B05921100CEEF00F04E
:1000280003A019EF00F01BEF00F01EEF00F07F8037
:100038001FEF00F07F9003A224EF00F026EF00F0FE
:1000480029EF00F07F822AEF00F07F9203A42FEFC0
:1000580000F031EF00F034EF00F0798435EF00F074
:10006800799403A63AEF00F03CEF00F03FEF00F080
:100078007E8C40EF00F07E9C03A845EF00F047EF30
:1000880000F04AEF00F079884BEF00F0799803AA66
:1000980050EF00F052EF00F055EF00F0798A56EF7C
:1000A80000F0799A03AC5BEF00F05DEF00F060EFD1
:1000B80000F07E8061EF00F07E9003AE66EF00F006
:1000C80068EF00F06BEF00F07A806CEF00F07A9048
:1000D800120096EC00F0A7EC00F0B7EC00F083EC0F
:1000E80000F0D5EC00F0DBEC00F0000E046E050E1D
:1000F800036E14EC00F079EF00F012EF00F0818647
:100108000E01D251F80B0309D26FD351F80B050930
:10011800D36FD083D089D183D181C4EC00F00E0194
:10012800D08F1200879087928194869C8198819ABB
:10013800869082907F907F9279947E9C7998799A24
:100148007E907A901200D6501F0B4009D66ED68842
:10015800D650F00B0809D66ED5880B0ED46EDB0E80
:10016800D36ED58E120081860E0192870F015899A1
:10017800FC0E5817030E5F6F60946088608E120043
:10018800F30E0E01C617C691C751E00B1B09C76FC6
:10019800C68F1200026A016A0590059200016DEF90
:1001A80000F00E012B812181F28CF28E12008086E4
:0401B8008896120013
:020000040020DA
:10000000FF0FFF0FFF0FFF0FFF0FFF0FFF0FFF0F80
:020000040030CA
:0C000000AAFFFFFF9FFFFFFFFFFFFFFFB5
:00000001FF
