:0400000064EF00F0B9
:100008005F820E0133AB0BEF00F00DEF00F016EF3F
:1000180000F00B0ED46E0B0ED36E0001DD4BDE2B01
:100028000E01339B35A11BEF00F01DEF00F062EFCE
:1000380000F0D0BD22EF00F024EF00F02FEF00F029
:10004800DFC0D7F0E0C0D8F0DDC0D5F0DEC0D6F014
:10005800809660EF00F0D0AD34EF00F036EF00F09E
:1000680060EF00F0DFC0D3F0E0C0D4F0DDC0D1F025
:10007800DEC0D2F00001DF51E011D8B446EF00F045
:1000880048EF00F053EF00F0E05109E1050EDF5DA5
:10009800D8A051EF00F053EF00F060EF00F00E0130
:1000A800D0AD59EF00F05BEF00F05EEF00F0808616
:1000B8005FEF00F0809680860E0135915F92110007
:0400C80008EF13F03A
:100E000000566F6C74616765203D2025642E253087
:100E100032640067657476616C203D20256400258E
:100E200064202F2025640000000E0001C66F020E12
:100E3000C56F000EC86F020EC76F000ECA6F1B0E83
:100E4000C96F070EC46FE40EC36F000EC26F000EB1
:100E5000C16F000EC06F000EBF6F53EC13F042EC79
:100E600013F08EEC13F042EC13F02FEC13F093EC34
:100E700013F070EC13F0FEEC10F0010EA0EC12F089
:100E8000790E0001606F000E616F1F0E626F0E0E13
:100E9000636FC9C064F0CAC065F0C7C066F0C8C05F
:100EA00067F0E9EC11F0790E046E000E056ED8ECD7
:100EB00012F0020EA0EC12F0AB0E0001606F000EFB
:100EC000616F1F0E626F0E0E636FC5C064F0C6C007
:100ED00065F0C3C066F0C4C067F0E9EC11F0AB0E7A
:100EE000046E000E056ED8EC12F03C0E0001DD1908
:100EF000DE11D8A47EEF07F080EF07F04FEF08F087
:100F0000DF4BE02B000EDE6F000EDD6F180EDF19D9
:100F1000E011D8A48EEF07F090EF07F04FEF08F044
:100F2000000EE06F000EDF6FC54BC62BC94BCA2BFE
:100F3000C70E0C6E000E0D6EC90E0E6E000E0F6EFB
:100F4000C30E106E000E116E69EC09F0070E000161
:100F5000C519C611D8A4AFEF07F0B1EF07F0B5EF90
:100F600007F0000EC66F000EC56F63EC13F00001B2
:100F7000D551D15DD651D259D8A0C1EF07F0C3EFFA
:100F800007F0D1EF07F0D551D15DD96FD651D259C5
:100F9000DA6FD751D35DDB6FD851D459DC6FE9EFED
:100FA00007F0D551D15D756FD651D259766F3C0E91
:100FB0007525D96F000E7621DA6FD751D35D756F25
:100FC000D851D459766FFF0E7525DB6FFF0E762151
:100FD000DC6FD7C001F0D8C002F0000E046E3C0EEA
:100FE000036E1CEC13F001C075F002C076F0DBC09C
:100FF00001F0DCC002F0000E046E3C0E036E1CEC2F
:1010000013F0015000017525776F02507621786F3B
:10101000D5517727D6517823D9517725076EDA51E4
:101020007821086E000E0A6E3C0E096E49EC11F034
:1010300007C0CFF008C0D0F0D7C001F0D8C002F090
:10104000000E046E3C0E036E1CEC13F001C075F034
:1010500002C076F0DBC001F0DCC002F0000E046ECE
:101060003C0E036E1CEC13F0015000017525776FE8
:1010700002507621786FD5517727D6517823D951F0
:101080007725076EDA517821086E000E0A6E3C0E45
:10109000096EB7EC11F007C0CDF008C0CEF000012A
:1010A000DF51E011D8B457EF08F059EF08F069EFBD
:1010B00008F0E05107E1050EDF5DD8B062EF08F0FF
:1010C00064EF08F069EF08F08096000EC06F010E23
:1010D000BF6F050EDF19E011D8A471EF08F073EFB0
:1010E00008F08AEF08F0BF05C011D8A47AEF08F025
:1010F0007CEF08F08AEF08F00E01D0AD82EF08F027
:1011000084EF08F08AEF08F08086000E0001C06FBF
:10111000000EBF6FDFC001F0E0C002F045EC10F040
:101120000001C551C611D8A498EF08F09AEF08F055
:10113000CEEF08F0030EC719C811D8A4A2EF08F02B
:10114000A4EF08F0CEEF08F0DF05E011D8A4ABEF74
:1011500008F0ADEF08F0CEEF08F0DD51DE11D8A4B5
:10116000B4EF08F0B6EF08F0CEEF08F0CA5109E18D
:10117000190EC95DD8A0BFEF08F0C1EF08F0CEEF9F
:1011800008F0CA5107E1200EC95DD8B0CAEF08F0D7
:10119000CCEF08F0CEEF08F0DF4BE02BC551C611C5
:1011A000D8A4D5EF08F0D7EF08F01CEF09F00A0E2D
:1011B000C719C811D8A4DFEF08F0E1EF08F01CEF61
:1011C00009F0020EDF19E011D8A4E9EF08F0EBEF07
:1011D00008F01CEF09F0DD51DE11D8A4F2EF08F0A1
:1011E000F4EF08F01CEF09F0CA5109E1190EC95DCE
:1011F000D8A0FDEF08F0FFEF08F01CEF09F0CA518E
:1012000007E1200EC95DD8B008EF09F00AEF09F038
:101210001CEF09F0C151C211D8A411EF09F013EF6E
:1012200009F01CEF09F0DF07D8A0E007000EC26F3D
:10123000010EC16F3DEF07F0C551C611D8A423EFD1
:1012400009F025EF09F03DEF07F00A0EC719C811A4
:10125000D8A42DEF09F02FEF09F03DEF07F0020EB3
:10126000DF19E011D8A437EF09F039EF09F03DEFAD
:1012700007F0DD51DE11D8A440EF09F042EF09F08C
:101280003DEF07F0CA5109E1190EC95DD8A04BEF37
:1012900009F04DEF09F03DEF07F0CA5107E1200ECC
:1012A000C95DD8B056EF09F058EF09F03DEF07F0EF
:1012B000C105C211D8A45FEF09F061EF09F03DEF5D
:1012C00007F0000EC26F000EC16F3DEF07F064EF34
:1012D00000F00CC0D9FF0DC0DAFFDE04DE10D8B478
:1012E00074EF09F076EF09F0CAEF09F00CC0D9FFEE
:1012F0000DC0DAFF030EDE18DE10D8B482EF09F05D
:1013000084EF09F0CAEF09F00CC0D9FF0DC0DAFF75
:10131000050EDE18DE10D8B490EF09F092EF09F058
:10132000CAEF09F00CC0D9FF0DC0DAFF070EDE18B6
:10133000DE10D8B49EEF09F0A0EF09F0CAEF09F073
:101340000CC0D9FF0DC0DAFF080EDE18DE10D8B4CD
:10135000ACEF09F0AEEF09F0CAEF09F00CC0D9FF0D
:101360000DC0DAFF0A0EDE18DE10D8B4BAEF09F0AD
:10137000BCEF09F0CAEF09F00CC0D9FF0DC0DAFFCD
:101380000C0EDE18DE10D8A4C8EF09F0CAEF09F081
:1013900004EF0AF00EC0D9FF0FC0DAFF200EDE18EE
:1013A000DE10D8A4D6EF09F0D8EF09F004EF0AF068
:1013B0000EC0D9FF0FC0DAFF010EDE6E000EDD6E2B
:1013C0000CC0D9FF0DC0DAFFDE2A000EDD220CC0F2
:1013D000D9FF0DC0DAFF0D0EDE18DE10D8A4F3EF32
:1013E00009F0F5EF09F004EF0AF00CC0D9FF0DC0C9
:1013F000DAFF010EDE6E000EDD6E10C0D9FF11C0E7
:10140000DAFFDE2A000EDD220CC0D9FF0DC0DAFFA4
:10141000040EDE18DE10D8B410EF0AF012EF0AF056
:101420003CEF0AF00CC0D9FF0DC0DAFF060EDE1843
:10143000DE10D8B41EEF0AF020EF0AF03CEF0AF0FD
:101440000CC0D9FF0DC0DAFF090EDE18DE10D8B4CB
:101450002CEF0AF02EEF0AF03CEF0AF00CC0D9FF97
:101460000DC0DAFF0B0EDE18DE10D8A43AEF0AF03A
:101470003CEF0AF059EF0AF00EC0D9FF0FC0DAFFB7
:101480001F0EDE18DE10D8A448EF0AF04AEF0AF06B
:1014900059EF0AF00EC0D9FF0FC0DAFF010EDE6E61
:1014A000000EDD6E0CC0D9FF0DC0DAFFDE2A000E83
:1014B000DD2210C0D9FF11C0DAFFDECF12F0DDCF80
:1014C00013F0030E1216000E131612501310D8A4A8
:1014D0006CEF0AF06EEF0AF085EF0AF010C0D9FF4A
:1014E00011C0DAFFDECF07F0DDCF08F0000E0A6E84
:1014F000640E096EB7EC11F007500810D8A483EF02
:101500000AF085EF0AF09CEF0AF010C0D9FF11C075
:10151000DAFFDECF07F0DDCF08F0010E0A6E900E85
:10152000096EB7EC11F007500810D8A49AEF0AF032
:101530009CEF0AF0A2EF0AF0000E156E010E146E79
:10154000A6EF0AF0000E156E000E146E0CC0D9FF47
:101550000DC0DAFF020EDE18DE10D8A4B2EF0AF0DA
:10156000B4EF0AF0DCEF0AF014041510D8A4BBEFB6
:101570000AF0BDEF0AF0DCEF0AF00EC0D9FF0FC091
:10158000DAFF1E0EDE18DE10D8A4C9EF0AF0CBEF8A
:101590000AF003EF0BF00EC0D9FF0FC0DAFF010E07
:1015A000DE6E000EDD6E0CC0D9FF0DC0DAFFDE2A44
:1015B000000EDD2203EF0BF00CC0D9FF0DC0DAFFE7
:1015C000020EDE18DE10D8A4E8EF0AF0EAEF0AF007
:1015D00003EF0BF014501510D8A4F1EF0AF0F3EF5D
:1015E0000AF003EF0BF00EC0D9FF0FC0DAFF1D0E9B
:1015F000DE18DE10D8A4FFEF0AF001EF0BF003EFC6
:101600000BF0CBEF0AF0120041C0D9FF42C0DAFF65
:10161000DECFF6FFDDCFF7FF000EF86E0800F550C5
:10162000250AD8A416EF0BF018EF0BF04AEF0CF0D8
:1016300041C0D9FF42C0DAFFDE2A000EDD22000ED3
:101640000001CC6F000ECB6FCBC05EF05C685D68B4
:10165000000E516E000E506E5AEF0BF05E8241C0CC
:10166000D9FF42C0DAFFDE2A000EDD225AEF0BF06E
:10167000000E516E010E506E5AEF0BF041C0D9FFB3
:1016800042C0DAFFDECFF6FFDDCFF7FF000EF86EC7
:101690000800F550456E466A4650000AD8B453EF2C
:1016A0000BF038EF0BF04550300AD8B42EEF0BF0AA
:1016B00038EF0BF050505110D8B461EF0BF063EFDE
:1016C0000BF03EEF0BF041C0D9FF42C0DAFFDECF96
:1016D000F6FFDDCFF7FF000EF86E0800F5502A0A7E
:1016E000D8A475EF0BF077EF0BF0A1EF0BF041C032
:1016F000D9FF42C0DAFFDE2A000EDD2243C0D9FF47
:1017000044C0DAFFDFCF45F0020EDE26DFCF46F021
:10171000000EDD2245C0D9FF46C0DAFFDECFCBF098
:10172000DDCFCCF00001CCBF9AEF0BF098EF0BF0BF
:10173000D6EF0BF05E80CB6DCC1FD8B0CC2BD6EFA4
:101740000BF041C0D9FF42C0DAFFDECF07F0DDCF9A
:1017500008F031EC0FF007C0CBF008C0CCF0B8EFC8
:101760000BF041C0D9FF42C0DAFFDE2A000EDD22B5
:1017700041C0D9FF42C0DAFFDECFF6FFDDCFF7FF71
:10178000000EF86E0800F5CF45F0D00E4524466EE9
:10179000476AFF0E4722475009E10A0E465CD8A06F
:1017A000D4EF0BF0D6EF0BF0B1EF0BF041C0D9FF47
:1017B00042C0DAFFDECF52F0DDCF53F052C0F6FF69
:1017C00053C0F7FF000EF86E0800F550640AD8B455
:1017D000ECEF0BF0EEEF0BF0FEEF0BF052C0F6FF6C
:1017E00053C0F7FF000EF86E0800F550690AD8A440
:1017F000FCEF0BF0FEEF0BF041EF0CF043C0D9FF14
:1018000044C0DAFFDFCF45F0020EDE26DFCF46F020
:10181000000EDD2245C0D9FF46C0DAFFDECF48F01A
:10182000DDCF49F0000E49BEFF0E4A6E4B6E4C6E86
:101830004D6E4E6E4F6E010E5224456E000E5320BB
:10184000466E41C0D9FF42C0DAFF45C0DEFF46C048
:10185000DDFF3FC01CF040C01DF048C01EF049C075
:101860001FF04AC020F04BC021F04CC022F04DC008
:1018700023F04EC024F04FC025F061EC0CF060EF77
:101880000CF041C0D9FF42C0DAFFDE2A000EDD2293
:1018900060EF0CF041C0D9FF42C0DAFFDECFF6FFA7
:1018A000DDCFF7FF000EF86E0800F550016E026AFA
:1018B0003FC003F040C004F0E0EC0FF041EF0CF04B
:1018C00012001EC034F01FC035F020C036F021C019
:1018D00037F022C038F023C039F024C03AF025C0D8
:1018E0003BF03BBE76EF0CF079EF0CF0010E7AEF97
:1018F0000CF0000E3E6E3E50D8B481EF0CF083EF3A
:101900000CF093EF0CF03B1E3A1E391E381E371EAA
:10191000361E351E346C000E352236223722382210
:1019200039223A223B225DBE98EF0CF09AEF0CF080
:101930009BEF0CF05E925DBEA8EF0CF05D5006E1EF
:101940005C04D8B0A6EF0CF0A8EF0CF0AEEF0CF0F2
:10195000000E316E010E306EB2EF0CF05CC030F054
:101960005DC031F0CBC032F0CCC033F03E50D8B4C3
:10197000BCEF0CF0BEEF0CF0D5EF0CF03206D8A0A7
:1019800033063E50D8A4C7EF0CF0C9EF0CF0CFEFF0
:101990000CF0000E2F6E2B0E2E6ED3EF0CF0000EFF
:1019A0002F6E2D0E2E6E2EC03EF0000E3D6E1F0EC1
:1019B0003C6E000E01011F6F5AEF0DF03C06D8A0DF
:1019C0003D06000E3C24D96E010E3D20DA6E34C077
:1019D00001F035C002F036C003F037C004F038C063
:1019E00005F039C006F03AC007F03BC008F00A0E17
:1019F000096E000E0A6E000E0B6E000E0C6E000ECD
:101A00000D6E000E0E6E000E0F6E000E106E7FEC4F
:101A10000EF001C026F002C027F003C028F004C079
:101A200029F005C02AF006C02BF007C02CF008C032
:101A30002DF026C013F027C014F080EC12F01350E4
:101A4000300FDF6E3006D8A031063206D8A033063C
:101A500034C001F035C002F036C003F037C004F0E6
:101A600038C005F039C006F03AC007F03BC008F0B6
:101A70000A0E096E000E0A6E000E0B6E000E0C6E42
:101A8000000E0D6E000E0E6E000E0F6E000E106E2C
:101A9000BBEC0DF001C034F002C035F003C036F0ED
:101AA00004C037F005C038F006C039F007C03AF07E
:101AB00008C03BF03DBE65EF0DF03D5008E13C0431
:101AC000D8A065EF0DF067EF0DF097EF0DF03450F3
:101AD000351036103710381039103A103B10D8A492
:101AE00074EF0DF076EF0DF0DEEF0CF031BE83EF0A
:101AF0000DF0315006E13004D8B081EF0DF083EFE6
:101B00000DF0DEEF0CF033BE8EEF0DF0335008E138
:101B10003204D8A08EEF0DF090EF0DF097EF0DF09E
:101B20005EB295EF0DF097EF0DF0DEEF0CF03E504A
:101B3000D8B49DEF0DF09FEF0DF0AAEF0DF03C062D
:101B4000D8A03D06000E3C24D96E010E3D20DA6E71
:101B50003EC0DFFF1CC011F01DC012F0000E3C247F
:101B6000136E010E3D20146E32C015F033C016F016
:101B7000A9EC10F01200000E126E10BEC4EF0DF0B2
:101B8000C2EF0DF0D6EF0DF0101E0F1E0E1E0D1E33
:101B90000C1E0B1E0A1E096C000E0A220B220C22C0
:101BA0000D220E220F221022010E126E08BEDDEF52
:101BB0000DF0DBEF0DF0EFEF0DF0081E071E061E17
:101BC000051E041E031E021E016C000E02220322CB
:101BD00004220522062207220822010E121A20EEF4
:101BE00013F0070EDE6AE806FDE209500A100B103A
:101BF0000C100D100E100F101010D8B402EF0EF0D4
:101C000004EF0EF056EF0EF0010E116E12EF0EF013
:101C1000D89009360A360B360C360D360E360F368E
:101C20001036112A10AE17EF0EF019EF0EF008EF74
:101C30000EF0D89013361436153616361736183679
:101C400019361A360950015C0A5002580B500358D5
:101C50000C5004580D5005580E5006580F50075898
:101C600010500858D8A037EF0EF039EF0EF04AEFB9
:101C70000EF00950015E0A50025A0B50035A0C50E4
:101C8000045A0D50055A0E50065A0F50075A10505C
:101C9000085A1380D89010320F320E320D320C32A7
:101CA0000B320A320932112E19EF0EF01250D8B44D
:101CB0005CEF0EF05EEF0EF06EEF0EF01A1E191EC6
:101CC000181E171E161E151E141E136C000E14224D
:101CD000152216221722182219221A2213C001F0E7
:101CE00014C002F015C003F016C004F017C005F0D0
:101CF00018C006F019C007F01AC008F01200000E54
:101D0000126E08BE88EF0EF086EF0EF09AEF0EF01E
:101D1000081E071E061E051E041E031E021E016C61
:101D2000000E022203220422052206220722082294
:101D3000010E126E10BEA1EF0EF09FEF0EF0B1EF8C
:101D40000EF0101E0F1E0E1E0D1E0C1E0B1E0A1E68
:101D5000096C000E0A220B220C220D220E220F22E9
:101D6000102209500A100B100C100D100E100F103D
:101D70001010D8B4BEEF0EF0C0EF0EF008EF0FF069
:101D8000010E116ECEEF0EF0D89009360A360B36E2
:101D90000C360D360E360F361036112A10AED3EF34
:101DA0000EF0D5EF0EF0C4EF0EF00950015C0A50B2
:101DB00002580B5003580C5004580D5005580E5043
:101DC00006580F50075810500858D8A0EAEF0EF0E8
:101DD000ECEF0EF0FCEF0EF00950015E0A50025AD3
:101DE0000B50035A0C50045A0D50055A0E50065A07
:101DF0000F50075A1050085AD89010320F320E3236
:101E00000D320C320B320A320932112ED5EF0EF0A0
:101E10001250D8B40EEF0FF010EF0FF020EF0FF0CC
:101E2000081E071E061E051E041E031E021E016C50
:101E3000000E022203220422052206220722082283
:101E400001C001F002C002F003C003F004C004F0BE
:101E500005C005F006C006F007C007F008C008F08E
:101E60001200000E0F6E000E0E6E000E0D6E000EB4
:101E70000C6E3DEF0FF0074A082A07C0F6FF08C0B6
:101E8000F7FF000EF86E0800F550200AD8B44BEFAB
:101E90000FF04DEF0FF03BEF0FF007C0F6FF08C05B
:101EA000F7FF000EF86E0800F5CF09F0F70E0924D1
:101EB0000A6E0B6AFF0E0B220B5009E1050E0A5C3D
:101EC000D8A065EF0FF067EF0FF03BEF0FF071EF69
:101ED0000FF0000E0D6E010E0C6E074A082AAAEFD5
:101EE0000FF007C0F6FF08C0F7FF000EF86E0800FD
:101EF000F550096E0A6A0A50000AD8B482EF0FF052
:101F0000AAEF0FF009502B0AD8B46DEF0FF0060AB4
:101F1000D8B469EF0FF0AAEF0FF00EC001F00FC0B8
:101F200002F0000E046E0A0E036E1CEC13F007C0E4
:101F3000F6FF08C0F7FF000EF86E0800F550015ECE
:101F4000000E025A300E01240E6E000E02200F6E9B
:101F50006DEF0FF007C0F6FF08C0F7FF000EF86E38
:101F60000800F5CF09F0D00E09240A6E0B6AFF0EA7
:101F70000B220B5009E10A0E0A5CD8A0C2EF0FF049
:101F8000C4EF0FF08DEF0FF00C500D10D8A4CBEF75
:101F90000FF0CDEF0FF0DBEF0FF00EC009F00FC028
:101FA0000AF0091E0A1E094A0A2A09C007F00AC0D7
:101FB00008F0DFEF0FF00EC007F00FC008F01200BE
:101FC00003500410D8B4E7EF0FF0E9EF0FF0F2EF91
:101FD0000FF003500410D8A4F0EF0FF0F2EF0FF061
:101FE000F7EF0FF0015096EC13F044EF10F020EEF5
:101FF00009F00350D9260450DA22DE50DE10D8B49E
:1020000004EF10F006EF10F021EF10F020EE09F0D1
:102010000350D9260450DA2210EE03F00350E126D3
:102020000450E222DE50E65CE650800A096EDE5083
:10203000800A0958D8B01FEF10F021EF10F044EFDC
:1020400010F020EE03F00350D9260450DA22DECF40
:1020500005F0DDCF06F003C0D9FF04C0DAFFDECF04
:1020600007F0DDCF08F005500724D96E0650082090
:10207000DA6E01C0DFFF20EE03F00350D9260450D2
:10208000DA22DE2A000EDD22120001A04AEF10F053
:102090004CEF10F04FEF10F07F8050EF10F07F907A
:1020A00001A255EF10F057EF10F05AEF10F07F82B9
:1020B0005BEF10F07F9201A460EF10F062EF10F080
:1020C00065EF10F0798466EF10F0799401A66BEF5C
:1020D00010F06DEF10F070EF10F07E8C71EF10F0DB
:1020E0007E9C01A876EF10F078EF10F07BEF10F0F7
:1020F00079887CEF10F0799801AA81EF10F083EFD6
:1021000010F086EF10F0798A87EF10F0799A01AC21
:102110008CEF10F08EEF10F091EF10F07E8092EFC8
:1021200010F07E9001AE97EF10F099EF10F09CEF59
:1021300010F07A809DEF10F07A9002A0A2EF10F0DC
:10214000A4EF10F0A7EF10F07A82A8EF10F07A92C7
:1021500012005EA0AEEF10F0B0EF10F0BAEF10F08A
:1021600013C00AF014C00BF011C00CF012C00DF037
:102170005EEC12F016BEBFEF10F0C1EF10F0C7EF2B
:1021800010F015C01AF016C01BF0CBEF10F0000EC7
:102190001B6E000E1A6E000E196E000E186EDDEF2B
:1021A00010F0000E026E200E016E11C003F012C07E
:1021B00004F0E0EC0FF0184A192A1A50185C195074
:1021C000800A176E1B50800A1758D8A0EAEF10F04B
:1021D000ECEF10F0D1EF10F05EB0F1EF10F0F3EF94
:1021E00010F0FDEF10F013C00AF014C00BF011C096
:1021F0000CF012C00DF05EEC12F01200839C839480
:1022000082968294859685927B9C7B947A967A942A
:102210007D967D92050E056E0F0E046EF10EE82E72
:10222000FED7042EFCD7052EFAD700F0030E83EC60
:1022300011F0F00EE82EFED7020E83EC11F0F00E36
:10224000E82EFED7000E026E280EBDEC12F0F00E46
:10225000E82EFED7000E026E080EBDEC12F0F00E56
:10226000E82EFED7000E026E010EBDEC12F02A0E13
:10227000046E8E0EE82EFED7042EFCD7000E026EE2
:10228000060EBDEC12F0000E026E0C0EBDEC12F04C
:102290001200000E0C6E000E0B6E09500A10D8B41E
:1022A00054EF11F056EF11F07EEF11F0010E0D6EAC
:1022B0005EEF11F0D89009360A360D2A0AAE63EFA8
:1022C00011F065EF11F05AEF11F0D8900B360C3683
:1022D0000950075C0A500858D8A071EF11F073EF4D
:1022E00011F078EF11F00950075E0A50085A0B8080
:1022F000D8900A3209320D2E65EF11F00BC007F0AD
:102300000CC008F01200016E01A089EF11F08BEFF4
:1023100011F08EEF11F07A868FEF11F07A9601A20C
:1023200094EF11F096EF11F099EF11F07A849AEF93
:1023300011F07A9401A49FEF11F0A1EF11F0A4EF36
:1023400011F07D86A5EF11F07D9601A6AAEF11F0A0
:10235000ACEF11F0AFEF11F07D82B0EF11F07D9294
:1023600087EC13F01A0EE82EFED700D012000950A9
:102370000A10D8B4BEEF11F0C0EF11F0E4EF11F085
:10238000010E0B6EC8EF11F0D89009360A360B2AF1
:102390000AAECDEF11F0CFEF11F0C4EF11F00950FC
:1023A000075C0A500858D8A0D8EF11F0DAEF11F006
:1023B000DEEF11F00950075E0A50085AD8900A3231
:1023C00009320B2ECFEF11F007C007F008C008F05C
:1023D0001200640E0001686F000E696F60C06AF041
:1023E00061C06BF0000E6E6F000E6D6F000E746FAB
:1023F000000E736F6A0E546E000E556E62C056F07A
:1024000063C057F0680E586E000E596E12EC12F051
:1024100000016D516025D96E6E516121DA6E000E9A
:10242000DF6E120056C05AF057C05BF026EF12F074
:1024300054C03FF055C040F05A0E416E000E426E3F
:1024400058C043F059C044F004EC0BF05AC0F6FFFA
:102450005BC0F7FF000EF86E0800F5500009D8A425
:1024600034EF12F036EF12F018EF12F0000E556E46
:10247000000E546E1200010E056E200E011802109F
:10248000D8B445EF12F047EF12F05AEF12F0F70E02
:102490000124036EFF0E0220046E045009E1050EB4
:1024A000035CD8A056EF12F058EF12F05AEF12F07A
:1024B000000E056E05C001F0026A1200000E106EDB
:1024C000000E0F6E6FEF12F00EC001F0026A0CC02A
:1024D00003F00DC004F0E0EC0FF00F4A102A0F508B
:1024E0000A24D96E10500B20DA6EDF500E6E0E509B
:1024F000D8A47DEF12F07FEF12F064EF12F012001B
:1025000014BE8DEF12F0145006E11304D8B08BEF17
:1025100012F08DEF12F09BEF12F013C015F014C003
:1025200016F0151E161E154A162A15C013F016C0F1
:1025300014F09FEF12F013C013F014C014F0120047
:10254000046E0404D8A4A7EF12F0A9EF12F0AEEFC6
:1025500012F0000E026E800EBDEC12F0020E041896
:10256000D8A4B5EF12F0B7EF12F0BCEF12F0000EE6
:10257000026EC00EBDEC12F01200036E0250D8B411
:10258000C4EF12F0C6EF12F0C9EF12F07B8CCAEF65
:1025900012F07B9C03380F0B0F0B83EC11F00350F0
:1025A0000F0B83EC11F0A00E00D0E82EFDD7120027
:1025B000E5EF12F0010E026E04C0D9FF05C0DAFF8C
:1025C000DF50BDEC12F0044A052A04C0D9FF05C053
:1025D000DAFFDF50D8A4EFEF12F0F1EF12F0DAEFEC
:1025E00012F01200D00E0124036EFF0E0220046EC2
:1025F00004500AE10A0E035CD8A001EF13F004EFC7
:1026000013F0010E05EF13F0000E016E026A1200C6
:1026100001EE00F0200EEE6AE806FDE100EECBF0E0
:10262000160EEE6AE806FDE15E6A5D6A5C6A5F901E
:102630005F92000114EF07F001500302F3CF05F0A1
:10264000F4CF06F001500402F350062602500302B4
:10265000F350062605C001F006C002F01200818684
:102660000E01D251F80B0309D26FD351F80B0509B3
:10267000D36FD083D089D183D1817DEC13F00E014B
:10268000D08F1200879087928194869C8198819A3E
:10269000869082907F907F9279947E9C7998799AA7
:1026A0007E907A901200D6501F0B4009D66ED688C5
:1026B000D650F00B0209D66ED5880B0ED46E0B0ED9
:1026C000D36ED58E1200000E026E010EBDEC12F01C
:1026D0002A0E046E8E0EE82EFED7042EFCD71200B2
:1026E00081860E0192870F015899FC0E5817030E30
:1026F0005F6F60946088608E1200F30E0E01C61743
:10270000C691C751E00B1B09C76FC68F12007B84AF
:102710000A0EE82EFED700D07B9412000E01298B02
:0E272000F28EF28C1200808688961200120053
:020000040020DA
:10000000FF0FFF0FFF0FFF0FFF0FFF0FFF0FFF0F80
:020000040030CA
:0C000000AAFFFFFF9FFFFFFFFFFFFFFFB5
:00000001FF
