:040000003BEF00F0E2
:1000080006820E0135A10BEF00F00DEF00F021EF95
:1000180000F080A612EF00F016EF00F0016A012A46
:1000280017EF00F0016A01460146014680500118A9
:10003800F70B0118806E0E01359133AB26EF00F0F7
:1000480028EF00F039EF00F0044A052A180E0418CA
:100058000510D8A432EF00F034EF00F038EF00F0CC
:10006800000E056E000E046E339B0692110001EF20
:1000780001F002A042EF00F044EF00F047EF00F07B
:100088007F8048EF00F07F9002A24DEF00F04FEF25
:1000980000F052EF00F07F8253EF00F07F9202A44D
:1000A80058EF00F05AEF00F05DEF00F079845EEF52
:1000B80000F0799402A663EF00F065EF00F068EFB6
:1000C80000F07E8C69EF00F07E9C02A86EEF00F0D5
:1000D80070EF00F073EF00F0798874EF00F0799812
:1000E80002AA79EF00F07BEF00F07EEF00F0798A4A
:1000F8007FEF00F0799A02AC84EF00F086EF00F011
:1001080089EF00F07E808AEF00F07E9002AE8FEFDC
:1001180000F091EF00F094EF00F07A8095EF00F096
:100128007A901200C3EC00F0D4EC00F0E4EC00F09C
:10013800B0EC00F0FBEC00F006EC01F0000E056EF0
:10014800010E046E04C002F005C003F03DEC00F09F
:10015800A6EF00F03BEF00F081860E01D251F80BBC
:100168000309D26FD351F80B0509D36FD083D08917
:10017800D183D181F1EC00F00E01D08F120087906D
:1001880087928194869C8198819A869082907F90AC
:100198007F9279947E9C7998799A7E907A901200D1
:1001A800D6501F0B4009D66ED688D650F00B0809DA
:1001B800D66ED5880B0ED46EDB0ED36ED58E12009C
:1001C80081860E0192870F015899FC0E5817030E6D
:1001D8005F6F60946088608E1200F30E0E01C61780
:1001E800C691C751E00B1B09C76FC68F12000E01DD
:1001F8002B812181F28CF28E12000690069200016A
:0A02080096EF00F080968896120031
:020000040020DA
:10000000FF0FFF0FFF0FFF0FFF0FFF0FFF0FFF0F80
:020000040030CA
:0C000000AAFFFFFF9FFFFFFFFFFFFFFFB5
:00000001FF
